{
  "contractName": "MarketPlace",
  "abi": [
    {
      "constant": true,
      "inputs": [],
      "name": "skuCount",
      "outputs": [
        {
          "name": "",
          "type": "uint256"
        }
      ],
      "payable": false,
      "stateMutability": "view",
      "type": "function",
      "signature": "0x22702473"
    },
    {
      "constant": true,
      "inputs": [
        {
          "name": "",
          "type": "address"
        }
      ],
      "name": "storeOwnersDB",
      "outputs": [
        {
          "name": "",
          "type": "bool"
        }
      ],
      "payable": false,
      "stateMutability": "view",
      "type": "function",
      "signature": "0x3b78f63e"
    },
    {
      "constant": false,
      "inputs": [],
      "name": "renounceOwnership",
      "outputs": [],
      "payable": false,
      "stateMutability": "nonpayable",
      "type": "function",
      "signature": "0x715018a6"
    },
    {
      "constant": true,
      "inputs": [],
      "name": "stopped",
      "outputs": [
        {
          "name": "",
          "type": "bool"
        }
      ],
      "payable": false,
      "stateMutability": "view",
      "type": "function",
      "signature": "0x75f12b21"
    },
    {
      "constant": true,
      "inputs": [
        {
          "name": "",
          "type": "address"
        }
      ],
      "name": "adminsDB",
      "outputs": [
        {
          "name": "",
          "type": "bool"
        }
      ],
      "payable": false,
      "stateMutability": "view",
      "type": "function",
      "signature": "0x8b631991"
    },
    {
      "constant": true,
      "inputs": [],
      "name": "owner",
      "outputs": [
        {
          "name": "",
          "type": "address"
        }
      ],
      "payable": false,
      "stateMutability": "view",
      "type": "function",
      "signature": "0x8da5cb5b"
    },
    {
      "constant": true,
      "inputs": [],
      "name": "isOwner",
      "outputs": [
        {
          "name": "",
          "type": "bool"
        }
      ],
      "payable": false,
      "stateMutability": "view",
      "type": "function",
      "signature": "0x8f32d59b"
    },
    {
      "constant": true,
      "inputs": [],
      "name": "storeCount",
      "outputs": [
        {
          "name": "",
          "type": "uint256"
        }
      ],
      "payable": false,
      "stateMutability": "view",
      "type": "function",
      "signature": "0xa1b141d4"
    },
    {
      "constant": false,
      "inputs": [
        {
          "name": "newOwner",
          "type": "address"
        }
      ],
      "name": "transferOwnership",
      "outputs": [],
      "payable": false,
      "stateMutability": "nonpayable",
      "type": "function",
      "signature": "0xf2fde38b"
    },
    {
      "constant": true,
      "inputs": [
        {
          "name": "",
          "type": "uint256"
        }
      ],
      "name": "storeFront",
      "outputs": [
        {
          "name": "storeName",
          "type": "string"
        },
        {
          "name": "storeOwner",
          "type": "address"
        },
        {
          "name": "pendingWithdrawal",
          "type": "uint256"
        },
        {
          "name": "latestSkuNoInStore",
          "type": "uint256"
        }
      ],
      "payable": false,
      "stateMutability": "view",
      "type": "function",
      "signature": "0xfd5e943a"
    },
    {
      "anonymous": false,
      "inputs": [
        {
          "indexed": false,
          "name": "_admin",
          "type": "address"
        }
      ],
      "name": "adminAdded",
      "type": "event",
      "signature": "0xefcbb6030dbeda3448a657cc462d3fde6f3b78e2710bd7b2d9e2ab358a12e170"
    },
    {
      "anonymous": false,
      "inputs": [
        {
          "indexed": false,
          "name": "_admin",
          "type": "address"
        }
      ],
      "name": "adminDeleted",
      "type": "event",
      "signature": "0x86f2a87e57b786e440244b5c31f13c4f7bda9b857bdfd1c8218ecdfb029f4c0f"
    },
    {
      "anonymous": false,
      "inputs": [
        {
          "indexed": false,
          "name": "_storeOwner",
          "type": "address"
        }
      ],
      "name": "storeOwnerAdded",
      "type": "event",
      "signature": "0xc48be1259827f286158037425eac2071e5a2ce505bf01d53384e77fa0ef60da2"
    },
    {
      "anonymous": false,
      "inputs": [
        {
          "indexed": false,
          "name": "_storeOwner",
          "type": "address"
        }
      ],
      "name": "storeOwnerDeleted",
      "type": "event",
      "signature": "0xd89cae1cc248e953c8ad4c040cf8353ec442f065045d82884af21e15a979afc5"
    },
    {
      "anonymous": false,
      "inputs": [
        {
          "indexed": false,
          "name": "_storeID",
          "type": "uint256"
        },
        {
          "indexed": false,
          "name": "_storeName",
          "type": "string"
        },
        {
          "indexed": false,
          "name": "_storeOwner",
          "type": "address"
        }
      ],
      "name": "storeFrontCreated",
      "type": "event",
      "signature": "0x981bdf87b6a5937751ec714254f33c9280af322ed4c6744b1ba943aae982b606"
    },
    {
      "anonymous": false,
      "inputs": [
        {
          "indexed": false,
          "name": "_sku",
          "type": "uint256"
        },
        {
          "indexed": false,
          "name": "_storeID",
          "type": "uint256"
        },
        {
          "indexed": false,
          "name": "_nameOfItem",
          "type": "string"
        },
        {
          "indexed": false,
          "name": "_quantity",
          "type": "uint256"
        },
        {
          "indexed": false,
          "name": "_price",
          "type": "uint256"
        }
      ],
      "name": "itemToSellAdded",
      "type": "event",
      "signature": "0x8526f2be0525916490c710d1117ba1e2b14068a050370500edc332329e0f0e9b"
    },
    {
      "anonymous": false,
      "inputs": [
        {
          "indexed": false,
          "name": "_sku",
          "type": "uint256"
        },
        {
          "indexed": false,
          "name": "_storeID",
          "type": "uint256"
        },
        {
          "indexed": false,
          "name": "_newPrice",
          "type": "uint256"
        }
      ],
      "name": "itemPriceUpdated",
      "type": "event",
      "signature": "0x7bb0939fa8871fdad6ab517d35a446bdf92216cfde5e600d537525e40bab2d51"
    },
    {
      "anonymous": false,
      "inputs": [
        {
          "indexed": false,
          "name": "_storeID",
          "type": "uint256"
        },
        {
          "indexed": false,
          "name": "_skuCode",
          "type": "uint256"
        }
      ],
      "name": "itemForSaleDeleted",
      "type": "event",
      "signature": "0xace30996fcccb030823d885d6f416386f030076e7e650acb6b7c2ae96bf03f20"
    },
    {
      "anonymous": false,
      "inputs": [
        {
          "indexed": false,
          "name": "_storeID",
          "type": "uint256"
        },
        {
          "indexed": false,
          "name": "_payment",
          "type": "uint256"
        },
        {
          "indexed": false,
          "name": "_storeSalesBalance",
          "type": "uint256"
        }
      ],
      "name": "salesWithdrawn",
      "type": "event",
      "signature": "0xec55db48190f8d91ed5ad4118ee6288cfd6506c9393dbdab71fa309691a16a6c"
    },
    {
      "anonymous": false,
      "inputs": [
        {
          "indexed": false,
          "name": "_refund",
          "type": "uint256"
        }
      ],
      "name": "refund",
      "type": "event",
      "signature": "0x278ecde10404a9f1d9088d6512ddd16581968e0a41c5416fce08986e7207bbe4"
    },
    {
      "anonymous": false,
      "inputs": [
        {
          "indexed": false,
          "name": "_name",
          "type": "string"
        },
        {
          "indexed": false,
          "name": "_skuCode",
          "type": "uint256"
        },
        {
          "indexed": false,
          "name": "_quantity",
          "type": "uint256"
        },
        {
          "indexed": false,
          "name": "_storeID",
          "type": "uint256"
        },
        {
          "indexed": false,
          "name": "_price",
          "type": "uint256"
        }
      ],
      "name": "itemBought",
      "type": "event",
      "signature": "0x9259a67249e7b0a868c35bcfa5319728c41e806b070e699ef0ee54eaca05edb1"
    },
    {
      "anonymous": false,
      "inputs": [
        {
          "indexed": true,
          "name": "previousOwner",
          "type": "address"
        },
        {
          "indexed": true,
          "name": "newOwner",
          "type": "address"
        }
      ],
      "name": "OwnershipTransferred",
      "type": "event",
      "signature": "0x8be0079c531659141344cd1fd0a4f28419497f9722a3daafe3b4186f6b6457e0"
    },
    {
      "constant": false,
      "inputs": [
        {
          "name": "_admin",
          "type": "address"
        }
      ],
      "name": "addAdmin",
      "outputs": [],
      "payable": false,
      "stateMutability": "nonpayable",
      "type": "function",
      "signature": "0x70480275"
    },
    {
      "constant": false,
      "inputs": [
        {
          "name": "_admin",
          "type": "address"
        }
      ],
      "name": "deleteAdmin",
      "outputs": [],
      "payable": false,
      "stateMutability": "nonpayable",
      "type": "function",
      "signature": "0x27e1f7df"
    },
    {
      "constant": false,
      "inputs": [],
      "name": "activateEmergencyStop",
      "outputs": [],
      "payable": false,
      "stateMutability": "nonpayable",
      "type": "function",
      "signature": "0x985957ab"
    },
    {
      "constant": false,
      "inputs": [],
      "name": "deActivateEmergencyStop",
      "outputs": [],
      "payable": false,
      "stateMutability": "nonpayable",
      "type": "function",
      "signature": "0x8a85fff8"
    },
    {
      "constant": false,
      "inputs": [],
      "name": "withdrawAllFunds",
      "outputs": [],
      "payable": false,
      "stateMutability": "nonpayable",
      "type": "function",
      "signature": "0x49649fbf"
    },
    {
      "constant": false,
      "inputs": [
        {
          "name": "_newStoreOwner",
          "type": "address"
        }
      ],
      "name": "addStoreOwner",
      "outputs": [],
      "payable": false,
      "stateMutability": "nonpayable",
      "type": "function",
      "signature": "0x9adeb5f1"
    },
    {
      "constant": false,
      "inputs": [
        {
          "name": "_deleteStoreOwner",
          "type": "address"
        }
      ],
      "name": "deleteStoreOwner",
      "outputs": [],
      "payable": false,
      "stateMutability": "nonpayable",
      "type": "function",
      "signature": "0xdcba65af"
    },
    {
      "constant": false,
      "inputs": [
        {
          "name": "_storeName",
          "type": "string"
        }
      ],
      "name": "createStoreFront",
      "outputs": [],
      "payable": false,
      "stateMutability": "nonpayable",
      "type": "function",
      "signature": "0x2fc826bd"
    },
    {
      "constant": false,
      "inputs": [
        {
          "name": "_nameOfItem",
          "type": "string"
        },
        {
          "name": "_quantity",
          "type": "uint256"
        },
        {
          "name": "_price",
          "type": "uint256"
        },
        {
          "name": "_storeID",
          "type": "uint256"
        }
      ],
      "name": "addItem",
      "outputs": [],
      "payable": false,
      "stateMutability": "nonpayable",
      "type": "function",
      "signature": "0xdc0dd677"
    },
    {
      "constant": false,
      "inputs": [
        {
          "name": "_skuCode",
          "type": "uint256"
        },
        {
          "name": "_storeID",
          "type": "uint256"
        },
        {
          "name": "_newPrice",
          "type": "uint256"
        }
      ],
      "name": "changePrice",
      "outputs": [],
      "payable": false,
      "stateMutability": "nonpayable",
      "type": "function",
      "signature": "0x40e2b4b8"
    },
    {
      "constant": false,
      "inputs": [
        {
          "name": "_storeID",
          "type": "uint256"
        },
        {
          "name": "_skuCode",
          "type": "uint256"
        }
      ],
      "name": "deleteItem",
      "outputs": [],
      "payable": false,
      "stateMutability": "nonpayable",
      "type": "function",
      "signature": "0x618a7e1d"
    },
    {
      "constant": false,
      "inputs": [
        {
          "name": "_withdrawAmount",
          "type": "uint256"
        },
        {
          "name": "_storeID",
          "type": "uint256"
        }
      ],
      "name": "withdrawSales",
      "outputs": [],
      "payable": false,
      "stateMutability": "nonpayable",
      "type": "function",
      "signature": "0x8b776fd5"
    },
    {
      "constant": false,
      "inputs": [
        {
          "name": "_quantity",
          "type": "uint256"
        },
        {
          "name": "_skuCode",
          "type": "uint256"
        },
        {
          "name": "_storeID",
          "type": "uint256"
        }
      ],
      "name": "buyItem",
      "outputs": [],
      "payable": true,
      "stateMutability": "payable",
      "type": "function",
      "signature": "0x1f6a8318"
    },
    {
      "constant": true,
      "inputs": [
        {
          "name": "_storeID",
          "type": "uint256"
        }
      ],
      "name": "getLatestSKU",
      "outputs": [
        {
          "name": "",
          "type": "uint256"
        }
      ],
      "payable": false,
      "stateMutability": "view",
      "type": "function",
      "signature": "0xa6aeb49a"
    },
    {
      "constant": true,
      "inputs": [
        {
          "name": "_storeID",
          "type": "uint256"
        },
        {
          "name": "_sku",
          "type": "uint256"
        }
      ],
      "name": "getItemInShop",
      "outputs": [
        {
          "name": "",
          "type": "string"
        },
        {
          "name": "",
          "type": "uint256"
        },
        {
          "name": "",
          "type": "uint256"
        }
      ],
      "payable": false,
      "stateMutability": "view",
      "type": "function",
      "signature": "0x5203320e"
    },
    {
      "constant": true,
      "inputs": [
        {
          "name": "_isAdmin",
          "type": "address"
        }
      ],
      "name": "fetchAdmin",
      "outputs": [
        {
          "name": "newAdminExists",
          "type": "bool"
        }
      ],
      "payable": false,
      "stateMutability": "view",
      "type": "function",
      "signature": "0x6001f1d1"
    },
    {
      "constant": true,
      "inputs": [
        {
          "name": "_isStoreOwner",
          "type": "address"
        }
      ],
      "name": "fetchStoreOwner",
      "outputs": [
        {
          "name": "newStoreOwner",
          "type": "bool"
        }
      ],
      "payable": false,
      "stateMutability": "view",
      "type": "function",
      "signature": "0x042ba42a"
    },
    {
      "constant": true,
      "inputs": [
        {
          "name": "_storeID",
          "type": "uint256"
        }
      ],
      "name": "fetchStoreID",
      "outputs": [
        {
          "name": "newStoreOwnerAddress",
          "type": "address"
        },
        {
          "name": "storeNameAdded",
          "type": "string"
        }
      ],
      "payable": false,
      "stateMutability": "view",
      "type": "function",
      "signature": "0x36cc9685"
    },
    {
      "constant": true,
      "inputs": [
        {
          "name": "_storeID",
          "type": "uint256"
        },
        {
          "name": "_skuCode",
          "type": "uint256"
        }
      ],
      "name": "fetchItem",
      "outputs": [
        {
          "name": "isName",
          "type": "string"
        },
        {
          "name": "isQuantity",
          "type": "uint256"
        },
        {
          "name": "isPrice",
          "type": "uint256"
        }
      ],
      "payable": false,
      "stateMutability": "view",
      "type": "function",
      "signature": "0xd5e57da6"
    },
    {
      "constant": true,
      "inputs": [
        {
          "name": "_currentStoreID",
          "type": "uint256"
        },
        {
          "name": "_currentSKU",
          "type": "uint256"
        }
      ],
      "name": "isItemBought",
      "outputs": [
        {
          "name": "newQuantity",
          "type": "uint256"
        }
      ],
      "payable": false,
      "stateMutability": "view",
      "type": "function",
      "signature": "0xe68ca8b6"
    },
    {
      "constant": true,
      "inputs": [
        {
          "name": "_storeID",
          "type": "uint256"
        }
      ],
      "name": "fetchStoreBalance",
      "outputs": [
        {
          "name": "storeBalance",
          "type": "uint256"
        }
      ],
      "payable": false,
      "stateMutability": "view",
      "type": "function",
      "signature": "0xfd205d4c"
    },
    {
      "constant": true,
      "inputs": [
        {
          "name": "_storeID",
          "type": "uint256"
        }
      ],
      "name": "fetchSalesWithdrawn",
      "outputs": [
        {
          "name": "storeBalance",
          "type": "uint256"
        }
      ],
      "payable": false,
      "stateMutability": "view",
      "type": "function",
      "signature": "0xf87bda89"
    }
  ],
  "bytecode": "0x6080604052600060015560006002556000600360006101000a81548160ff021916908315150217905550336000806101000a81548173ffffffffffffffffffffffffffffffffffffffff021916908373ffffffffffffffffffffffffffffffffffffffff1602179055506000809054906101000a900473ffffffffffffffffffffffffffffffffffffffff1673ffffffffffffffffffffffffffffffffffffffff16600073ffffffffffffffffffffffffffffffffffffffff167f8be0079c531659141344cd1fd0a4f28419497f9722a3daafe3b4186f6b6457e060405160405180910390a3613c8b806100f46000396000f3fe608060405260043610610196576000357c0100000000000000000000000000000000000000000000000000000000900463ffffffff168063042ba42a1461019b5780631f6a831814610204578063227024731461024657806327e1f7df146102715780632fc826bd146102c257806336cc96851461038a5780633b78f63e1461047157806340e2b4b8146104da57806349649fbf146105295780635203320e146105405780636001f1d11461060c578063618a7e1d1461067557806370480275146106ba578063715018a61461070b57806375f12b21146107225780638a85fff8146107515780638b631991146107685780638b776fd5146107d15780638da5cb5b146108165780638f32d59b1461086d578063985957ab1461089c5780639adeb5f1146108b3578063a1b141d414610904578063a6aeb49a1461092f578063d5e57da61461097e578063dc0dd67714610a4a578063dcba65af14610b30578063e68ca8b614610b81578063f2fde38b14610bda578063f87bda8914610c2b578063fd205d4c14610c7a578063fd5e943a14610cc9575b600080fd5b3480156101a757600080fd5b506101ea600480360360208110156101be57600080fd5b81019080803573ffffffffffffffffffffffffffffffffffffffff169060200190929190505050610dbe565b604051808215151515815260200191505060405180910390f35b6102446004803603606081101561021a57600080fd5b81019080803590602001909291908035906020019092919080359060200190929190505050610e17565b005b34801561025257600080fd5b5061025b61128a565b6040518082815260200191505060405180910390f35b34801561027d57600080fd5b506102c06004803603602081101561029457600080fd5b81019080803573ffffffffffffffffffffffffffffffffffffffff169060200190929190505050611290565b005b3480156102ce57600080fd5b50610388600480360360208110156102e557600080fd5b810190808035906020019064010000000081111561030257600080fd5b82018360208201111561031457600080fd5b8035906020019184600183028401116401000000008311171561033657600080fd5b91908080601f016020809104026020016040519081016040528093929190818152602001838380828437600081840152601f19601f82011690508083019250505050505050919291929050505061144f565b005b34801561039657600080fd5b506103c3600480360360208110156103ad57600080fd5b8101908080359060200190929190505050611714565b604051808373ffffffffffffffffffffffffffffffffffffffff1673ffffffffffffffffffffffffffffffffffffffff16815260200180602001828103825283818151815260200191508051906020019080838360005b8381101561043557808201518184015260208101905061041a565b50505050905090810190601f1680156104625780820380516001836020036101000a031916815260200191505b50935050505060405180910390f35b34801561047d57600080fd5b506104c06004803603602081101561049457600080fd5b81019080803573ffffffffffffffffffffffffffffffffffffffff16906020019092919050505061180d565b604051808215151515815260200191505060405180910390f35b3480156104e657600080fd5b50610527600480360360608110156104fd57600080fd5b8101908080359060200190929190803590602001909291908035906020019092919050505061182d565b005b34801561053557600080fd5b5061053e611ba0565b005b34801561054c57600080fd5b506105836004803603604081101561056357600080fd5b810190808035906020019092919080359060200190929190505050611cde565b6040518080602001848152602001838152602001828103825285818151815260200191508051906020019080838360005b838110156105cf5780820151818401526020810190506105b4565b50505050905090810190601f1680156105fc5780820380516001836020036101000a031916815260200191505b5094505050505060405180910390f35b34801561061857600080fd5b5061065b6004803603602081101561062f57600080fd5b81019080803573ffffffffffffffffffffffffffffffffffffffff169060200190929190505050611e1b565b604051808215151515815260200191505060405180910390f35b34801561068157600080fd5b506106b86004803603604081101561069857600080fd5b810190808035906020019092919080359060200190929190505050611e74565b005b3480156106c657600080fd5b50610709600480360360208110156106dd57600080fd5b81019080803573ffffffffffffffffffffffffffffffffffffffff1690602001909291905050506121f9565b005b34801561071757600080fd5b506107206123c1565b005b34801561072e57600080fd5b50610737612522565b604051808215151515815260200191505060405180910390f35b34801561075d57600080fd5b50610766612535565b005b34801561077457600080fd5b506107b76004803603602081101561078b57600080fd5b81019080803573ffffffffffffffffffffffffffffffffffffffff1690602001909291905050506125f4565b604051808215151515815260200191505060405180910390f35b3480156107dd57600080fd5b50610814600480360360408110156107f457600080fd5b810190808035906020019092919080359060200190929190505050612614565b005b34801561082257600080fd5b5061082b612b19565b604051808273ffffffffffffffffffffffffffffffffffffffff1673ffffffffffffffffffffffffffffffffffffffff16815260200191505060405180910390f35b34801561087957600080fd5b50610882612b42565b604051808215151515815260200191505060405180910390f35b3480156108a857600080fd5b506108b1612b99565b005b3480156108bf57600080fd5b50610902600480360360208110156108d657600080fd5b81019080803573ffffffffffffffffffffffffffffffffffffffff169060200190929190505050612c58565b005b34801561091057600080fd5b50610919612e67565b6040518082815260200191505060405180910390f35b34801561093b57600080fd5b506109686004803603602081101561095257600080fd5b8101908080359060200190929190505050612e6d565b6040518082815260200191505060405180910390f35b34801561098a57600080fd5b506109c1600480360360408110156109a157600080fd5b810190808035906020019092919080359060200190929190505050612e8d565b6040518080602001848152602001838152602001828103825285818151815260200191508051906020019080838360005b83811015610a0d5780820151818401526020810190506109f2565b50505050905090810190601f168015610a3a5780820380516001836020036101000a031916815260200191505b5094505050505060405180910390f35b348015610a5657600080fd5b50610b2e60048036036080811015610a6d57600080fd5b8101908080359060200190640100000000811115610a8a57600080fd5b820183602082011115610a9c57600080fd5b80359060200191846001830284011164010000000083111715610abe57600080fd5b91908080601f016020809104026020016040519081016040528093929190818152602001838380828437600081840152601f19601f820116905080830192505050505050509192919290803590602001909291908035906020019092919080359060200190929190505050612fc1565b005b348015610b3c57600080fd5b50610b7f60048036036020811015610b5357600080fd5b81019080803573ffffffffffffffffffffffffffffffffffffffff1690602001909291905050506133ac565b005b348015610b8d57600080fd5b50610bc460048036036040811015610ba457600080fd5b8101908080359060200190929190803590602001909291905050506135b2565b6040518082815260200191505060405180910390f35b348015610be657600080fd5b50610c2960048036036020811015610bfd57600080fd5b81019080803573ffffffffffffffffffffffffffffffffffffffff1690602001909291905050506135ea565b005b348015610c3757600080fd5b50610c6460048036036020811015610c4e57600080fd5b8101908080359060200190929190505050613698565b6040518082815260200191505060405180910390f35b348015610c8657600080fd5b50610cb360048036036020811015610c9d57600080fd5b81019080803590602001909291905050506136bb565b6040518082815260200191505060405180910390f35b348015610cd557600080fd5b50610d0260048036036020811015610cec57600080fd5b81019080803590602001909291905050506136de565b60405180806020018573ffffffffffffffffffffffffffffffffffffffff1673ffffffffffffffffffffffffffffffffffffffff168152602001848152602001838152602001828103825286818151815260200191508051906020019080838360005b83811015610d80578082015181840152602081019050610d65565b50505050905090810190601f168015610dad5780820380516001836020036101000a031916815260200191505b509550505050505060405180910390f35b6000600560008373ffffffffffffffffffffffffffffffffffffffff1673ffffffffffffffffffffffffffffffffffffffff16815260200190815260200160002060009054906101000a900460ff169050809050919050565b600360009054906101000a900460ff16151515610e7f576040517f08c379a000000000000000000000000000000000000000000000000000000000815260040180806020018281038252609c815260200180613bc4609c913960a00191505060405180910390fd5b828183600660008381526020019081526020016000206004016000828152602001908152602001600020600101548311151515610f4a576040517f08c379a00000000000000000000000000000000000000000000000000000000081526004018080602001828103825260388152602001807f596f752061726520747279696e6720746f207075726368617365206d6f72652081526020017f6974656d73207468616e2061726520617661696c61626c65000000000000000081525060400191505060405180910390fd5b85600660008681526020019081526020016000206004016000878152602001908152602001600020600201548181023410151515611016576040517f08c379a000000000000000000000000000000000000000000000000000000000815260040180806020018281038252602b8152602001807f596f752068617665206e6f742074656e64657265642074686520696e636f727281526020017f65637420616d6f756e742e00000000000000000000000000000000000000000081525060400191505060405180910390fd5b876006600088815260200190815260200160002060040160008981526020019081526020016000206002015489600660008a815260200190815260200160002060040160008b81526020019081526020016000206001016000828254039250508190555089600660008a815260200190815260200160002060040160008b81526020019081526020016000206002015402600660008a8152602001908152602001600020600201600082825401925050819055507f9259a67249e7b0a868c35bcfa5319728c41e806b070e699ef0ee54eaca05edb1600660008a815260200190815260200160002060040160008b81526020019081526020016000206000018a8c8b600660008e815260200190815260200160002060040160008f81526020019081526020016000206002015460405180806020018681526020018581526020018481526020018381526020018281038252878181546001816001161561010002031660029004815260200191508054600181600116156101000203166002900480156111e45780601f106111b9576101008083540402835291602001916111e4565b820191906000526020600020905b8154815290600101906020018083116111c757829003601f168201915b5050965050505050505060405180910390a16000828202340390503373ffffffffffffffffffffffffffffffffffffffff166108fc829081150290604051600060405180830381858888f19350505050158015611245573d6000803e3d6000fd5b507f278ecde10404a9f1d9088d6512ddd16581968e0a41c5416fce08986e7207bbe4816040518082815260200191505060405180910390a15050505050505050505050565b60025481565b600360009054906101000a900460ff161515156112f8576040517f08c379a000000000000000000000000000000000000000000000000000000000815260040180806020018281038252609c815260200180613bc4609c913960a00191505060405180910390fd5b611300612b42565b151561139a576040517f08c379a000000000000000000000000000000000000000000000000000000000815260040180806020018281038252603c8152602001807f546869732066756e6374696f6e206973206f6e6c7920617661696c61626c652081526020017f746f20746865206f776e6572206f662074686520636f6e74726163740000000081525060400191505060405180910390fd5b600460008273ffffffffffffffffffffffffffffffffffffffff1673ffffffffffffffffffffffffffffffffffffffff16815260200190815260200160002060006101000a81549060ff02191690557f86f2a87e57b786e440244b5c31f13c4f7bda9b857bdfd1c8218ecdfb029f4c0f81604051808273ffffffffffffffffffffffffffffffffffffffff1673ffffffffffffffffffffffffffffffffffffffff16815260200191505060405180910390a150565b600360009054906101000a900460ff161515156114b7576040517f08c379a000000000000000000000000000000000000000000000000000000000815260040180806020018281038252609c815260200180613bc4609c913960a00191505060405180910390fd5b600560003373ffffffffffffffffffffffffffffffffffffffff1673ffffffffffffffffffffffffffffffffffffffff16815260200190815260200160002060009054906101000a900460ff1680151561159f576040517f08c379a000000000000000000000000000000000000000000000000000000000815260040180806020018281038252602f8152602001807f546869732066756e6374696f6e206973206f6e6c7920617661696c61626c652081526020017f746f2073746f7265206f776e657273000000000000000000000000000000000081525060400191505060405180910390fd5b6115ac60015460016137c6565b6001819055508160066000600154815260200190815260200160002060000190805190602001906115de929190613ad6565b503360066000600154815260200190815260200160002060010160006101000a81548173ffffffffffffffffffffffffffffffffffffffff021916908373ffffffffffffffffffffffffffffffffffffffff1602179055507f981bdf87b6a5937751ec714254f33c9280af322ed4c6744b1ba943aae982b606600154833360405180848152602001806020018373ffffffffffffffffffffffffffffffffffffffff1673ffffffffffffffffffffffffffffffffffffffff168152602001828103825284818151815260200191508051906020019080838360005b838110156116d45780820151818401526020810190506116b9565b50505050905090810190601f1680156117015780820380516001836020036101000a031916815260200191505b5094505050505060405180910390a15050565b600060606006600084815260200190815260200160002060010160009054906101000a900473ffffffffffffffffffffffffffffffffffffffff169150600660008481526020019081526020016000206000018054600181600116156101000203166002900480601f0160208091040260200160405190810160405280929190818152602001828054600181600116156101000203166002900480156117fb5780601f106117d0576101008083540402835291602001916117fb565b820191906000526020600020905b8154815290600101906020018083116117de57829003601f168201915b50505050509050818191509150915091565b60056020528060005260406000206000915054906101000a900460ff1681565b600360009054906101000a900460ff16151515611895576040517f08c379a000000000000000000000000000000000000000000000000000000000815260040180806020018281038252609c815260200180613bc4609c913960a00191505060405180910390fd5b600560003373ffffffffffffffffffffffffffffffffffffffff1673ffffffffffffffffffffffffffffffffffffffff16815260200190815260200160002060009054906101000a900460ff1680151561197d576040517f08c379a000000000000000000000000000000000000000000000000000000000815260040180806020018281038252602f8152602001807f546869732066756e6374696f6e206973206f6e6c7920617661696c61626c652081526020017f746f2073746f7265206f776e657273000000000000000000000000000000000081525060400191505060405180910390fd5b33836006600082815260200190815260200160002060010160009054906101000a900473ffffffffffffffffffffffffffffffffffffffff1673ffffffffffffffffffffffffffffffffffffffff168273ffffffffffffffffffffffffffffffffffffffff16141515611a7e576040517f08c379a000000000000000000000000000000000000000000000000000000000815260040180806020018281038252603c8152602001807f596f752063616e6e6f7420696e7465726163742077697468207468697320737481526020017f6f726520617320796f7520617265206e6f7420746865206f776e65720000000081525060400191505060405180910390fd5b85600254808211151515611b20576040517f08c379a000000000000000000000000000000000000000000000000000000000815260040180806020018281038252602c8152602001807f596f75206861766520656e746572656420612076616c7565207468617420646f81526020017f6573206e6f74206578697374000000000000000000000000000000000000000081525060400191505060405180910390fd5b856006600089815260200190815260200160002060040160008a8152602001908152602001600020600201819055507f7bb0939fa8871fdad6ab517d35a446bdf92216cfde5e600d537525e40bab2d5188888860405180848152602001838152602001828152602001935050505060405180910390a15050505050505050565b611ba8612b42565b1515611c42576040517f08c379a000000000000000000000000000000000000000000000000000000000815260040180806020018281038252603c8152602001807f546869732066756e6374696f6e206973206f6e6c7920617661696c61626c652081526020017f746f20746865206f776e6572206f662074686520636f6e74726163740000000081525060400191505060405180910390fd5b600360009054906101000a900460ff161515611c5d57600080fd5b6000809054906101000a900473ffffffffffffffffffffffffffffffffffffffff1673ffffffffffffffffffffffffffffffffffffffff166108fc3073ffffffffffffffffffffffffffffffffffffffff16319081150290604051600060405180830381858888f19350505050158015611cdb573d6000803e3d6000fd5b50565b606060008060606006600087815260200190815260200160002060040160008681526020019081526020016000206000018054600181600116156101000203166002900480601f016020809104026020016040519081016040528092919081815260200182805460018160011615610100020316600290048015611da35780601f10611d7857610100808354040283529160200191611da3565b820191906000526020600020905b815481529060010190602001808311611d8657829003601f168201915b50505050509050600060066000888152602001908152602001600020600401600087815260200190815260200160002060010154905060006006600089815260200190815260200160002060040160008881526020019081526020016000206002015490508282829550955095505050509250925092565b6000600460008373ffffffffffffffffffffffffffffffffffffffff1673ffffffffffffffffffffffffffffffffffffffff16815260200190815260200160002060009054906101000a900460ff169050809050919050565b600360009054906101000a900460ff16151515611edc576040517f08c379a000000000000000000000000000000000000000000000000000000000815260040180806020018281038252609c815260200180613bc4609c913960a00191505060405180910390fd5b600560003373ffffffffffffffffffffffffffffffffffffffff1673ffffffffffffffffffffffffffffffffffffffff16815260200190815260200160002060009054906101000a900460ff16801515611fc4576040517f08c379a000000000000000000000000000000000000000000000000000000000815260040180806020018281038252602f8152602001807f546869732066756e6374696f6e206973206f6e6c7920617661696c61626c652081526020017f746f2073746f7265206f776e657273000000000000000000000000000000000081525060400191505060405180910390fd5b33836006600082815260200190815260200160002060010160009054906101000a900473ffffffffffffffffffffffffffffffffffffffff1673ffffffffffffffffffffffffffffffffffffffff168273ffffffffffffffffffffffffffffffffffffffff161415156120c5576040517f08c379a000000000000000000000000000000000000000000000000000000000815260040180806020018281038252603c8152602001807f596f752063616e6e6f7420696e7465726163742077697468207468697320737481526020017f6f726520617320796f7520617265206e6f7420746865206f776e65720000000081525060400191505060405180910390fd5b83600254808211151515612167576040517f08c379a000000000000000000000000000000000000000000000000000000000815260040180806020018281038252602c8152602001807f596f75206861766520656e746572656420612076616c7565207468617420646f81526020017f6573206e6f74206578697374000000000000000000000000000000000000000081525060400191505060405180910390fd5b6006600088815260200190815260200160002060040160008781526020019081526020016000206000808201600061219f9190613b56565b6001820160009055600282016000905550507face30996fcccb030823d885d6f416386f030076e7e650acb6b7c2ae96bf03f208787604051808381526020018281526020019250505060405180910390a150505050505050565b600360009054906101000a900460ff16151515612261576040517f08c379a000000000000000000000000000000000000000000000000000000000815260040180806020018281038252609c815260200180613bc4609c913960a00191505060405180910390fd5b612269612b42565b1515612303576040517f08c379a000000000000000000000000000000000000000000000000000000000815260040180806020018281038252603c8152602001807f546869732066756e6374696f6e206973206f6e6c7920617661696c61626c652081526020017f746f20746865206f776e6572206f662074686520636f6e74726163740000000081525060400191505060405180910390fd5b6001600460008373ffffffffffffffffffffffffffffffffffffffff1673ffffffffffffffffffffffffffffffffffffffff16815260200190815260200160002060006101000a81548160ff0219169083151502179055507fefcbb6030dbeda3448a657cc462d3fde6f3b78e2710bd7b2d9e2ab358a12e17081604051808273ffffffffffffffffffffffffffffffffffffffff1673ffffffffffffffffffffffffffffffffffffffff16815260200191505060405180910390a150565b6123c9612b42565b1515612463576040517f08c379a000000000000000000000000000000000000000000000000000000000815260040180806020018281038252603c8152602001807f546869732066756e6374696f6e206973206f6e6c7920617661696c61626c652081526020017f746f20746865206f776e6572206f662074686520636f6e74726163740000000081525060400191505060405180910390fd5b600073ffffffffffffffffffffffffffffffffffffffff166000809054906101000a900473ffffffffffffffffffffffffffffffffffffffff1673ffffffffffffffffffffffffffffffffffffffff167f8be0079c531659141344cd1fd0a4f28419497f9722a3daafe3b4186f6b6457e060405160405180910390a360008060006101000a81548173ffffffffffffffffffffffffffffffffffffffff021916908373ffffffffffffffffffffffffffffffffffffffff160217905550565b600360009054906101000a900460ff1681565b61253d612b42565b15156125d7576040517f08c379a000000000000000000000000000000000000000000000000000000000815260040180806020018281038252603c8152602001807f546869732066756e6374696f6e206973206f6e6c7920617661696c61626c652081526020017f746f20746865206f776e6572206f662074686520636f6e74726163740000000081525060400191505060405180910390fd5b6000600360006101000a81548160ff021916908315150217905550565b60046020528060005260406000206000915054906101000a900460ff1681565b600360009054906101000a900460ff1615151561267c576040517f08c379a000000000000000000000000000000000000000000000000000000000815260040180806020018281038252609c815260200180613bc4609c913960a00191505060405180910390fd5b600560003373ffffffffffffffffffffffffffffffffffffffff1673ffffffffffffffffffffffffffffffffffffffff16815260200190815260200160002060009054906101000a900460ff16801515612764576040517f08c379a000000000000000000000000000000000000000000000000000000000815260040180806020018281038252602f8152602001807f546869732066756e6374696f6e206973206f6e6c7920617661696c61626c652081526020017f746f2073746f7265206f776e657273000000000000000000000000000000000081525060400191505060405180910390fd5b33826006600082815260200190815260200160002060010160009054906101000a900473ffffffffffffffffffffffffffffffffffffffff1673ffffffffffffffffffffffffffffffffffffffff168273ffffffffffffffffffffffffffffffffffffffff16141515612865576040517f08c379a000000000000000000000000000000000000000000000000000000000815260040180806020018281038252603c8152602001807f596f752063616e6e6f7420696e7465726163742077697468207468697320737481526020017f6f726520617320796f7520617265206e6f7420746865206f776e65720000000081525060400191505060405180910390fd5b8385600060066000848152602001908152602001600020600201541015151561291c576040517f08c379a000000000000000000000000000000000000000000000000000000000815260040180806020018281038252602d8152602001807f5468652073746f72652062616c616e636520697320302e204e6f2066756e647381526020017f20746f2077697468647261772e0000000000000000000000000000000000000081525060400191505060405180910390fd5b600660008381526020019081526020016000206002015481111515156129f6576040517f08c379a00000000000000000000000000000000000000000000000000000000081526004018080602001828103825260498152602001807f596f752061726520747279696e6720746f207769746864726177206d6f72652081526020017f7468616e2074686520617661696c61626c652062616c616e636520696e20746881526020017f65206163636f756e74000000000000000000000000000000000000000000000081525060600191505060405180910390fd5b60006006600088815260200190815260200160002060010160009054906101000a900473ffffffffffffffffffffffffffffffffffffffff169050612a5160066000898152602001908152602001600020600201548961389c565b60066000898152602001908152602001600020600201819055508073ffffffffffffffffffffffffffffffffffffffff166108fc899081150290604051600060405180830381858888f19350505050158015612ab1573d6000803e3d6000fd5b507fec55db48190f8d91ed5ad4118ee6288cfd6506c9393dbdab71fa309691a16a6c8789600660008b81526020019081526020016000206002015460405180848152602001838152602001828152602001935050505060405180910390a15050505050505050565b60008060009054906101000a900473ffffffffffffffffffffffffffffffffffffffff16905090565b60008060009054906101000a900473ffffffffffffffffffffffffffffffffffffffff1673ffffffffffffffffffffffffffffffffffffffff163373ffffffffffffffffffffffffffffffffffffffff1614905090565b612ba1612b42565b1515612c3b576040517f08c379a000000000000000000000000000000000000000000000000000000000815260040180806020018281038252603c8152602001807f546869732066756e6374696f6e206973206f6e6c7920617661696c61626c652081526020017f746f20746865206f776e6572206f662074686520636f6e74726163740000000081525060400191505060405180910390fd5b6001600360006101000a81548160ff021916908315150217905550565b600360009054906101000a900460ff16151515612cc0576040517f08c379a000000000000000000000000000000000000000000000000000000000815260040180806020018281038252609c815260200180613bc4609c913960a00191505060405180910390fd5b600460003373ffffffffffffffffffffffffffffffffffffffff1673ffffffffffffffffffffffffffffffffffffffff16815260200190815260200160002060009054906101000a900460ff16801515612da8576040517f08c379a00000000000000000000000000000000000000000000000000000000081526004018080602001828103825260318152602001807f546869732066756e6374696f6e206973206f6e6c7920617661696c61626c652081526020017f746f2061646d696e6973747261746f727300000000000000000000000000000081525060400191505060405180910390fd5b6001600560008473ffffffffffffffffffffffffffffffffffffffff1673ffffffffffffffffffffffffffffffffffffffff16815260200190815260200160002060006101000a81548160ff0219169083151502179055507fc48be1259827f286158037425eac2071e5a2ce505bf01d53384e77fa0ef60da282604051808273ffffffffffffffffffffffffffffffffffffffff1673ffffffffffffffffffffffffffffffffffffffff16815260200191505060405180910390a15050565b60015481565b600060066000838152602001908152602001600020600301549050919050565b60606000806006600086815260200190815260200160002060040160008581526020019081526020016000206000018054600181600116156101000203166002900480601f016020809104026020016040519081016040528092919081815260200182805460018160011615610100020316600290048015612f505780601f10612f2557610100808354040283529160200191612f50565b820191906000526020600020905b815481529060010190602001808311612f3357829003601f168201915b505050505092506006600086815260200190815260200160002060040160008581526020019081526020016000206001015491506006600086815260200190815260200160002060040160008581526020019081526020016000206002015490508282829250925092509250925092565b600360009054906101000a900460ff16151515613029576040517f08c379a000000000000000000000000000000000000000000000000000000000815260040180806020018281038252609c815260200180613bc4609c913960a00191505060405180910390fd5b600560003373ffffffffffffffffffffffffffffffffffffffff1673ffffffffffffffffffffffffffffffffffffffff16815260200190815260200160002060009054906101000a900460ff16801515613111576040517f08c379a000000000000000000000000000000000000000000000000000000000815260040180806020018281038252602f8152602001807f546869732066756e6374696f6e206973206f6e6c7920617661696c61626c652081526020017f746f2073746f7265206f776e657273000000000000000000000000000000000081525060400191505060405180910390fd5b33826006600082815260200190815260200160002060010160009054906101000a900473ffffffffffffffffffffffffffffffffffffffff1673ffffffffffffffffffffffffffffffffffffffff168273ffffffffffffffffffffffffffffffffffffffff16141515613212576040517f08c379a000000000000000000000000000000000000000000000000000000000815260040180806020018281038252603c8152602001807f596f752063616e6e6f7420696e7465726163742077697468207468697320737481526020017f6f726520617320796f7520617265206e6f7420746865206f776e65720000000081525060400191505060405180910390fd5b61321f60025460016137c6565b6002819055508660066000868152602001908152602001600020600401600060025481526020019081526020016000206000019080519060200190613265929190613ad6565b50856006600086815260200190815260200160002060040160006002548152602001908152602001600020600101819055508460066000868152602001908152602001600020600401600060025481526020019081526020016000206002018190555060025460066000868152602001908152602001600020600301819055507f8526f2be0525916490c710d1117ba1e2b14068a050370500edc332329e0f0e9b600254858989896040518086815260200185815260200180602001848152602001838152602001828103825285818151815260200191508051906020019080838360005b8381101561336557808201518184015260208101905061334a565b50505050905090810190601f1680156133925780820380516001836020036101000a031916815260200191505b50965050505050505060405180910390a150505050505050565b600360009054906101000a900460ff16151515613414576040517f08c379a000000000000000000000000000000000000000000000000000000000815260040180806020018281038252609c815260200180613bc4609c913960a00191505060405180910390fd5b600460003373ffffffffffffffffffffffffffffffffffffffff1673ffffffffffffffffffffffffffffffffffffffff16815260200190815260200160002060009054906101000a900460ff168015156134fc576040517f08c379a00000000000000000000000000000000000000000000000000000000081526004018080602001828103825260318152602001807f546869732066756e6374696f6e206973206f6e6c7920617661696c61626c652081526020017f746f2061646d696e6973747261746f727300000000000000000000000000000081525060400191505060405180910390fd5b600560008373ffffffffffffffffffffffffffffffffffffffff1673ffffffffffffffffffffffffffffffffffffffff16815260200190815260200160002060006101000a81549060ff02191690557fd89cae1cc248e953c8ad4c040cf8353ec442f065045d82884af21e15a979afc582604051808273ffffffffffffffffffffffffffffffffffffffff1673ffffffffffffffffffffffffffffffffffffffff16815260200191505060405180910390a15050565b600060066000848152602001908152602001600020600401600083815260200190815260200160002060010154905080905092915050565b6135f2612b42565b151561368c576040517f08c379a000000000000000000000000000000000000000000000000000000000815260040180806020018281038252603c8152602001807f546869732066756e6374696f6e206973206f6e6c7920617661696c61626c652081526020017f746f20746865206f776e6572206f662074686520636f6e74726163740000000081525060400191505060405180910390fd5b61369581613973565b50565b600060066000838152602001908152602001600020600201549050809050919050565b600060066000838152602001908152602001600020600201549050809050919050565b6006602052806000526040600020600091509050806000018054600181600116156101000203166002900480601f01602080910402602001604051908101604052809291908181526020018280546001816001161561010002031660029004801561378a5780601f1061375f5761010080835404028352916020019161378a565b820191906000526020600020905b81548152906001019060200180831161376d57829003601f168201915b5050505050908060010160009054906101000a900473ffffffffffffffffffffffffffffffffffffffff16908060020154908060030154905084565b6000808284019050838110151515613892576040517f08c379a00000000000000000000000000000000000000000000000000000000081526004018080602001828103825260538152602001807f617661696c61626c652073746f726549442773202f20736b752773206f76657281526020017f666c6f776e2e20436f6e73696465722072657573696e6720766f6964206f722081526020017f616c7068616e756d657269632076616c7565730000000000000000000000000081525060600191505060405180910390fd5b8091505092915050565b6000828211151515613962576040517f08c379a000000000000000000000000000000000000000000000000000000000815260040180806020018281038252604f8152602001807f4572726f722e20596f752061726520747279696e6720746f207769746864726181526020017f77206d6f72652066756e6473207468616e2061726520617661696c61626c652081526020017f696e20746865206163636f756e742e000000000000000000000000000000000081525060600191505060405180910390fd5b600082840390508091505092915050565b600073ffffffffffffffffffffffffffffffffffffffff168173ffffffffffffffffffffffffffffffffffffffff1614151515613a18576040517f08c379a00000000000000000000000000000000000000000000000000000000081526004018080602001828103825260178152602001807f6e6577206f776e65722063616e6e6f742062652030783000000000000000000081525060200191505060405180910390fd5b8073ffffffffffffffffffffffffffffffffffffffff166000809054906101000a900473ffffffffffffffffffffffffffffffffffffffff1673ffffffffffffffffffffffffffffffffffffffff167f8be0079c531659141344cd1fd0a4f28419497f9722a3daafe3b4186f6b6457e060405160405180910390a3806000806101000a81548173ffffffffffffffffffffffffffffffffffffffff021916908373ffffffffffffffffffffffffffffffffffffffff16021790555050565b828054600181600116156101000203166002900490600052602060002090601f016020900481019282601f10613b1757805160ff1916838001178555613b45565b82800160010185558215613b45579182015b82811115613b44578251825591602001919060010190613b29565b5b509050613b529190613b9e565b5090565b50805460018160011615610100020316600290046000825580601f10613b7c5750613b9b565b601f016020900490600052602060002090810190613b9a9190613b9e565b5b50565b613bc091905b80821115613bbc576000816000905550600101613ba4565b5090565b9056fe546f2070726f7465637420796f75722066756e64732c20746865206d61726b6574706c61636520686173206265656e20706c61636564206f6e20656d657267656e63792073687574646f776e2062792074686520636f6e7472616374206f776e65722064756520746f206120706f74656e7469616c207468726561742e20506c65617365207761697420666f722066757274686572206e6f74696365a165627a7a72305820aad9e76de8afa141938fe9a7eb5b5f6261df88c0e40b3ef02b7425bea1c859290029",
  "source": "/*\nQuestions:\nImplement Eth/USD price\n*/\n\npragma solidity 0.5.0;\n\nimport \"./Ownable.sol\";\nimport \"./SafeMath.sol\";\n\ncontract MarketPlace is Ownable {\n\n    uint public storeCount = 0;\n    uint public skuCount = 0;\n    bool public stopped = false;\n\n    //Struct to hold details about each item for sale in a particular store\n    struct ItemForSale {\n        string name;\n        uint quantity;\n        uint price;\n    }\n\n    struct StoreFronts {\n        string storeName; //Struct containing store name to display on UI\n        address payable storeOwner; //Address to cross check that the store owner is calling the function\n        uint pendingWithdrawal; //Total sales value of store\n        uint latestSkuNoInStore;\n        mapping(uint => ItemForSale) sku; //Mapping of all stock being sold by a particular store\n    }\n\n    //used a mapping as opposed to an array to avoid use of a loop to find matches\n    mapping(address => bool) public adminsDB; //mapping of admins by address\n    mapping(address => bool) public storeOwnersDB; //mapping of store owners by address\n    mapping(uint => StoreFronts) public storeFront;\n\n\n\n    //Events\n    event adminAdded(address _admin);\n    event adminDeleted(address _admin);\n    event storeOwnerAdded(address _storeOwner);\n    event storeOwnerDeleted(address _storeOwner);\n    event storeFrontCreated(uint _storeID, string _storeName, address _storeOwner);\n    event itemToSellAdded(uint _sku, uint _storeID, string _nameOfItem, uint _quantity, uint _price);\n    event itemPriceUpdated(uint _sku, uint _storeID, uint _newPrice);\n    event itemForSaleDeleted(uint _storeID, uint _skuCode);\n    event salesWithdrawn(uint _storeID, uint _payment, uint _storeSalesBalance);\n    event refund(uint _refund);\n    event itemBought(string _name, uint _skuCode, uint _quantity, uint _storeID, uint _price);\n\n\n\n    //Modifiers\n\n    modifier checkAdmin(bool _exists) {\n        require(_exists, \"This function is only available to administrators\");\n        _;\n    }\n\n    modifier checkStoreOwner(bool _exists) {\n        require(_exists, \"This function is only available to store owners\");\n        _;\n    }\n\n    modifier checkOwnerOfStore(address _storeOwner, uint _storeID) {\n        require (_storeOwner == storeFront[_storeID].storeOwner, \"You cannot interact with this store as you are not the owner\");\n        _;\n    }\n\n    modifier checkQuantity(uint _quantity, uint _storeID, uint _skuCode) {\n        require(_quantity <= storeFront[_storeID].sku[_skuCode].quantity, \"You are trying to purchase more items than are available\");\n        _;\n    }\n\n    modifier paidEnough(uint _quantity, uint _price) {\n        require(msg.value >= _price*_quantity, \"You have not tendered the incorrect amount.\");\n        _;\n    }\n\n    modifier checkValue(uint _quantity, uint _price) {\n        _;\n        uint amountToRefund = msg.value - _price*_quantity;\n        msg.sender.transfer(amountToRefund);\n        emit refund(amountToRefund);\n    }\n\n    modifier checkStoreBalance(uint _storeID, uint _withdrawAmount) {\n        require(storeFront[_storeID].pendingWithdrawal >= 0, \"The store balance is 0. No funds to withdraw.\");\n        require(_withdrawAmount <= storeFront[_storeID].pendingWithdrawal, \"You are trying to withdraw more than the available balance in the account\");\n        _;\n    }\n\n    modifier checkInt(uint _valueToCheck, uint _checkAgainst) {\n        require(_valueToCheck <= _checkAgainst, \"You have entered a value that does not exist\");\n        _;\n    }\n\n    modifier stopInEmergency {\n        require(!stopped, \"To protect your funds, the marketplace has been placed on emergency shutdown by the contract owner due to a potential threat. Please wait for further notice\");\n        _;\n    }\n\n    modifier onlyInEmergency {\n        require(stopped);\n        _;\n    }\n\n\n\n    //Contract owner functions\n\n    function addAdmin(address _admin) \n        public\n        stopInEmergency()\n        onlyOwner() \n    {\n            adminsDB[_admin] = true;\n            emit adminAdded(_admin);\n    }\n\n    function deleteAdmin(address _admin) \n        public\n        stopInEmergency()\n        onlyOwner() \n    {\n            delete adminsDB[_admin];\n            emit adminDeleted(_admin);\n    }\n\n    function activateEmergencyStop()\n        public\n        onlyOwner()\n    {\n            stopped = true;\n    }\n\n    function deActivateEmergencyStop()\n        public\n        onlyOwner()\n    {\n            stopped = false;\n    }\n\n    function withdrawAllFunds()\n        public\n        onlyOwner()\n        onlyInEmergency() \n    {\n            _owner.transfer(address(this).balance);\n    }\n\n\n    //Admin functions\n\n    function addStoreOwner(address _newStoreOwner) \n        public\n        stopInEmergency()\n        checkAdmin(adminsDB[msg.sender])\n    {\n            storeOwnersDB[_newStoreOwner] = true;\n            emit storeOwnerAdded(_newStoreOwner);\n    }\n\n    function deleteStoreOwner(address _deleteStoreOwner) \n        public\n        stopInEmergency()\n        checkAdmin(adminsDB[msg.sender]) \n    {\n            delete storeOwnersDB[_deleteStoreOwner];\n            emit storeOwnerDeleted(_deleteStoreOwner);\n    }\n\n\n\n    //Store owner functions\n\n    function createStoreFront(string memory _storeName) \n        public\n        stopInEmergency()\n        checkStoreOwner(storeOwnersDB[msg.sender]) \n    {\n            storeCount = SafeMath.add(storeCount, 1);\n            storeFront[storeCount].storeName = _storeName;\n            storeFront[storeCount].storeOwner = msg.sender;\n            emit storeFrontCreated(storeCount, _storeName, msg.sender);\n    }\n\n    function addItem(string memory _nameOfItem, uint _quantity, uint _price, uint _storeID) \n        public\n        stopInEmergency()\n        checkStoreOwner(storeOwnersDB[msg.sender])\n        checkOwnerOfStore(msg.sender, _storeID)\n    {\n            skuCount = SafeMath.add(skuCount, 1);\n            storeFront[_storeID].sku[skuCount].name = _nameOfItem;\n            storeFront[_storeID].sku[skuCount].quantity = _quantity;\n            storeFront[_storeID].sku[skuCount].price = _price;\n            storeFront[_storeID].latestSkuNoInStore = skuCount;\n            \n            emit itemToSellAdded(skuCount, _storeID, _nameOfItem, _quantity, _price);\n    }\n\n    function changePrice(uint _skuCode, uint _storeID, uint _newPrice) \n        public\n        stopInEmergency()\n        checkStoreOwner(storeOwnersDB[msg.sender])\n        checkOwnerOfStore(msg.sender, _storeID)\n        checkInt(_skuCode, skuCount)\n    {\n            storeFront[_storeID].sku[_skuCode].price = _newPrice;\n            emit itemPriceUpdated(_skuCode, _storeID, _newPrice);\n    }\n\n    function deleteItem(uint _storeID, uint _skuCode)\n        public\n        stopInEmergency()\n        checkStoreOwner(storeOwnersDB[msg.sender])\n        checkOwnerOfStore(msg.sender, _storeID)\n        checkInt(_skuCode, skuCount)\n    {\n            delete storeFront[_storeID].sku[_skuCode];\n            emit itemForSaleDeleted(_storeID, _skuCode);\n    }\n\n    function withdrawSales(uint _withdrawAmount, uint _storeID) \n        public\n        stopInEmergency()\n        checkStoreOwner(storeOwnersDB[msg.sender])\n        checkOwnerOfStore(msg.sender, _storeID)\n        checkStoreBalance(_storeID, _withdrawAmount)\n    {\n            address payable storeOwnerAddress = storeFront[_storeID].storeOwner;\n            storeFront[_storeID].pendingWithdrawal = SafeMath.sub(storeFront[_storeID].pendingWithdrawal, _withdrawAmount); //Preventing reentrancy\n            storeOwnerAddress.transfer(_withdrawAmount);\n            emit salesWithdrawn(_storeID, _withdrawAmount, storeFront[_storeID].pendingWithdrawal);\n    }\n\n\n    \n    //Shopper functions\n    function buyItem(uint _quantity, uint _skuCode, uint _storeID) \n        public\n        payable\n        stopInEmergency()\n        checkQuantity(_quantity, _storeID, _skuCode)\n        paidEnough(_quantity, storeFront[_storeID].sku[_skuCode].price)\n        checkValue(_quantity, storeFront[_storeID].sku[_skuCode].price)\n\n    {\n            storeFront[_storeID].sku[_skuCode].quantity -= _quantity;\n            storeFront[_storeID].pendingWithdrawal += (storeFront[_storeID].sku[_skuCode].price*_quantity);\n            emit itemBought(storeFront[_storeID].sku[_skuCode].name, _skuCode, _quantity, _storeID, storeFront[_storeID].sku[_skuCode].price);\n    }\n\n\n\n    //Getters\n    function getLatestSKU(uint _storeID) \n        public\n        view\n        returns (uint)\n    {\n        return storeFront[_storeID].latestSkuNoInStore;\n    }\n\n    function getItemInShop(uint _storeID, uint _sku)\n        public\n        view\n        returns (string memory, uint, uint)\n    {\n            string memory itemName = storeFront[_storeID].sku[_sku].name;\n            uint itemQuantity = storeFront[_storeID].sku[_sku].quantity;\n            uint itemPrice = storeFront[_storeID].sku[_sku].price;\n            return (itemName, itemQuantity, itemPrice);\n    }\n\n\n\n    //Testing\n    function fetchAdmin(address _isAdmin) \n        public\n        view\n        returns (bool newAdminExists)\n    {\n            newAdminExists = adminsDB[_isAdmin];\n            return newAdminExists;\n    }\n\n    function fetchStoreOwner(address _isStoreOwner)\n        public\n        view\n        returns (bool newStoreOwner)\n    {\n            newStoreOwner = storeOwnersDB[_isStoreOwner];\n            return newStoreOwner;\n    }\n\n    function fetchStoreID(uint _storeID)\n        public\n        view\n        returns (address newStoreOwnerAddress, string memory storeNameAdded)\n    {\n            newStoreOwnerAddress = storeFront[_storeID].storeOwner;\n            storeNameAdded = storeFront[_storeID].storeName;\n            return (newStoreOwnerAddress, storeNameAdded);\n    }\n\n    function fetchItem(uint _storeID, uint _skuCode)\n        public\n        view\n        returns (string memory isName, uint isQuantity, uint isPrice)\n    {\n            isName = storeFront[_storeID].sku[_skuCode].name;\n            isQuantity = storeFront[_storeID].sku[_skuCode].quantity;\n            isPrice = storeFront[_storeID].sku[_skuCode].price;\n            return (isName, isQuantity, isPrice);\n    }\n\n    function isItemBought(uint _currentStoreID, uint _currentSKU)\n        public\n        view\n        returns (uint newQuantity)\n    {\n            return newQuantity = storeFront[_currentStoreID].sku[_currentSKU].quantity;\n    }\n\n    function fetchStoreBalance (uint _storeID)\n        public\n        view\n        returns (uint storeBalance)\n    {\n            storeBalance = storeFront[_storeID].pendingWithdrawal;\n            return storeBalance;\n    }\n\n    function fetchSalesWithdrawn(uint _storeID)\n        public\n        view\n        returns (uint storeBalance)\n    {\n            storeBalance = storeFront[_storeID].pendingWithdrawal;\n            return storeBalance;\n    }\n}",
  "sourcePath": "/home/satoshisingh/final-project-SuperSuperSingh/contracts/MarketPlace.sol",
  "compiler": {
    "name": "solc",
    "version": "0.5.0+commit.1d4f565a.Emscripten.clang"
  },
  "schemaVersion": "3.0.1",
  "updatedAt": "2019-01-23T14:45:15.171Z",
  "devdoc": {
    "methods": {
      "isOwner()": {
        "return": "true if `msg.sender` is the owner of the contract."
      },
      "owner()": {
        "return": "the address of the owner."
      },
      "renounceOwnership()": {
        "details": "Allows the current owner to relinquish control of the contract."
      },
      "transferOwnership(address)": {
        "details": "Allows the current owner to transfer control of the contract to a newOwner.",
        "params": {
          "newOwner": "The address to transfer ownership to."
        }
      }
    }
  },
  "userdoc": {
    "methods": {
      "renounceOwnership()": {
        "notice": "Renouncing to ownership will leave the contract without an owner. It will not be possible to call the functions with the `onlyOwner` modifier anymore."
      }
    }
  }
}