{
  "contractName": "MarketPlace",
  "abi": [
    {
      "constant": true,
      "inputs": [],
      "name": "skuCount",
      "outputs": [
        {
          "name": "",
          "type": "uint256"
        }
      ],
      "payable": false,
      "stateMutability": "view",
      "type": "function",
      "signature": "0x22702473"
    },
    {
      "constant": true,
      "inputs": [
        {
          "name": "",
          "type": "address"
        }
      ],
      "name": "storeOwnersDB",
      "outputs": [
        {
          "name": "",
          "type": "bool"
        }
      ],
      "payable": false,
      "stateMutability": "view",
      "type": "function",
      "signature": "0x3b78f63e"
    },
    {
      "constant": true,
      "inputs": [
        {
          "name": "",
          "type": "address"
        }
      ],
      "name": "adminsDB",
      "outputs": [
        {
          "name": "",
          "type": "bool"
        }
      ],
      "payable": false,
      "stateMutability": "view",
      "type": "function",
      "signature": "0x8b631991"
    },
    {
      "constant": true,
      "inputs": [],
      "name": "owner",
      "outputs": [
        {
          "name": "",
          "type": "address"
        }
      ],
      "payable": false,
      "stateMutability": "view",
      "type": "function",
      "signature": "0x8da5cb5b"
    },
    {
      "constant": true,
      "inputs": [],
      "name": "storeCount",
      "outputs": [
        {
          "name": "",
          "type": "uint256"
        }
      ],
      "payable": false,
      "stateMutability": "view",
      "type": "function",
      "signature": "0xa1b141d4"
    },
    {
      "constant": true,
      "inputs": [
        {
          "name": "",
          "type": "uint256"
        }
      ],
      "name": "storeFront",
      "outputs": [
        {
          "name": "storeName",
          "type": "string"
        },
        {
          "name": "storeOwner",
          "type": "address"
        },
        {
          "name": "pendingWithdrawal",
          "type": "uint256"
        }
      ],
      "payable": false,
      "stateMutability": "view",
      "type": "function",
      "signature": "0xfd5e943a"
    },
    {
      "inputs": [],
      "payable": false,
      "stateMutability": "nonpayable",
      "type": "constructor",
      "signature": "constructor"
    },
    {
      "anonymous": false,
      "inputs": [
        {
          "indexed": false,
          "name": "_admin",
          "type": "address"
        }
      ],
      "name": "adminAdded",
      "type": "event",
      "signature": "0xefcbb6030dbeda3448a657cc462d3fde6f3b78e2710bd7b2d9e2ab358a12e170"
    },
    {
      "anonymous": false,
      "inputs": [
        {
          "indexed": false,
          "name": "_admin",
          "type": "address"
        }
      ],
      "name": "adminDeleted",
      "type": "event",
      "signature": "0x86f2a87e57b786e440244b5c31f13c4f7bda9b857bdfd1c8218ecdfb029f4c0f"
    },
    {
      "anonymous": false,
      "inputs": [
        {
          "indexed": false,
          "name": "_storeOwner",
          "type": "address"
        }
      ],
      "name": "shopOwnerAdded",
      "type": "event",
      "signature": "0x0faaba8b4967dcfba36add56c3bf12ca738fda4e948ac10853128d1494544f2c"
    },
    {
      "anonymous": false,
      "inputs": [
        {
          "indexed": false,
          "name": "_storeOwner",
          "type": "address"
        }
      ],
      "name": "shopOwnerDeleted",
      "type": "event",
      "signature": "0xb51ed1e3336d95f952da5ddd0057b5610dd9cc0ebe72cafd3eb7627fdeae9ca3"
    },
    {
      "anonymous": false,
      "inputs": [
        {
          "indexed": false,
          "name": "_storeID",
          "type": "uint256"
        },
        {
          "indexed": false,
          "name": "_storeName",
          "type": "string"
        },
        {
          "indexed": false,
          "name": "_storeOwner",
          "type": "address"
        }
      ],
      "name": "shopFrontCreated",
      "type": "event",
      "signature": "0x530769d8b3eb6576e104ee6addea37bdcc5cdda979e505eab75d3c70a840e893"
    },
    {
      "anonymous": false,
      "inputs": [
        {
          "indexed": false,
          "name": "_sku",
          "type": "uint256"
        },
        {
          "indexed": false,
          "name": "_storeID",
          "type": "uint256"
        },
        {
          "indexed": false,
          "name": "_nameOfItem",
          "type": "string"
        },
        {
          "indexed": false,
          "name": "_quantity",
          "type": "uint256"
        },
        {
          "indexed": false,
          "name": "_price",
          "type": "uint256"
        }
      ],
      "name": "itemToSellAdded",
      "type": "event",
      "signature": "0x8526f2be0525916490c710d1117ba1e2b14068a050370500edc332329e0f0e9b"
    },
    {
      "anonymous": false,
      "inputs": [
        {
          "indexed": false,
          "name": "_sku",
          "type": "uint256"
        },
        {
          "indexed": false,
          "name": "_storeID",
          "type": "uint256"
        },
        {
          "indexed": false,
          "name": "_newPrice",
          "type": "uint256"
        }
      ],
      "name": "itemPriceUpdated",
      "type": "event",
      "signature": "0x7bb0939fa8871fdad6ab517d35a446bdf92216cfde5e600d537525e40bab2d51"
    },
    {
      "anonymous": false,
      "inputs": [
        {
          "indexed": false,
          "name": "_storeID",
          "type": "uint256"
        },
        {
          "indexed": false,
          "name": "_skuCode",
          "type": "uint256"
        }
      ],
      "name": "itemForSaleDeleted",
      "type": "event",
      "signature": "0xace30996fcccb030823d885d6f416386f030076e7e650acb6b7c2ae96bf03f20"
    },
    {
      "anonymous": false,
      "inputs": [
        {
          "indexed": false,
          "name": "_storeID",
          "type": "uint256"
        },
        {
          "indexed": false,
          "name": "_payment",
          "type": "uint256"
        }
      ],
      "name": "salesWithdrawn",
      "type": "event",
      "signature": "0x7b508385f67c305c6635a3f5f978218584186f7cd7bc2eb52db4176a522f39cf"
    },
    {
      "anonymous": false,
      "inputs": [
        {
          "indexed": false,
          "name": "_refund",
          "type": "uint256"
        }
      ],
      "name": "refund",
      "type": "event",
      "signature": "0x278ecde10404a9f1d9088d6512ddd16581968e0a41c5416fce08986e7207bbe4"
    },
    {
      "anonymous": false,
      "inputs": [
        {
          "indexed": false,
          "name": "_skuCode",
          "type": "uint256"
        },
        {
          "indexed": false,
          "name": "_quantity",
          "type": "uint256"
        },
        {
          "indexed": false,
          "name": "_storeID",
          "type": "uint256"
        },
        {
          "indexed": false,
          "name": "_price",
          "type": "uint256"
        }
      ],
      "name": "itemBought",
      "type": "event",
      "signature": "0x26125e9803f2d164e7f46967a1e18a50df120ea3d069c6a589ba56380dda4787"
    },
    {
      "constant": true,
      "inputs": [],
      "name": "numberOfStores",
      "outputs": [
        {
          "name": "",
          "type": "uint256"
        }
      ],
      "payable": false,
      "stateMutability": "view",
      "type": "function",
      "signature": "0xa6a8c321"
    },
    {
      "constant": false,
      "inputs": [
        {
          "name": "_admin",
          "type": "address"
        }
      ],
      "name": "addAdmin",
      "outputs": [],
      "payable": false,
      "stateMutability": "nonpayable",
      "type": "function",
      "signature": "0x70480275"
    },
    {
      "constant": false,
      "inputs": [
        {
          "name": "_admin",
          "type": "address"
        }
      ],
      "name": "deleteAdmin",
      "outputs": [],
      "payable": false,
      "stateMutability": "nonpayable",
      "type": "function",
      "signature": "0x27e1f7df"
    },
    {
      "constant": false,
      "inputs": [
        {
          "name": "_newStoreOwner",
          "type": "address"
        }
      ],
      "name": "addStoreOwner",
      "outputs": [],
      "payable": false,
      "stateMutability": "nonpayable",
      "type": "function",
      "signature": "0x9adeb5f1"
    },
    {
      "constant": false,
      "inputs": [
        {
          "name": "_deleteStoreOwner",
          "type": "address"
        }
      ],
      "name": "deleteStoreOwner",
      "outputs": [],
      "payable": false,
      "stateMutability": "nonpayable",
      "type": "function",
      "signature": "0xdcba65af"
    },
    {
      "constant": false,
      "inputs": [
        {
          "name": "_storeName",
          "type": "string"
        }
      ],
      "name": "createStoreFront",
      "outputs": [],
      "payable": false,
      "stateMutability": "nonpayable",
      "type": "function",
      "signature": "0x2fc826bd"
    },
    {
      "constant": false,
      "inputs": [
        {
          "name": "_nameOfItem",
          "type": "string"
        },
        {
          "name": "_quantity",
          "type": "uint256"
        },
        {
          "name": "_price",
          "type": "uint256"
        },
        {
          "name": "_storeID",
          "type": "uint256"
        }
      ],
      "name": "addItem",
      "outputs": [],
      "payable": false,
      "stateMutability": "nonpayable",
      "type": "function",
      "signature": "0xdc0dd677"
    },
    {
      "constant": false,
      "inputs": [
        {
          "name": "_skuCode",
          "type": "uint256"
        },
        {
          "name": "_storeID",
          "type": "uint256"
        },
        {
          "name": "_newPrice",
          "type": "uint256"
        }
      ],
      "name": "changePrice",
      "outputs": [],
      "payable": false,
      "stateMutability": "nonpayable",
      "type": "function",
      "signature": "0x40e2b4b8"
    },
    {
      "constant": false,
      "inputs": [
        {
          "name": "_storeID",
          "type": "uint256"
        },
        {
          "name": "_skuCode",
          "type": "uint256"
        }
      ],
      "name": "deleteItem",
      "outputs": [],
      "payable": false,
      "stateMutability": "nonpayable",
      "type": "function",
      "signature": "0x618a7e1d"
    },
    {
      "constant": false,
      "inputs": [
        {
          "name": "_storeID",
          "type": "uint256"
        }
      ],
      "name": "withdrawSales",
      "outputs": [],
      "payable": false,
      "stateMutability": "nonpayable",
      "type": "function",
      "signature": "0x93744494"
    },
    {
      "constant": false,
      "inputs": [
        {
          "name": "_quantity",
          "type": "uint256"
        },
        {
          "name": "_skuCode",
          "type": "uint256"
        },
        {
          "name": "_storeID",
          "type": "uint256"
        }
      ],
      "name": "buyItem",
      "outputs": [],
      "payable": true,
      "stateMutability": "payable",
      "type": "function",
      "signature": "0x1f6a8318"
    }
  ],
  "bytecode": "0x60806040526000600155600060025534801561001a57600080fd5b50336000806101000a81548173ffffffffffffffffffffffffffffffffffffffff021916908373ffffffffffffffffffffffffffffffffffffffff16021790555061206f8061006a6000396000f3fe6080604052600436106100f1576000357c0100000000000000000000000000000000000000000000000000000000900463ffffffff1680631f6a8318146100f6578063227024731461013857806327e1f7df146101635780632fc826bd146101b45780633b78f63e1461027c57806340e2b4b8146102e5578063618a7e1d1461033457806370480275146103795780638b631991146103ca5780638da5cb5b14610433578063937444941461048a5780639adeb5f1146104c5578063a1b141d414610516578063a6a8c32114610541578063dc0dd6771461056c578063dcba65af14610652578063fd5e943a146106a3575b600080fd5b6101366004803603606081101561010c57600080fd5b81019080803590602001909291908035906020019092919080359060200190929190505050610791565b005b34801561014457600080fd5b5061014d6109e3565b6040518082815260200191505060405180910390f35b34801561016f57600080fd5b506101b26004803603602081101561018657600080fd5b81019080803573ffffffffffffffffffffffffffffffffffffffff1690602001909291905050506109e9565b005b3480156101c057600080fd5b5061027a600480360360208110156101d757600080fd5b81019080803590602001906401000000008111156101f457600080fd5b82018360208201111561020657600080fd5b8035906020019184600183028401116401000000008311171561022857600080fd5b91908080601f016020809104026020016040519081016040528093929190818152602001838380828437600081840152601f19601f820116905080830192505050505050509192919290505050610b88565b005b34801561028857600080fd5b506102cb6004803603602081101561029f57600080fd5b81019080803573ffffffffffffffffffffffffffffffffffffffff169060200190929190505050610de4565b604051808215151515815260200191505060405180910390f35b3480156102f157600080fd5b506103326004803603606081101561030857600080fd5b81019080803590602001909291908035906020019092919080359060200190929190505050610e04565b005b34801561034057600080fd5b506103776004803603604081101561035757600080fd5b81019080803590602001909291908035906020019092919050505061106b565b005b34801561038557600080fd5b506103c86004803603602081101561039c57600080fd5b81019080803573ffffffffffffffffffffffffffffffffffffffff1690602001909291905050506112e4565b005b3480156103d657600080fd5b50610419600480360360208110156103ed57600080fd5b81019080803573ffffffffffffffffffffffffffffffffffffffff16906020019092919050505061148c565b604051808215151515815260200191505060405180910390f35b34801561043f57600080fd5b506104486114ac565b604051808273ffffffffffffffffffffffffffffffffffffffff1673ffffffffffffffffffffffffffffffffffffffff16815260200191505060405180910390f35b34801561049657600080fd5b506104c3600480360360208110156104ad57600080fd5b81019080803590602001909291905050506114d1565b005b3480156104d157600080fd5b50610514600480360360208110156104e857600080fd5b81019080803573ffffffffffffffffffffffffffffffffffffffff1690602001909291905050506117ba565b005b34801561052257600080fd5b5061052b611961565b6040518082815260200191505060405180910390f35b34801561054d57600080fd5b50610556611967565b6040518082815260200191505060405180910390f35b34801561057857600080fd5b506106506004803603608081101561058f57600080fd5b81019080803590602001906401000000008111156105ac57600080fd5b8201836020820111156105be57600080fd5b803590602001918460018302840111640100000000831117156105e057600080fd5b91908080601f016020809104026020016040519081016040528093929190818152602001838380828437600081840152601f19601f820116905080830192505050505050509192919290803590602001909291908035906020019092919080359060200190929190505050611971565b005b34801561065e57600080fd5b506106a16004803603602081101561067557600080fd5b81019080803573ffffffffffffffffffffffffffffffffffffffff169060200190929190505050611cd6565b005b3480156106af57600080fd5b506106dc600480360360208110156106c657600080fd5b8101908080359060200190929190505050611e74565b60405180806020018473ffffffffffffffffffffffffffffffffffffffff1673ffffffffffffffffffffffffffffffffffffffff168152602001838152602001828103825285818151815260200191508051906020019080838360005b83811015610754578082015181840152602081019050610739565b50505050905090810190601f1680156107815780820380516001836020036101000a031916815260200191505b5094505050505060405180910390f35b8260056000838152602001908152602001600020600301600084815260200190815260200160002060020154818102341015151561085d576040517f08c379a00000000000000000000000000000000000000000000000000000000081526004018080602001828103825260298152602001807f596f752068617665206e6f742074656e64657265642074686520636f7272656381526020017f7420616d6f756e742e000000000000000000000000000000000000000000000081525060400191505060405180910390fd5b846005600085815260200190815260200160002060030160008681526020019081526020016000206002015486600560008781526020019081526020016000206003016000888152602001908152602001600020600201540260056000878152602001908152602001600020600201600082825401925050819055507f26125e9803f2d164e7f46967a1e18a50df120ea3d069c6a589ba56380dda4787868887600560008a815260200190815260200160002060030160008b8152602001908152602001600020600201546040518085815260200184815260200183815260200182815260200194505050505060405180910390a16000828202340390503373ffffffffffffffffffffffffffffffffffffffff166108fc829081150290604051600060405180830381858888f193505050501580156109a1573d6000803e3d6000fd5b507f278ecde10404a9f1d9088d6512ddd16581968e0a41c5416fce08986e7207bbe4816040518082815260200191505060405180910390a15050505050505050565b60025481565b6000809054906101000a900473ffffffffffffffffffffffffffffffffffffffff1673ffffffffffffffffffffffffffffffffffffffff163373ffffffffffffffffffffffffffffffffffffffff16141515610ad3576040517f08c379a00000000000000000000000000000000000000000000000000000000081526004018080602001828103825260358152602001807f546869732066756e6374696f6e206973206f6e6c7920617661696c61626c652081526020017f746f2074686520636f6e7472616374206f776e6572000000000000000000000081525060400191505060405180910390fd5b600360008273ffffffffffffffffffffffffffffffffffffffff1673ffffffffffffffffffffffffffffffffffffffff16815260200190815260200160002060006101000a81549060ff02191690557fefcbb6030dbeda3448a657cc462d3fde6f3b78e2710bd7b2d9e2ab358a12e17081604051808273ffffffffffffffffffffffffffffffffffffffff1673ffffffffffffffffffffffffffffffffffffffff16815260200191505060405180910390a150565b600460003373ffffffffffffffffffffffffffffffffffffffff1673ffffffffffffffffffffffffffffffffffffffff16815260200190815260200160002060009054906101000a900460ff16801515610c70576040517f08c379a000000000000000000000000000000000000000000000000000000000815260040180806020018281038252602f8152602001807f546869732066756e6374696f6e206973206f6e6c7920617661696c61626c652081526020017f746f2073746f7265206f776e657273000000000000000000000000000000000081525060400191505060405180910390fd5b600160008154809291906001019190505550816005600060015481526020019081526020016000206000019080519060200190610cae929190611f56565b503360056000600154815260200190815260200160002060010160006101000a81548173ffffffffffffffffffffffffffffffffffffffff021916908373ffffffffffffffffffffffffffffffffffffffff1602179055507f530769d8b3eb6576e104ee6addea37bdcc5cdda979e505eab75d3c70a840e893600154833360405180848152602001806020018373ffffffffffffffffffffffffffffffffffffffff1673ffffffffffffffffffffffffffffffffffffffff168152602001828103825284818151815260200191508051906020019080838360005b83811015610da4578082015181840152602081019050610d89565b50505050905090810190601f168015610dd15780820380516001836020036101000a031916815260200191505b5094505050505060405180910390a15050565b60046020528060005260406000206000915054906101000a900460ff1681565b600460003373ffffffffffffffffffffffffffffffffffffffff1673ffffffffffffffffffffffffffffffffffffffff16815260200190815260200160002060009054906101000a900460ff16801515610eec576040517f08c379a000000000000000000000000000000000000000000000000000000000815260040180806020018281038252602f8152602001807f546869732066756e6374696f6e206973206f6e6c7920617661696c61626c652081526020017f746f2073746f7265206f776e657273000000000000000000000000000000000081525060400191505060405180910390fd5b33836005600082815260200190815260200160002060010160009054906101000a900473ffffffffffffffffffffffffffffffffffffffff1673ffffffffffffffffffffffffffffffffffffffff168273ffffffffffffffffffffffffffffffffffffffff16141515610fed576040517f08c379a000000000000000000000000000000000000000000000000000000000815260040180806020018281038252603c8152602001807f596f752063616e6e6f7420696e7465726163742077697468207468697320737481526020017f6f726520617320796f7520617265206e6f7420746865206f776e65720000000081525060400191505060405180910390fd5b83600560008781526020019081526020016000206003016000888152602001908152602001600020600201819055507f7bb0939fa8871fdad6ab517d35a446bdf92216cfde5e600d537525e40bab2d5186868660405180848152602001838152602001828152602001935050505060405180910390a1505050505050565b600460003373ffffffffffffffffffffffffffffffffffffffff1673ffffffffffffffffffffffffffffffffffffffff16815260200190815260200160002060009054906101000a900460ff16801515611153576040517f08c379a000000000000000000000000000000000000000000000000000000000815260040180806020018281038252602f8152602001807f546869732066756e6374696f6e206973206f6e6c7920617661696c61626c652081526020017f746f2073746f7265206f776e657273000000000000000000000000000000000081525060400191505060405180910390fd5b33836005600082815260200190815260200160002060010160009054906101000a900473ffffffffffffffffffffffffffffffffffffffff1673ffffffffffffffffffffffffffffffffffffffff168273ffffffffffffffffffffffffffffffffffffffff16141515611254576040517f08c379a000000000000000000000000000000000000000000000000000000000815260040180806020018281038252603c8152602001807f596f752063616e6e6f7420696e7465726163742077697468207468697320737481526020017f6f726520617320796f7520617265206e6f7420746865206f776e65720000000081525060400191505060405180910390fd5b6005600086815260200190815260200160002060030160008581526020019081526020016000206000808201600061128c9190611fd6565b6001820160009055600282016000905550507face30996fcccb030823d885d6f416386f030076e7e650acb6b7c2ae96bf03f208585604051808381526020018281526020019250505060405180910390a15050505050565b6000809054906101000a900473ffffffffffffffffffffffffffffffffffffffff1673ffffffffffffffffffffffffffffffffffffffff163373ffffffffffffffffffffffffffffffffffffffff161415156113ce576040517f08c379a00000000000000000000000000000000000000000000000000000000081526004018080602001828103825260358152602001807f546869732066756e6374696f6e206973206f6e6c7920617661696c61626c652081526020017f746f2074686520636f6e7472616374206f776e6572000000000000000000000081525060400191505060405180910390fd5b6001600360008373ffffffffffffffffffffffffffffffffffffffff1673ffffffffffffffffffffffffffffffffffffffff16815260200190815260200160002060006101000a81548160ff0219169083151502179055507fefcbb6030dbeda3448a657cc462d3fde6f3b78e2710bd7b2d9e2ab358a12e17081604051808273ffffffffffffffffffffffffffffffffffffffff1673ffffffffffffffffffffffffffffffffffffffff16815260200191505060405180910390a150565b60036020528060005260406000206000915054906101000a900460ff1681565b6000809054906101000a900473ffffffffffffffffffffffffffffffffffffffff1681565b600460003373ffffffffffffffffffffffffffffffffffffffff1673ffffffffffffffffffffffffffffffffffffffff16815260200190815260200160002060009054906101000a900460ff168015156115b9576040517f08c379a000000000000000000000000000000000000000000000000000000000815260040180806020018281038252602f8152602001807f546869732066756e6374696f6e206973206f6e6c7920617661696c61626c652081526020017f746f2073746f7265206f776e657273000000000000000000000000000000000081525060400191505060405180910390fd5b33826005600082815260200190815260200160002060010160009054906101000a900473ffffffffffffffffffffffffffffffffffffffff1673ffffffffffffffffffffffffffffffffffffffff168273ffffffffffffffffffffffffffffffffffffffff161415156116ba576040517f08c379a000000000000000000000000000000000000000000000000000000000815260040180806020018281038252603c8152602001807f596f752063616e6e6f7420696e7465726163742077697468207468697320737481526020017f6f726520617320796f7520617265206e6f7420746865206f776e65720000000081525060400191505060405180910390fd5b60006005600086815260200190815260200160002060010160009054906101000a900473ffffffffffffffffffffffffffffffffffffffff169050600060056000878152602001908152602001600020600201549050600060056000888152602001908152602001600020600201819055508173ffffffffffffffffffffffffffffffffffffffff166108fc829081150290604051600060405180830381858888f19350505050158015611772573d6000803e3d6000fd5b507f7b508385f67c305c6635a3f5f978218584186f7cd7bc2eb52db4176a522f39cf8682604051808381526020018281526020019250505060405180910390a1505050505050565b600360003373ffffffffffffffffffffffffffffffffffffffff1673ffffffffffffffffffffffffffffffffffffffff16815260200190815260200160002060009054906101000a900460ff168015156118a2576040517f08c379a00000000000000000000000000000000000000000000000000000000081526004018080602001828103825260318152602001807f546869732066756e6374696f6e206973206f6e6c7920617661696c61626c652081526020017f746f2061646d696e6973747261746f727300000000000000000000000000000081525060400191505060405180910390fd5b6001600460008473ffffffffffffffffffffffffffffffffffffffff1673ffffffffffffffffffffffffffffffffffffffff16815260200190815260200160002060006101000a81548160ff0219169083151502179055507f0faaba8b4967dcfba36add56c3bf12ca738fda4e948ac10853128d1494544f2c82604051808273ffffffffffffffffffffffffffffffffffffffff1673ffffffffffffffffffffffffffffffffffffffff16815260200191505060405180910390a15050565b60015481565b6000600154905090565b600460003373ffffffffffffffffffffffffffffffffffffffff1673ffffffffffffffffffffffffffffffffffffffff16815260200190815260200160002060009054906101000a900460ff16801515611a59576040517f08c379a000000000000000000000000000000000000000000000000000000000815260040180806020018281038252602f8152602001807f546869732066756e6374696f6e206973206f6e6c7920617661696c61626c652081526020017f746f2073746f7265206f776e657273000000000000000000000000000000000081525060400191505060405180910390fd5b33826005600082815260200190815260200160002060010160009054906101000a900473ffffffffffffffffffffffffffffffffffffffff1673ffffffffffffffffffffffffffffffffffffffff168273ffffffffffffffffffffffffffffffffffffffff16141515611b5a576040517f08c379a000000000000000000000000000000000000000000000000000000000815260040180806020018281038252603c8152602001807f596f752063616e6e6f7420696e7465726163742077697468207468697320737481526020017f6f726520617320796f7520617265206e6f7420746865206f776e65720000000081525060400191505060405180910390fd5b6002600081548092919060010191905055508660056000868152602001908152602001600020600301600060025481526020019081526020016000206000019080519060200190611bac929190611f56565b5085600560008681526020019081526020016000206003016000600254815260200190815260200160002060010181905550846005600086815260200190815260200160002060030160006002548152602001908152602001600020600201819055507f8526f2be0525916490c710d1117ba1e2b14068a050370500edc332329e0f0e9b600254858989896040518086815260200185815260200180602001848152602001838152602001828103825285818151815260200191508051906020019080838360005b83811015611c8f578082015181840152602081019050611c74565b50505050905090810190601f168015611cbc5780820380516001836020036101000a031916815260200191505b50965050505050505060405180910390a150505050505050565b600360003373ffffffffffffffffffffffffffffffffffffffff1673ffffffffffffffffffffffffffffffffffffffff16815260200190815260200160002060009054906101000a900460ff16801515611dbe576040517f08c379a00000000000000000000000000000000000000000000000000000000081526004018080602001828103825260318152602001807f546869732066756e6374696f6e206973206f6e6c7920617661696c61626c652081526020017f746f2061646d696e6973747261746f727300000000000000000000000000000081525060400191505060405180910390fd5b600460008373ffffffffffffffffffffffffffffffffffffffff1673ffffffffffffffffffffffffffffffffffffffff16815260200190815260200160002060006101000a81549060ff02191690557f0faaba8b4967dcfba36add56c3bf12ca738fda4e948ac10853128d1494544f2c82604051808273ffffffffffffffffffffffffffffffffffffffff1673ffffffffffffffffffffffffffffffffffffffff16815260200191505060405180910390a15050565b6005602052806000526040600020600091509050806000018054600181600116156101000203166002900480601f016020809104026020016040519081016040528092919081815260200182805460018160011615610100020316600290048015611f205780601f10611ef557610100808354040283529160200191611f20565b820191906000526020600020905b815481529060010190602001808311611f0357829003601f168201915b5050505050908060010160009054906101000a900473ffffffffffffffffffffffffffffffffffffffff16908060020154905083565b828054600181600116156101000203166002900490600052602060002090601f016020900481019282601f10611f9757805160ff1916838001178555611fc5565b82800160010185558215611fc5579182015b82811115611fc4578251825591602001919060010190611fa9565b5b509050611fd2919061201e565b5090565b50805460018160011615610100020316600290046000825580601f10611ffc575061201b565b601f01602090049060005260206000209081019061201a919061201e565b5b50565b61204091905b8082111561203c576000816000905550600101612024565b5090565b9056fea165627a7a72305820296749f6166d2369d66f53f06c31c9ae5a21775e01ec92a5aeeab91cca0a44c30029",
  "source": "/*\nQuestions:\nDoes it cost more to store arrays as they grow in length?\nIf so, is it worth clearing an empty spot in an array after deleting an element?\nImplement Eth/USD price\n*/\n\npragma solidity 0.5.0;\n\ncontract MarketPlace {\n\n    address public owner;\n    uint public storeCount = 0;\n    uint public skuCount = 0;\n\n    //Struct to hold details about each item for sale in a particular store\n    struct ItemForSale {\n        string name;\n        uint quantity;\n        uint price;\n    }\n    \n    struct StoreFronts {\n        string storeName; //Struct containing store name to display on UI\n        address payable storeOwner; //Address to cross check that the store owner is calling the function\n        uint pendingWithdrawal; //Total sales value of store\n        mapping(uint => ItemForSale) sku; //Mapping of all stock being sold by a particular store\n    }\n\n    //used a mapping as opposed to an array to avoid use of a loop to find matches\n    mapping(address => bool) public adminsDB; //mapping of admins by address\n    mapping(address => bool) public storeOwnersDB; //mapping of store owners by address\n    mapping(uint => StoreFronts) public storeFront;\n\n\n\n    //Events\n    event adminAdded(address _admin);\n    event adminDeleted(address _admin);\n    event shopOwnerAdded(address _storeOwner);\n    event shopOwnerDeleted(address _storeOwner);\n    event shopFrontCreated(uint _storeID, string _storeName, address _storeOwner);\n    event itemToSellAdded(uint _sku, uint _storeID, string _nameOfItem, uint _quantity, uint _price);\n    event itemPriceUpdated(uint _sku, uint _storeID, uint _newPrice);\n    event itemForSaleDeleted(uint _storeID, uint _skuCode);\n    event salesWithdrawn(uint _storeID, uint _payment);\n    event refund(uint _refund);\n    event itemBought(uint _skuCode, uint _quantity, uint _storeID, uint _price);\n\n\n\n    //Constructor\n\n    constructor () public {\n        owner = msg.sender;\n    }\n\n\n\n    //Modifiers\n\n    modifier checkContractOwner() {\n        require(msg.sender == owner, \"This function is only available to the contract owner\");\n        _;\n    }\n\n    modifier checkAdmin(bool _exists) {\n        require(_exists, \"This function is only available to administrators\");\n        _;\n    }\n\n    modifier checkStoreOwner(bool _exists) {\n        require(_exists, \"This function is only available to store owners\");\n        _;\n    }\n\n    modifier checkOwnerOfStore(address _owner, uint _storeID) {\n        require (_owner == storeFront[_storeID].storeOwner, \"You cannot interact with this store as you are not the owner\");\n        _;\n    }\n\n    modifier paidEnough(uint _quantity, uint _price) {\n        require(msg.value >= _price*_quantity, \"You have not tendered the correct amount.\");\n        _;\n    }\n\n    modifier checkValue(uint _quantity, uint _price) {\n        _;\n        uint amountToRefund = msg.value - _price*_quantity;\n        msg.sender.transfer(amountToRefund);\n        emit refund(amountToRefund);\n    }\n\n\n\n    //Debugging\n\n    function numberOfStores() public view returns (uint) {\n        return storeCount;\n    }\n\n\n\n    //Contract owner functions\n\n    function addAdmin(address _admin) \n        public \n        checkContractOwner() \n    {\n        adminsDB[_admin] = true;\n        emit adminAdded(_admin);\n    }\n\n    function deleteAdmin(address _admin) \n        public \n        checkContractOwner() \n    {\n            delete adminsDB[_admin];\n            //removing the empty index costs gas. There is no need to remove it as one \n            //counter is used to assign new sku's accross the entire marketplace.\n            //This also ensures that a SKU cannot be reused, leading to disputes\n            emit adminAdded(_admin);\n    }\n\n\n\n    //Admin functions\n\n    function addStoreOwner(address _newStoreOwner) \n        public \n        checkAdmin(adminsDB[msg.sender]) \n    {\n            storeOwnersDB[_newStoreOwner] = true;\n            emit shopOwnerAdded(_newStoreOwner);\n    }\n\n    function deleteStoreOwner(address _deleteStoreOwner) \n        public \n        checkAdmin(adminsDB[msg.sender]) \n    {\n            delete storeOwnersDB[_deleteStoreOwner];\n            //removing the empty index costs gas. There is no need to remove it as one \n            //counter is used to assign new sku's accross the entire marketplace.\n            //This also ensures that a SKU cannot be reused, leading to disputes\n            emit shopOwnerAdded(_deleteStoreOwner);\n    }\n\n\n\n    //Store owner functions\n\n    function createStoreFront(string memory _storeName) \n        public \n        checkStoreOwner(storeOwnersDB[msg.sender]) \n    {\n            storeCount ++;\n            storeFront[storeCount].storeName = _storeName;\n            storeFront[storeCount].storeOwner = msg.sender;\n            emit shopFrontCreated(storeCount, _storeName, msg.sender);\n    }\n\n    function addItem(string memory _nameOfItem, uint _quantity, uint _price, uint _storeID) \n        public \n        checkStoreOwner(storeOwnersDB[msg.sender])\n        checkOwnerOfStore(msg.sender, _storeID)\n    {\n            skuCount ++;\n            storeFront[_storeID].sku[skuCount].name = _nameOfItem;\n            storeFront[_storeID].sku[skuCount].quantity = _quantity;\n            storeFront[_storeID].sku[skuCount].price = _price;\n            emit itemToSellAdded(skuCount, _storeID, _nameOfItem, _quantity, _price);\n    }\n\n    function changePrice(uint _skuCode, uint _storeID, uint _newPrice) \n        public \n        checkStoreOwner(storeOwnersDB[msg.sender])\n        checkOwnerOfStore(msg.sender, _storeID)\n    {\n            storeFront[_storeID].sku[_skuCode].price = _newPrice;\n            emit itemPriceUpdated(_skuCode, _storeID, _newPrice);\n    }\n\n    function deleteItem(uint _storeID, uint _skuCode)\n        public \n        checkStoreOwner(storeOwnersDB[msg.sender])\n        checkOwnerOfStore(msg.sender, _storeID)\n    {\n            delete storeFront[_storeID].sku[_skuCode];\n            //removing the empty index costs gas. There is no need to remove it as one \n            //counter is used to assign new sku's accross the entire marketplace.\n            //This also ensures that a SKU cannot be reused, leading to disputes\n            emit itemForSaleDeleted(_storeID, _skuCode);\n    }\n\n    function withdrawSales(uint _storeID) \n        public \n        checkStoreOwner(storeOwnersDB[msg.sender])\n        checkOwnerOfStore(msg.sender, _storeID)\n    {\n            address payable ownerAddress = storeFront[_storeID].storeOwner;\n            uint payment = storeFront[_storeID].pendingWithdrawal;\n            storeFront[_storeID].pendingWithdrawal = 0; //Preventing reentrancy\n            ownerAddress.transfer(payment);\n            emit salesWithdrawn(_storeID, payment);\n    }\n\n\n    \n    //Shopper functions\n    function buyItem(uint _quantity, uint _skuCode, uint _storeID) \n        public\n        payable\n        paidEnough(_quantity, storeFront[_storeID].sku[_skuCode].price)\n        checkValue(_quantity, storeFront[_storeID].sku[_skuCode].price) \n    {\n            storeFront[_storeID].pendingWithdrawal += (storeFront[_storeID].sku[_skuCode].price*_quantity);\n            emit itemBought(_skuCode, _quantity, _storeID, storeFront[_storeID].sku[_skuCode].price);\n    }\n}",
  "sourcePath": "/home/satoshisingh/Online-Marketplace/contracts/MarketPlace.sol",
  "compiler": {
    "name": "solc",
    "version": "0.5.0+commit.1d4f565a.Emscripten.clang"
  },
  "schemaVersion": "3.0.1",
  "updatedAt": "2019-01-16T10:47:09.774Z",
  "devdoc": {
    "methods": {}
  },
  "userdoc": {
    "methods": {}
  }
}