{
  "contractName": "MarketPlace",
  "abi": [
    {
      "constant": true,
      "inputs": [],
      "name": "skuCount",
      "outputs": [
        {
          "name": "",
          "type": "uint256"
        }
      ],
      "payable": false,
      "stateMutability": "view",
      "type": "function",
      "signature": "0x22702473"
    },
    {
      "constant": true,
      "inputs": [
        {
          "name": "",
          "type": "address"
        }
      ],
      "name": "storeOwnersDB",
      "outputs": [
        {
          "name": "exists",
          "type": "bool"
        }
      ],
      "payable": false,
      "stateMutability": "view",
      "type": "function",
      "signature": "0x3b78f63e"
    },
    {
      "constant": true,
      "inputs": [
        {
          "name": "",
          "type": "address"
        }
      ],
      "name": "adminsDB",
      "outputs": [
        {
          "name": "",
          "type": "bool"
        }
      ],
      "payable": false,
      "stateMutability": "view",
      "type": "function",
      "signature": "0x8b631991"
    },
    {
      "constant": true,
      "inputs": [],
      "name": "owner",
      "outputs": [
        {
          "name": "",
          "type": "address"
        }
      ],
      "payable": false,
      "stateMutability": "view",
      "type": "function",
      "signature": "0x8da5cb5b"
    },
    {
      "constant": true,
      "inputs": [
        {
          "name": "",
          "type": "uint256"
        }
      ],
      "name": "listOfStoreIDs",
      "outputs": [
        {
          "name": "",
          "type": "uint256"
        }
      ],
      "payable": false,
      "stateMutability": "view",
      "type": "function",
      "signature": "0x90e00927"
    },
    {
      "constant": true,
      "inputs": [],
      "name": "storeCount",
      "outputs": [
        {
          "name": "",
          "type": "uint256"
        }
      ],
      "payable": false,
      "stateMutability": "view",
      "type": "function",
      "signature": "0xa1b141d4"
    },
    {
      "constant": true,
      "inputs": [
        {
          "name": "",
          "type": "uint256"
        }
      ],
      "name": "storeFront",
      "outputs": [
        {
          "name": "storeName",
          "type": "string"
        },
        {
          "name": "storeOwner",
          "type": "address"
        },
        {
          "name": "pendingWithdrawal",
          "type": "uint256"
        },
        {
          "name": "latestSkuNoInStore",
          "type": "uint256"
        }
      ],
      "payable": false,
      "stateMutability": "view",
      "type": "function",
      "signature": "0xfd5e943a"
    },
    {
      "inputs": [],
      "payable": false,
      "stateMutability": "nonpayable",
      "type": "constructor",
      "signature": "constructor"
    },
    {
      "anonymous": false,
      "inputs": [
        {
          "indexed": false,
          "name": "_admin",
          "type": "address"
        }
      ],
      "name": "adminAdded",
      "type": "event",
      "signature": "0xefcbb6030dbeda3448a657cc462d3fde6f3b78e2710bd7b2d9e2ab358a12e170"
    },
    {
      "anonymous": false,
      "inputs": [
        {
          "indexed": false,
          "name": "_admin",
          "type": "address"
        }
      ],
      "name": "adminDeleted",
      "type": "event",
      "signature": "0x86f2a87e57b786e440244b5c31f13c4f7bda9b857bdfd1c8218ecdfb029f4c0f"
    },
    {
      "anonymous": false,
      "inputs": [
        {
          "indexed": false,
          "name": "_storeOwner",
          "type": "address"
        }
      ],
      "name": "storeOwnerAdded",
      "type": "event",
      "signature": "0xc48be1259827f286158037425eac2071e5a2ce505bf01d53384e77fa0ef60da2"
    },
    {
      "anonymous": false,
      "inputs": [
        {
          "indexed": false,
          "name": "_storeOwner",
          "type": "address"
        }
      ],
      "name": "storeOwnerDeleted",
      "type": "event",
      "signature": "0xd89cae1cc248e953c8ad4c040cf8353ec442f065045d82884af21e15a979afc5"
    },
    {
      "anonymous": false,
      "inputs": [
        {
          "indexed": false,
          "name": "_storeID",
          "type": "uint256"
        },
        {
          "indexed": false,
          "name": "_storeName",
          "type": "string"
        },
        {
          "indexed": false,
          "name": "_storeOwner",
          "type": "address"
        },
        {
          "indexed": false,
          "name": "_storesInStoreOwner",
          "type": "uint256[]"
        }
      ],
      "name": "storeFrontCreated",
      "type": "event",
      "signature": "0x91dad1160e0a1a5d306cf9fea3b2ae2e13cd30e7a941e91c28c35dc41710aed2"
    },
    {
      "anonymous": false,
      "inputs": [
        {
          "indexed": false,
          "name": "_sku",
          "type": "uint256"
        },
        {
          "indexed": false,
          "name": "_storeID",
          "type": "uint256"
        },
        {
          "indexed": false,
          "name": "_nameOfItem",
          "type": "string"
        },
        {
          "indexed": false,
          "name": "_quantity",
          "type": "uint256"
        },
        {
          "indexed": false,
          "name": "_price",
          "type": "uint256"
        },
        {
          "indexed": false,
          "name": "_skusInStore",
          "type": "uint256[]"
        }
      ],
      "name": "itemToSellAdded",
      "type": "event",
      "signature": "0xf7d91293721d0f8995b93ce4588704fe6cec39eddd45c258a22162ba552f62a3"
    },
    {
      "anonymous": false,
      "inputs": [
        {
          "indexed": false,
          "name": "_sku",
          "type": "uint256"
        },
        {
          "indexed": false,
          "name": "_storeID",
          "type": "uint256"
        },
        {
          "indexed": false,
          "name": "_newPrice",
          "type": "uint256"
        }
      ],
      "name": "itemPriceUpdated",
      "type": "event",
      "signature": "0x7bb0939fa8871fdad6ab517d35a446bdf92216cfde5e600d537525e40bab2d51"
    },
    {
      "anonymous": false,
      "inputs": [
        {
          "indexed": false,
          "name": "_storeID",
          "type": "uint256"
        },
        {
          "indexed": false,
          "name": "_skuCode",
          "type": "uint256"
        },
        {
          "indexed": false,
          "name": "_skusInStore",
          "type": "uint256[]"
        }
      ],
      "name": "itemForSaleDeleted",
      "type": "event",
      "signature": "0x07e3211e133eb160ac13057b9e7e7dce433ffee3770952424ef46c488c839ea2"
    },
    {
      "anonymous": false,
      "inputs": [
        {
          "indexed": false,
          "name": "_storeID",
          "type": "uint256"
        },
        {
          "indexed": false,
          "name": "_payment",
          "type": "uint256"
        },
        {
          "indexed": false,
          "name": "_storeSalesBalance",
          "type": "uint256"
        }
      ],
      "name": "salesWithdrawn",
      "type": "event",
      "signature": "0xec55db48190f8d91ed5ad4118ee6288cfd6506c9393dbdab71fa309691a16a6c"
    },
    {
      "anonymous": false,
      "inputs": [
        {
          "indexed": false,
          "name": "_refund",
          "type": "uint256"
        }
      ],
      "name": "refund",
      "type": "event",
      "signature": "0x278ecde10404a9f1d9088d6512ddd16581968e0a41c5416fce08986e7207bbe4"
    },
    {
      "anonymous": false,
      "inputs": [
        {
          "indexed": false,
          "name": "_skuCode",
          "type": "uint256"
        },
        {
          "indexed": false,
          "name": "_quantity",
          "type": "uint256"
        },
        {
          "indexed": false,
          "name": "_storeID",
          "type": "uint256"
        },
        {
          "indexed": false,
          "name": "_price",
          "type": "uint256"
        }
      ],
      "name": "itemBought",
      "type": "event",
      "signature": "0x26125e9803f2d164e7f46967a1e18a50df120ea3d069c6a589ba56380dda4787"
    },
    {
      "anonymous": false,
      "inputs": [
        {
          "indexed": false,
          "name": "_listOfStoreIDs",
          "type": "uint256[]"
        }
      ],
      "name": "debugging",
      "type": "event",
      "signature": "0x42a5b05cd9619d0564f27cb9f2994a1ce5bfa7d8656c8451cf85d98bc3d27326"
    },
    {
      "constant": false,
      "inputs": [
        {
          "name": "_admin",
          "type": "address"
        }
      ],
      "name": "addAdmin",
      "outputs": [],
      "payable": false,
      "stateMutability": "nonpayable",
      "type": "function",
      "signature": "0x70480275"
    },
    {
      "constant": false,
      "inputs": [
        {
          "name": "_admin",
          "type": "address"
        }
      ],
      "name": "deleteAdmin",
      "outputs": [],
      "payable": false,
      "stateMutability": "nonpayable",
      "type": "function",
      "signature": "0x27e1f7df"
    },
    {
      "constant": false,
      "inputs": [
        {
          "name": "_newStoreOwner",
          "type": "address"
        }
      ],
      "name": "addStoreOwner",
      "outputs": [],
      "payable": false,
      "stateMutability": "nonpayable",
      "type": "function",
      "signature": "0x9adeb5f1"
    },
    {
      "constant": false,
      "inputs": [
        {
          "name": "_deleteStoreOwner",
          "type": "address"
        }
      ],
      "name": "deleteStoreOwner",
      "outputs": [],
      "payable": false,
      "stateMutability": "nonpayable",
      "type": "function",
      "signature": "0xdcba65af"
    },
    {
      "constant": false,
      "inputs": [
        {
          "name": "_storeName",
          "type": "string"
        }
      ],
      "name": "createStoreFront",
      "outputs": [],
      "payable": false,
      "stateMutability": "nonpayable",
      "type": "function",
      "signature": "0x2fc826bd"
    },
    {
      "constant": false,
      "inputs": [
        {
          "name": "_nameOfItem",
          "type": "string"
        },
        {
          "name": "_quantity",
          "type": "uint256"
        },
        {
          "name": "_price",
          "type": "uint256"
        },
        {
          "name": "_storeID",
          "type": "uint256"
        }
      ],
      "name": "addItem",
      "outputs": [],
      "payable": false,
      "stateMutability": "nonpayable",
      "type": "function",
      "signature": "0xdc0dd677"
    },
    {
      "constant": false,
      "inputs": [
        {
          "name": "_skuCode",
          "type": "uint256"
        },
        {
          "name": "_storeID",
          "type": "uint256"
        },
        {
          "name": "_newPrice",
          "type": "uint256"
        }
      ],
      "name": "changePrice",
      "outputs": [],
      "payable": false,
      "stateMutability": "nonpayable",
      "type": "function",
      "signature": "0x40e2b4b8"
    },
    {
      "constant": false,
      "inputs": [
        {
          "name": "_storeID",
          "type": "uint256"
        },
        {
          "name": "_skuCode",
          "type": "uint256"
        }
      ],
      "name": "deleteItem",
      "outputs": [],
      "payable": false,
      "stateMutability": "nonpayable",
      "type": "function",
      "signature": "0x618a7e1d"
    },
    {
      "constant": false,
      "inputs": [
        {
          "name": "_storeID",
          "type": "uint256"
        }
      ],
      "name": "withdrawSales",
      "outputs": [],
      "payable": false,
      "stateMutability": "nonpayable",
      "type": "function",
      "signature": "0x93744494"
    },
    {
      "constant": false,
      "inputs": [
        {
          "name": "_quantity",
          "type": "uint256"
        },
        {
          "name": "_skuCode",
          "type": "uint256"
        },
        {
          "name": "_storeID",
          "type": "uint256"
        }
      ],
      "name": "buyItem",
      "outputs": [],
      "payable": true,
      "stateMutability": "payable",
      "type": "function",
      "signature": "0x1f6a8318"
    },
    {
      "constant": true,
      "inputs": [
        {
          "name": "_storeID",
          "type": "uint256"
        }
      ],
      "name": "getLatestSKU",
      "outputs": [
        {
          "name": "",
          "type": "uint256"
        }
      ],
      "payable": false,
      "stateMutability": "view",
      "type": "function",
      "signature": "0xa6aeb49a"
    },
    {
      "constant": true,
      "inputs": [
        {
          "name": "_storeID",
          "type": "uint256"
        },
        {
          "name": "_sku",
          "type": "uint256"
        }
      ],
      "name": "getItemInShop",
      "outputs": [
        {
          "name": "",
          "type": "string"
        },
        {
          "name": "",
          "type": "uint256"
        },
        {
          "name": "",
          "type": "uint256"
        }
      ],
      "payable": false,
      "stateMutability": "view",
      "type": "function",
      "signature": "0x5203320e"
    }
  ],
  "bytecode": "0x60806040526000600155600060025534801561001a57600080fd5b50336000806101000a81548173ffffffffffffffffffffffffffffffffffffffff021916908373ffffffffffffffffffffffffffffffffffffffff1602179055506129288061006a6000396000f3fe608060405260043610610107576000357c0100000000000000000000000000000000000000000000000000000000900463ffffffff1680631f6a83181461010c578063227024731461014e57806327e1f7df146101795780632fc826bd146101ca5780633b78f63e1461029257806340e2b4b8146102fb5780635203320e1461034a578063618a7e1d14610416578063704802751461045b5780638b631991146104ac5780638da5cb5b1461051557806390e009271461056c57806393744494146105bb5780639adeb5f1146105f6578063a1b141d414610647578063a6aeb49a14610672578063dc0dd677146106c1578063dcba65af146107a7578063fd5e943a146107f8575b600080fd5b61014c6004803603606081101561012257600080fd5b810190808035906020019092919080359060200190929190803590602001909291905050506108ed565b005b34801561015a57600080fd5b50610163610c45565b6040518082815260200191505060405180910390f35b34801561018557600080fd5b506101c86004803603602081101561019c57600080fd5b81019080803573ffffffffffffffffffffffffffffffffffffffff169060200190929190505050610c4b565b005b3480156101d657600080fd5b50610290600480360360208110156101ed57600080fd5b810190808035906020019064010000000081111561020a57600080fd5b82018360208201111561021c57600080fd5b8035906020019184600183028401116401000000008311171561023e57600080fd5b91908080601f016020809104026020016040519081016040528093929190818152602001838380828437600081840152601f19601f820116905080830192505050505050509192919290505050610dea565b005b34801561029e57600080fd5b506102e1600480360360208110156102b557600080fd5b81019080803573ffffffffffffffffffffffffffffffffffffffff1690602001909291905050506111e2565b604051808215151515815260200191505060405180910390f35b34801561030757600080fd5b506103486004803603606081101561031e57600080fd5b8101908080359060200190929190803590602001909291908035906020019092919050505061120d565b005b34801561035657600080fd5b5061038d6004803603604081101561036d57600080fd5b810190808035906020019092919080359060200190929190505050611477565b6040518080602001848152602001838152602001828103825285818151815260200191508051906020019080838360005b838110156103d95780820151818401526020810190506103be565b50505050905090810190601f1680156104065780820380516001836020036101000a031916815260200191505b5094505050505060405180910390f35b34801561042257600080fd5b506104596004803603604081101561043957600080fd5b8101908080359060200190929190803590602001909291905050506115b4565b005b34801561046757600080fd5b506104aa6004803603602081101561047e57600080fd5b81019080803573ffffffffffffffffffffffffffffffffffffffff1690602001909291905050506119d4565b005b3480156104b857600080fd5b506104fb600480360360208110156104cf57600080fd5b81019080803573ffffffffffffffffffffffffffffffffffffffff169060200190929190505050611b7c565b604051808215151515815260200191505060405180910390f35b34801561052157600080fd5b5061052a611b9c565b604051808273ffffffffffffffffffffffffffffffffffffffff1673ffffffffffffffffffffffffffffffffffffffff16815260200191505060405180910390f35b34801561057857600080fd5b506105a56004803603602081101561058f57600080fd5b8101908080359060200190929190505050611bc1565b6040518082815260200191505060405180910390f35b3480156105c757600080fd5b506105f4600480360360208110156105de57600080fd5b8101908080359060200190929190505050611be4565b005b34801561060257600080fd5b506106456004803603602081101561061957600080fd5b81019080803573ffffffffffffffffffffffffffffffffffffffff169060200190929190505050611eee565b005b34801561065357600080fd5b5061065c612098565b6040518082815260200191505060405180910390f35b34801561067e57600080fd5b506106ab6004803603602081101561069557600080fd5b810190808035906020019092919050505061209e565b6040518082815260200191505060405180910390f35b3480156106cd57600080fd5b506107a5600480360360808110156106e457600080fd5b810190808035906020019064010000000081111561070157600080fd5b82018360208201111561071357600080fd5b8035906020019184600183028401116401000000008311171561073557600080fd5b91908080601f016020809104026020016040519081016040528093929190818152602001838380828437600081840152601f19601f8201169050808301925050505050505091929192908035906020019092919080359060200190929190803590602001909291905050506120be565b005b3480156107b357600080fd5b506107f6600480360360208110156107ca57600080fd5b81019080803573ffffffffffffffffffffffffffffffffffffffff169060200190929190505050612525565b005b34801561080457600080fd5b506108316004803603602081101561081b57600080fd5b81019080803590602001909291905050506126da565b60405180806020018573ffffffffffffffffffffffffffffffffffffffff1673ffffffffffffffffffffffffffffffffffffffff168152602001848152602001838152602001828103825286818151815260200191508051906020019080838360005b838110156108af578082015181840152602081019050610894565b50505050905090810190601f1680156108dc5780820380516001836020036101000a031916815260200191505b509550505050505060405180910390f35b8281836006600083815260200190815260200160002060050160008281526020019081526020016000206001015483111515156109b8576040517f08c379a00000000000000000000000000000000000000000000000000000000081526004018080602001828103825260388152602001807f596f752061726520747279696e6720746f207075726368617365206d6f72652081526020017f6974656d73207468616e2061726520617661696c61626c65000000000000000081525060400191505060405180910390fd5b85600660008681526020019081526020016000206005016000878152602001908152602001600020600201548181023410151515610a84576040517f08c379a00000000000000000000000000000000000000000000000000000000081526004018080602001828103825260298152602001807f596f752068617665206e6f742074656e64657265642074686520636f7272656381526020017f7420616d6f756e742e000000000000000000000000000000000000000000000081525060400191505060405180910390fd5b876006600088815260200190815260200160002060050160008981526020019081526020016000206002015489600660008a815260200190815260200160002060050160008b81526020019081526020016000206001016000828254039250508190555089600660008a815260200190815260200160002060050160008b81526020019081526020016000206002015402600660008a8152602001908152602001600020600301600082825401925050819055507f26125e9803f2d164e7f46967a1e18a50df120ea3d069c6a589ba56380dda4787898b8a600660008d815260200190815260200160002060050160008e8152602001908152602001600020600201546040518085815260200184815260200183815260200182815260200194505050505060405180910390a16000828202340390503373ffffffffffffffffffffffffffffffffffffffff166108fc829081150290604051600060405180830381858888f19350505050158015610c00573d6000803e3d6000fd5b507f278ecde10404a9f1d9088d6512ddd16581968e0a41c5416fce08986e7207bbe4816040518082815260200191505060405180910390a15050505050505050505050565b60025481565b6000809054906101000a900473ffffffffffffffffffffffffffffffffffffffff1673ffffffffffffffffffffffffffffffffffffffff163373ffffffffffffffffffffffffffffffffffffffff16141515610d35576040517f08c379a00000000000000000000000000000000000000000000000000000000081526004018080602001828103825260358152602001807f546869732066756e6374696f6e206973206f6e6c7920617661696c61626c652081526020017f746f2074686520636f6e7472616374206f776e6572000000000000000000000081525060400191505060405180910390fd5b600460008273ffffffffffffffffffffffffffffffffffffffff1673ffffffffffffffffffffffffffffffffffffffff16815260200190815260200160002060006101000a81549060ff02191690557f86f2a87e57b786e440244b5c31f13c4f7bda9b857bdfd1c8218ecdfb029f4c0f81604051808273ffffffffffffffffffffffffffffffffffffffff1673ffffffffffffffffffffffffffffffffffffffff16815260200191505060405180910390a150565b600560003373ffffffffffffffffffffffffffffffffffffffff1673ffffffffffffffffffffffffffffffffffffffff16815260200190815260200160002060000160009054906101000a900460ff16801515610ed5576040517f08c379a000000000000000000000000000000000000000000000000000000000815260040180806020018281038252602f8152602001807f546869732066756e6374696f6e206973206f6e6c7920617661696c61626c652081526020017f746f2073746f7265206f776e657273000000000000000000000000000000000081525060400191505060405180910390fd5b600160008154809291906001019190505550816006600060015481526020019081526020016000206000019080519060200190610f139291906127c2565b503360066000600154815260200190815260200160002060020160006101000a81548173ffffffffffffffffffffffffffffffffffffffff021916908373ffffffffffffffffffffffffffffffffffffffff160217905550600560003373ffffffffffffffffffffffffffffffffffffffff1673ffffffffffffffffffffffffffffffffffffffff1681526020019081526020016000206001016001549080600181540180825580915050906001820390600052602060002001600090919290919091505550600360015490806001815401808255809150509060018203906000526020600020016000909192909190915055507f42a5b05cd9619d0564f27cb9f2994a1ce5bfa7d8656c8451cf85d98bc3d2732660036040518080602001828103825283818154815260200191508054801561106f57602002820191906000526020600020905b81548152602001906001019080831161105b575b50509250505060405180910390a17f91dad1160e0a1a5d306cf9fea3b2ae2e13cd30e7a941e91c28c35dc41710aed26001548333600560003373ffffffffffffffffffffffffffffffffffffffff1673ffffffffffffffffffffffffffffffffffffffff16815260200190815260200160002060010160405180858152602001806020018473ffffffffffffffffffffffffffffffffffffffff1673ffffffffffffffffffffffffffffffffffffffff16815260200180602001838103835286818151815260200191508051906020019080838360005b83811015611161578082015181840152602081019050611146565b50505050905090810190601f16801561118e5780820380516001836020036101000a031916815260200191505b5083810382528481815481526020019150805480156111cc57602002820191906000526020600020905b8154815260200190600101908083116111b8575b5050965050505050505060405180910390a15050565b60056020528060005260406000206000915090508060000160009054906101000a900460ff16905081565b600560003373ffffffffffffffffffffffffffffffffffffffff1673ffffffffffffffffffffffffffffffffffffffff16815260200190815260200160002060000160009054906101000a900460ff168015156112f8576040517f08c379a000000000000000000000000000000000000000000000000000000000815260040180806020018281038252602f8152602001807f546869732066756e6374696f6e206973206f6e6c7920617661696c61626c652081526020017f746f2073746f7265206f776e657273000000000000000000000000000000000081525060400191505060405180910390fd5b33836006600082815260200190815260200160002060020160009054906101000a900473ffffffffffffffffffffffffffffffffffffffff1673ffffffffffffffffffffffffffffffffffffffff168273ffffffffffffffffffffffffffffffffffffffff161415156113f9576040517f08c379a000000000000000000000000000000000000000000000000000000000815260040180806020018281038252603c8152602001807f596f752063616e6e6f7420696e7465726163742077697468207468697320737481526020017f6f726520617320796f7520617265206e6f7420746865206f776e65720000000081525060400191505060405180910390fd5b83600660008781526020019081526020016000206005016000888152602001908152602001600020600201819055507f7bb0939fa8871fdad6ab517d35a446bdf92216cfde5e600d537525e40bab2d5186868660405180848152602001838152602001828152602001935050505060405180910390a1505050505050565b606060008060606006600087815260200190815260200160002060050160008681526020019081526020016000206000018054600181600116156101000203166002900480601f01602080910402602001604051908101604052809291908181526020018280546001816001161561010002031660029004801561153c5780601f106115115761010080835404028352916020019161153c565b820191906000526020600020905b81548152906001019060200180831161151f57829003601f168201915b50505050509050600060066000888152602001908152602001600020600501600087815260200190815260200160002060010154905060006006600089815260200190815260200160002060050160008881526020019081526020016000206002015490508282829550955095505050509250925092565b600560003373ffffffffffffffffffffffffffffffffffffffff1673ffffffffffffffffffffffffffffffffffffffff16815260200190815260200160002060000160009054906101000a900460ff1680151561169f576040517f08c379a000000000000000000000000000000000000000000000000000000000815260040180806020018281038252602f8152602001807f546869732066756e6374696f6e206973206f6e6c7920617661696c61626c652081526020017f746f2073746f7265206f776e657273000000000000000000000000000000000081525060400191505060405180910390fd5b33836006600082815260200190815260200160002060020160009054906101000a900473ffffffffffffffffffffffffffffffffffffffff1673ffffffffffffffffffffffffffffffffffffffff168273ffffffffffffffffffffffffffffffffffffffff161415156117a0576040517f08c379a000000000000000000000000000000000000000000000000000000000815260040180806020018281038252603c8152602001807f596f752063616e6e6f7420696e7465726163742077697468207468697320737481526020017f6f726520617320796f7520617265206e6f7420746865206f776e65720000000081525060400191505060405180910390fd5b600660008681526020019081526020016000206005016000858152602001908152602001600020600080820160006117d89190612842565b600182016000905560028201600090556003820160006101000a81549060ff0219169055505060006006600087815260200190815260200160002060010180549050905060008090505b818110156119315785600660008981526020019081526020016000206001018281548110151561184e57fe5b9060005260206000200154141561192457600660008881526020019081526020016000206001016001830381548110151561188557fe5b906000526020600020015460066000898152602001908152602001600020600101828154811015156118b357fe5b906000526020600020018190555060066000888152602001908152602001600020600101600183038154811015156118e757fe5b90600052602060002001600090556006600088815260200190815260200160002060010180548091906001900361191e919061288a565b50611931565b8080600101915050611822565b507f07e3211e133eb160ac13057b9e7e7dce433ffee3770952424ef46c488c839ea28686600660008a8152602001908152602001600020600101604051808481526020018381526020018060200182810382528381815481526020019150805480156119bc57602002820191906000526020600020905b8154815260200190600101908083116119a8575b505094505050505060405180910390a1505050505050565b6000809054906101000a900473ffffffffffffffffffffffffffffffffffffffff1673ffffffffffffffffffffffffffffffffffffffff163373ffffffffffffffffffffffffffffffffffffffff16141515611abe576040517f08c379a00000000000000000000000000000000000000000000000000000000081526004018080602001828103825260358152602001807f546869732066756e6374696f6e206973206f6e6c7920617661696c61626c652081526020017f746f2074686520636f6e7472616374206f776e6572000000000000000000000081525060400191505060405180910390fd5b6001600460008373ffffffffffffffffffffffffffffffffffffffff1673ffffffffffffffffffffffffffffffffffffffff16815260200190815260200160002060006101000a81548160ff0219169083151502179055507fefcbb6030dbeda3448a657cc462d3fde6f3b78e2710bd7b2d9e2ab358a12e17081604051808273ffffffffffffffffffffffffffffffffffffffff1673ffffffffffffffffffffffffffffffffffffffff16815260200191505060405180910390a150565b60046020528060005260406000206000915054906101000a900460ff1681565b6000809054906101000a900473ffffffffffffffffffffffffffffffffffffffff1681565b600381815481101515611bd057fe5b906000526020600020016000915090505481565b600560003373ffffffffffffffffffffffffffffffffffffffff1673ffffffffffffffffffffffffffffffffffffffff16815260200190815260200160002060000160009054906101000a900460ff16801515611ccf576040517f08c379a000000000000000000000000000000000000000000000000000000000815260040180806020018281038252602f8152602001807f546869732066756e6374696f6e206973206f6e6c7920617661696c61626c652081526020017f746f2073746f7265206f776e657273000000000000000000000000000000000081525060400191505060405180910390fd5b33826006600082815260200190815260200160002060020160009054906101000a900473ffffffffffffffffffffffffffffffffffffffff1673ffffffffffffffffffffffffffffffffffffffff168273ffffffffffffffffffffffffffffffffffffffff16141515611dd0576040517f08c379a000000000000000000000000000000000000000000000000000000000815260040180806020018281038252603c8152602001807f596f752063616e6e6f7420696e7465726163742077697468207468697320737481526020017f6f726520617320796f7520617265206e6f7420746865206f776e65720000000081525060400191505060405180910390fd5b60006006600086815260200190815260200160002060020160009054906101000a900473ffffffffffffffffffffffffffffffffffffffff169050600060066000878152602001908152602001600020600301549050600060066000888152602001908152602001600020600301819055508173ffffffffffffffffffffffffffffffffffffffff166108fc829081150290604051600060405180830381858888f19350505050158015611e88573d6000803e3d6000fd5b507fec55db48190f8d91ed5ad4118ee6288cfd6506c9393dbdab71fa309691a16a6c8682600660008a81526020019081526020016000206003015460405180848152602001838152602001828152602001935050505060405180910390a1505050505050565b600460003373ffffffffffffffffffffffffffffffffffffffff1673ffffffffffffffffffffffffffffffffffffffff16815260200190815260200160002060009054906101000a900460ff16801515611fd6576040517f08c379a00000000000000000000000000000000000000000000000000000000081526004018080602001828103825260318152602001807f546869732066756e6374696f6e206973206f6e6c7920617661696c61626c652081526020017f746f2061646d696e6973747261746f727300000000000000000000000000000081525060400191505060405180910390fd5b6001600560008473ffffffffffffffffffffffffffffffffffffffff1673ffffffffffffffffffffffffffffffffffffffff16815260200190815260200160002060000160006101000a81548160ff0219169083151502179055507fc48be1259827f286158037425eac2071e5a2ce505bf01d53384e77fa0ef60da282604051808273ffffffffffffffffffffffffffffffffffffffff1673ffffffffffffffffffffffffffffffffffffffff16815260200191505060405180910390a15050565b60015481565b600060066000838152602001908152602001600020600401549050919050565b600560003373ffffffffffffffffffffffffffffffffffffffff1673ffffffffffffffffffffffffffffffffffffffff16815260200190815260200160002060000160009054906101000a900460ff168015156121a9576040517f08c379a000000000000000000000000000000000000000000000000000000000815260040180806020018281038252602f8152602001807f546869732066756e6374696f6e206973206f6e6c7920617661696c61626c652081526020017f746f2073746f7265206f776e657273000000000000000000000000000000000081525060400191505060405180910390fd5b33826006600082815260200190815260200160002060020160009054906101000a900473ffffffffffffffffffffffffffffffffffffffff1673ffffffffffffffffffffffffffffffffffffffff168273ffffffffffffffffffffffffffffffffffffffff161415156122aa576040517f08c379a000000000000000000000000000000000000000000000000000000000815260040180806020018281038252603c8152602001807f596f752063616e6e6f7420696e7465726163742077697468207468697320737481526020017f6f726520617320796f7520617265206e6f7420746865206f776e65720000000081525060400191505060405180910390fd5b60026000815480929190600101919050555086600660008681526020019081526020016000206005016000600254815260200190815260200160002060000190805190602001906122fc9291906127c2565b5085600660008681526020019081526020016000206005016000600254815260200190815260200160002060010181905550846006600086815260200190815260200160002060050160006002548152602001908152602001600020600201819055506001600660008681526020019081526020016000206005016000600254815260200190815260200160002060030160006101000a81548160ff02191690831515021790555060066000858152602001908152602001600020600101600254908060018154018082558091505090600182039060005260206000200160009091929091909150555060025460066000868152602001908152602001600020600401819055507ff7d91293721d0f8995b93ce4588704fe6cec39eddd45c258a22162ba552f62a360025485898989600660008b8152602001908152602001600020600101604051808781526020018681526020018060200185815260200184815260200180602001838103835287818151815260200191508051906020019080838360005b8381101561249d578082015181840152602081019050612482565b50505050905090810190601f1680156124ca5780820380516001836020036101000a031916815260200191505b50838103825284818154815260200191508054801561250857602002820191906000526020600020905b8154815260200190600101908083116124f4575b50509850505050505050505060405180910390a150505050505050565b600460003373ffffffffffffffffffffffffffffffffffffffff1673ffffffffffffffffffffffffffffffffffffffff16815260200190815260200160002060009054906101000a900460ff1680151561260d576040517f08c379a00000000000000000000000000000000000000000000000000000000081526004018080602001828103825260318152602001807f546869732066756e6374696f6e206973206f6e6c7920617661696c61626c652081526020017f746f2061646d696e6973747261746f727300000000000000000000000000000081525060400191505060405180910390fd5b600560008373ffffffffffffffffffffffffffffffffffffffff1673ffffffffffffffffffffffffffffffffffffffff168152602001908152602001600020600080820160006101000a81549060ff021916905560018201600061267191906128b6565b50507fd89cae1cc248e953c8ad4c040cf8353ec442f065045d82884af21e15a979afc582604051808273ffffffffffffffffffffffffffffffffffffffff1673ffffffffffffffffffffffffffffffffffffffff16815260200191505060405180910390a15050565b6006602052806000526040600020600091509050806000018054600181600116156101000203166002900480601f0160208091040260200160405190810160405280929190818152602001828054600181600116156101000203166002900480156127865780601f1061275b57610100808354040283529160200191612786565b820191906000526020600020905b81548152906001019060200180831161276957829003601f168201915b5050505050908060020160009054906101000a900473ffffffffffffffffffffffffffffffffffffffff16908060030154908060040154905084565b828054600181600116156101000203166002900490600052602060002090601f016020900481019282601f1061280357805160ff1916838001178555612831565b82800160010185558215612831579182015b82811115612830578251825591602001919060010190612815565b5b50905061283e91906128d7565b5090565b50805460018160011615610100020316600290046000825580601f106128685750612887565b601f01602090049060005260206000209081019061288691906128d7565b5b50565b8154818355818111156128b1578183600052602060002091820191016128b091906128d7565b5b505050565b50805460008255906000526020600020908101906128d491906128d7565b50565b6128f991905b808211156128f55760008160009055506001016128dd565b5090565b9056fea165627a7a7230582019e116adb08a9e98dd9dba9d95f859f92b3a8ce841fea182c70da0dce9f041030029",
  "source": "/*\nQuestions:\nImplement Eth/USD price\n*/\n\npragma solidity 0.5.0;\n\ncontract MarketPlace {\n\n    address public owner;\n    uint public storeCount = 0;\n    uint public skuCount = 0;\n    uint[] public listOfStoreIDs;\n\n    //Struct to hold details about each item for sale in a particular store\n    struct ItemForSale {\n        string name;\n        uint quantity;\n        uint price;\n        bool exists;\n    }\n\n    struct StoreFronts {\n        string storeName; //Struct containing store name to display on UI\n        uint[] skusInStore;\n        address payable storeOwner; //Address to cross check that the store owner is calling the function\n        uint pendingWithdrawal; //Total sales value of store\n        uint latestSkuNoInStore;\n        mapping(uint => ItemForSale) sku; //Mapping of all stock being sold by a particular store\n    }\n\n    struct StoreOwnersDB {\n        bool exists;\n        uint[] storesInStoreOwner;\n    }\n\n    //used a mapping as opposed to an array to avoid use of a loop to find matches\n    mapping(address => bool) public adminsDB; //mapping of admins by address\n    mapping(address => StoreOwnersDB) public storeOwnersDB; //mapping of store owners by address\n    mapping(uint => StoreFronts) public storeFront;\n\n\n\n    //Events\n    event adminAdded(address _admin);\n    event adminDeleted(address _admin);\n    event storeOwnerAdded(address _storeOwner);\n    event storeOwnerDeleted(address _storeOwner);\n    event storeFrontCreated(uint _storeID, string _storeName, address _storeOwner, uint[] _storesInStoreOwner);\n    event itemToSellAdded(uint _sku, uint _storeID, string _nameOfItem, uint _quantity, uint _price, uint[] _skusInStore);\n    event itemPriceUpdated(uint _sku, uint _storeID, uint _newPrice);\n    event itemForSaleDeleted(uint _storeID, uint _skuCode, uint[] _skusInStore);\n    event salesWithdrawn(uint _storeID, uint _payment, uint _storeSalesBalance);\n    event refund(uint _refund);\n    event itemBought(uint _skuCode, uint _quantity, uint _storeID, uint _price);\n    event debugging(uint[] _listOfStoreIDs);\n\n\n\n    //Constructor\n\n    constructor () public {\n        owner = msg.sender;\n    }\n\n\n\n    //Modifiers\n\n    modifier checkContractOwner() {\n        require(msg.sender == owner, \"This function is only available to the contract owner\");\n        _;\n    }\n\n    modifier checkAdmin(bool _exists) {\n        require(_exists, \"This function is only available to administrators\");\n        _;\n    }\n\n    modifier checkStoreOwner(bool _exists) {\n        require(_exists, \"This function is only available to store owners\");\n        _;\n    }\n\n    modifier checkOwnerOfStore(address _owner, uint _storeID) {\n        require (_owner == storeFront[_storeID].storeOwner, \"You cannot interact with this store as you are not the owner\");\n        _;\n    }\n\n    modifier checkQuantity(uint _quantity, uint _storeID, uint _skuCode) {\n        require(_quantity <= storeFront[_storeID].sku[_skuCode].quantity, \"You are trying to purchase more items than are available\");\n        _;\n    }\n\n    modifier paidEnough(uint _quantity, uint _price) {\n        require(msg.value >= _price*_quantity, \"You have not tendered the correct amount.\");\n        _;\n    }\n\n    modifier checkValue(uint _quantity, uint _price) {\n        _;\n        uint amountToRefund = msg.value - _price*_quantity;\n        msg.sender.transfer(amountToRefund);\n        emit refund(amountToRefund);\n    }\n\n\n\n    //Contract owner functions\n\n    function addAdmin(address _admin) \n        public \n        checkContractOwner() \n    {\n        adminsDB[_admin] = true;\n        emit adminAdded(_admin);\n    }\n\n    function deleteAdmin(address _admin) \n        public \n        checkContractOwner() \n    {\n            delete adminsDB[_admin];\n            //removing the empty index costs gas. There is no need to remove it as one \n            //counter is used to assign new sku's accross the entire marketplace.\n            //This also ensures that a SKU cannot be reused, leading to disputes\n            emit adminDeleted(_admin);\n    }\n\n\n\n    //Admin functions\n\n    function addStoreOwner(address _newStoreOwner) \n        public \n        checkAdmin(adminsDB[msg.sender]) \n    {\n            storeOwnersDB[_newStoreOwner].exists = true;\n            emit storeOwnerAdded(_newStoreOwner);\n    }\n\n    function deleteStoreOwner(address _deleteStoreOwner) \n        public \n        checkAdmin(adminsDB[msg.sender]) \n    {\n            delete storeOwnersDB[_deleteStoreOwner];\n            //removing the empty index costs gas. There is no need to remove it as one \n            //counter is used to assign new sku's accross the entire marketplace.\n            //This also ensures that a SKU cannot be reused, leading to disputes\n            emit storeOwnerDeleted(_deleteStoreOwner);\n    }\n\n\n\n    //Store owner functions\n\n    function createStoreFront(string memory _storeName) \n        public \n        checkStoreOwner(storeOwnersDB[msg.sender].exists) \n    {\n            storeCount ++;\n            storeFront[storeCount].storeName = _storeName;\n            storeFront[storeCount].storeOwner = msg.sender;\n            storeOwnersDB[msg.sender].storesInStoreOwner.push(storeCount);\n            listOfStoreIDs.push(storeCount);\n            emit debugging(listOfStoreIDs);\n            emit storeFrontCreated(storeCount, _storeName, msg.sender, storeOwnersDB[msg.sender].storesInStoreOwner);\n    }\n\n    function addItem(string memory _nameOfItem, uint _quantity, uint _price, uint _storeID) \n        public \n        checkStoreOwner(storeOwnersDB[msg.sender].exists)\n        checkOwnerOfStore(msg.sender, _storeID)\n    {\n            skuCount ++;\n            storeFront[_storeID].sku[skuCount].name = _nameOfItem;\n            storeFront[_storeID].sku[skuCount].quantity = _quantity;\n            storeFront[_storeID].sku[skuCount].price = _price;\n            storeFront[_storeID].sku[skuCount].exists = true;\n            storeFront[_storeID].skusInStore.push(skuCount);\n            storeFront[_storeID].latestSkuNoInStore = skuCount;\n            \n            emit itemToSellAdded(skuCount, _storeID, _nameOfItem, _quantity, _price, storeFront[_storeID].skusInStore);\n    }\n\n    function changePrice(uint _skuCode, uint _storeID, uint _newPrice) \n        public \n        checkStoreOwner(storeOwnersDB[msg.sender].exists)\n        checkOwnerOfStore(msg.sender, _storeID)\n    {\n            storeFront[_storeID].sku[_skuCode].price = _newPrice;\n            emit itemPriceUpdated(_skuCode, _storeID, _newPrice);\n    }\n\n    function deleteItem(uint _storeID, uint _skuCode)\n        public \n        checkStoreOwner(storeOwnersDB[msg.sender].exists)\n        checkOwnerOfStore(msg.sender, _storeID)\n    {\n            delete storeFront[_storeID].sku[_skuCode];\n\n            //An array is used to track skus that belong to a store.\n            //It is necessary to remove a sku and delete its position from this array so that the front\n            //end displays the correct number of items for sale in a shop. Order does not matter. The\n            //quickest way to delete an element from an array is to move the last item in the array into\n            //the deleted position, delete the last position, reduce len of array by 1 --> saves gas.\n            uint len = storeFront[_storeID].skusInStore.length;\n            for (uint k = 0; k < len; k++) {\n                if (storeFront[_storeID].skusInStore[k] == _skuCode) {\n                    storeFront[_storeID].skusInStore[k] = storeFront[_storeID].skusInStore[len-1];\n                    delete storeFront[_storeID].skusInStore[len -1];\n                    storeFront[_storeID].skusInStore.length --;\n                    break;\n                }\n            }\n            emit itemForSaleDeleted(_storeID, _skuCode, storeFront[_storeID].skusInStore);\n    }\n\n    function withdrawSales(uint _storeID) \n        public \n        checkStoreOwner(storeOwnersDB[msg.sender].exists)\n        checkOwnerOfStore(msg.sender, _storeID)\n    {\n            address payable storeOwnerAddress = storeFront[_storeID].storeOwner;\n            uint payment = storeFront[_storeID].pendingWithdrawal;\n            storeFront[_storeID].pendingWithdrawal = 0; //Preventing reentrancy\n            storeOwnerAddress.transfer(payment);\n            emit salesWithdrawn(_storeID, payment, storeFront[_storeID].pendingWithdrawal);\n    }\n\n\n    \n    //Shopper functions\n    function buyItem(uint _quantity, uint _skuCode, uint _storeID) \n        public\n        payable\n        checkQuantity(_quantity, _storeID, _skuCode)\n        paidEnough(_quantity, storeFront[_storeID].sku[_skuCode].price)\n        checkValue(_quantity, storeFront[_storeID].sku[_skuCode].price)\n    {\n            storeFront[_storeID].sku[_skuCode].quantity -= _quantity;\n            storeFront[_storeID].pendingWithdrawal += (storeFront[_storeID].sku[_skuCode].price*_quantity);\n            emit itemBought(_skuCode, _quantity, _storeID, storeFront[_storeID].sku[_skuCode].price);\n    }\n\n\n\n    //Getters\n    function getLatestSKU(uint _storeID) \n        public\n        view\n        returns (uint)\n    {\n        return storeFront[_storeID].latestSkuNoInStore;\n    }\n\n    function getItemInShop(uint _storeID, uint _sku)\n        public\n        view\n        returns (string memory, uint, uint)\n    {\n        string memory itemName = storeFront[_storeID].sku[_sku].name;\n        uint itemQuantity = storeFront[_storeID].sku[_sku].quantity;\n        uint itemPrice = storeFront[_storeID].sku[_sku].price;\n        return (itemName, itemQuantity, itemPrice);\n    }\n    \n    /*function getItemInShopName(uint _storeID, uint _sku)\n        public\n        view\n        returns (string memory)\n    {\n        return storeFront[_storeID].sku[_sku].name;\n    }\n\n    function getItemInShopQuantity(uint _storeID, uint _sku)\n        public\n        view\n        returns (uint)\n    {\n        return storeFront[_storeID].sku[_sku].quantity;\n    }\n            \n    function getItemInShopPrice(uint _storeID, uint _sku)\n        public\n        view\n        returns (uint)\n    {\n        return storeFront[_storeID].sku[_sku].price;\n    }*/\n}",
  "sourcePath": "/home/satoshisingh/Online-Marketplace/contracts/MarketPlace.sol",
  "compiler": {
    "name": "solc",
    "version": "0.5.0+commit.1d4f565a.Emscripten.clang"
  },
  "schemaVersion": "3.0.1",
  "updatedAt": "2019-01-19T20:13:56.040Z",
  "devdoc": {
    "methods": {}
  },
  "userdoc": {
    "methods": {}
  }
}