{
  "contractName": "MarketPlace",
  "abi": [
    {
      "constant": true,
      "inputs": [],
      "name": "skuCount",
      "outputs": [
        {
          "name": "",
          "type": "uint256"
        }
      ],
      "payable": false,
      "stateMutability": "view",
      "type": "function",
      "signature": "0x22702473"
    },
    {
      "constant": true,
      "inputs": [
        {
          "name": "",
          "type": "address"
        }
      ],
      "name": "storeOwnersDB",
      "outputs": [
        {
          "name": "",
          "type": "bool"
        }
      ],
      "payable": false,
      "stateMutability": "view",
      "type": "function",
      "signature": "0x3b78f63e"
    },
    {
      "constant": false,
      "inputs": [],
      "name": "renounceOwnership",
      "outputs": [],
      "payable": false,
      "stateMutability": "nonpayable",
      "type": "function",
      "signature": "0x715018a6"
    },
    {
      "constant": true,
      "inputs": [],
      "name": "stopped",
      "outputs": [
        {
          "name": "",
          "type": "bool"
        }
      ],
      "payable": false,
      "stateMutability": "view",
      "type": "function",
      "signature": "0x75f12b21"
    },
    {
      "constant": true,
      "inputs": [
        {
          "name": "",
          "type": "address"
        }
      ],
      "name": "adminsDB",
      "outputs": [
        {
          "name": "",
          "type": "bool"
        }
      ],
      "payable": false,
      "stateMutability": "view",
      "type": "function",
      "signature": "0x8b631991"
    },
    {
      "constant": true,
      "inputs": [],
      "name": "owner",
      "outputs": [
        {
          "name": "",
          "type": "address"
        }
      ],
      "payable": false,
      "stateMutability": "view",
      "type": "function",
      "signature": "0x8da5cb5b"
    },
    {
      "constant": true,
      "inputs": [],
      "name": "isOwner",
      "outputs": [
        {
          "name": "",
          "type": "bool"
        }
      ],
      "payable": false,
      "stateMutability": "view",
      "type": "function",
      "signature": "0x8f32d59b"
    },
    {
      "constant": true,
      "inputs": [],
      "name": "storeCount",
      "outputs": [
        {
          "name": "",
          "type": "uint256"
        }
      ],
      "payable": false,
      "stateMutability": "view",
      "type": "function",
      "signature": "0xa1b141d4"
    },
    {
      "constant": false,
      "inputs": [
        {
          "name": "newOwner",
          "type": "address"
        }
      ],
      "name": "transferOwnership",
      "outputs": [],
      "payable": false,
      "stateMutability": "nonpayable",
      "type": "function",
      "signature": "0xf2fde38b"
    },
    {
      "constant": true,
      "inputs": [
        {
          "name": "",
          "type": "uint256"
        }
      ],
      "name": "storeFront",
      "outputs": [
        {
          "name": "storeName",
          "type": "string"
        },
        {
          "name": "storeOwner",
          "type": "address"
        },
        {
          "name": "pendingWithdrawal",
          "type": "uint256"
        },
        {
          "name": "latestSkuNoInStore",
          "type": "uint256"
        }
      ],
      "payable": false,
      "stateMutability": "view",
      "type": "function",
      "signature": "0xfd5e943a"
    },
    {
      "anonymous": false,
      "inputs": [
        {
          "indexed": false,
          "name": "_admin",
          "type": "address"
        }
      ],
      "name": "adminAdded",
      "type": "event",
      "signature": "0xefcbb6030dbeda3448a657cc462d3fde6f3b78e2710bd7b2d9e2ab358a12e170"
    },
    {
      "anonymous": false,
      "inputs": [
        {
          "indexed": false,
          "name": "_admin",
          "type": "address"
        }
      ],
      "name": "adminDeleted",
      "type": "event",
      "signature": "0x86f2a87e57b786e440244b5c31f13c4f7bda9b857bdfd1c8218ecdfb029f4c0f"
    },
    {
      "anonymous": false,
      "inputs": [
        {
          "indexed": false,
          "name": "_storeOwner",
          "type": "address"
        }
      ],
      "name": "storeOwnerAdded",
      "type": "event",
      "signature": "0xc48be1259827f286158037425eac2071e5a2ce505bf01d53384e77fa0ef60da2"
    },
    {
      "anonymous": false,
      "inputs": [
        {
          "indexed": false,
          "name": "_storeOwner",
          "type": "address"
        }
      ],
      "name": "storeOwnerDeleted",
      "type": "event",
      "signature": "0xd89cae1cc248e953c8ad4c040cf8353ec442f065045d82884af21e15a979afc5"
    },
    {
      "anonymous": false,
      "inputs": [
        {
          "indexed": false,
          "name": "_storeID",
          "type": "uint256"
        },
        {
          "indexed": false,
          "name": "_storeName",
          "type": "string"
        },
        {
          "indexed": false,
          "name": "_storeOwner",
          "type": "address"
        }
      ],
      "name": "storeFrontCreated",
      "type": "event",
      "signature": "0x981bdf87b6a5937751ec714254f33c9280af322ed4c6744b1ba943aae982b606"
    },
    {
      "anonymous": false,
      "inputs": [
        {
          "indexed": false,
          "name": "_sku",
          "type": "uint256"
        },
        {
          "indexed": false,
          "name": "_storeID",
          "type": "uint256"
        },
        {
          "indexed": false,
          "name": "_nameOfItem",
          "type": "string"
        },
        {
          "indexed": false,
          "name": "_quantity",
          "type": "uint256"
        },
        {
          "indexed": false,
          "name": "_price",
          "type": "uint256"
        }
      ],
      "name": "itemToSellAdded",
      "type": "event",
      "signature": "0x8526f2be0525916490c710d1117ba1e2b14068a050370500edc332329e0f0e9b"
    },
    {
      "anonymous": false,
      "inputs": [
        {
          "indexed": false,
          "name": "_sku",
          "type": "uint256"
        },
        {
          "indexed": false,
          "name": "_storeID",
          "type": "uint256"
        },
        {
          "indexed": false,
          "name": "_newPrice",
          "type": "uint256"
        }
      ],
      "name": "itemPriceUpdated",
      "type": "event",
      "signature": "0x7bb0939fa8871fdad6ab517d35a446bdf92216cfde5e600d537525e40bab2d51"
    },
    {
      "anonymous": false,
      "inputs": [
        {
          "indexed": false,
          "name": "_storeID",
          "type": "uint256"
        },
        {
          "indexed": false,
          "name": "_skuCode",
          "type": "uint256"
        }
      ],
      "name": "itemForSaleDeleted",
      "type": "event",
      "signature": "0xace30996fcccb030823d885d6f416386f030076e7e650acb6b7c2ae96bf03f20"
    },
    {
      "anonymous": false,
      "inputs": [
        {
          "indexed": false,
          "name": "_storeID",
          "type": "uint256"
        },
        {
          "indexed": false,
          "name": "_payment",
          "type": "uint256"
        },
        {
          "indexed": false,
          "name": "_storeSalesBalance",
          "type": "uint256"
        }
      ],
      "name": "salesWithdrawn",
      "type": "event",
      "signature": "0xec55db48190f8d91ed5ad4118ee6288cfd6506c9393dbdab71fa309691a16a6c"
    },
    {
      "anonymous": false,
      "inputs": [
        {
          "indexed": false,
          "name": "_refund",
          "type": "uint256"
        }
      ],
      "name": "refund",
      "type": "event",
      "signature": "0x278ecde10404a9f1d9088d6512ddd16581968e0a41c5416fce08986e7207bbe4"
    },
    {
      "anonymous": false,
      "inputs": [
        {
          "indexed": false,
          "name": "_name",
          "type": "string"
        },
        {
          "indexed": false,
          "name": "_skuCode",
          "type": "uint256"
        },
        {
          "indexed": false,
          "name": "_quantity",
          "type": "uint256"
        },
        {
          "indexed": false,
          "name": "_storeID",
          "type": "uint256"
        },
        {
          "indexed": false,
          "name": "_price",
          "type": "uint256"
        }
      ],
      "name": "itemBought",
      "type": "event",
      "signature": "0x9259a67249e7b0a868c35bcfa5319728c41e806b070e699ef0ee54eaca05edb1"
    },
    {
      "anonymous": false,
      "inputs": [
        {
          "indexed": true,
          "name": "previousOwner",
          "type": "address"
        },
        {
          "indexed": true,
          "name": "newOwner",
          "type": "address"
        }
      ],
      "name": "OwnershipTransferred",
      "type": "event",
      "signature": "0x8be0079c531659141344cd1fd0a4f28419497f9722a3daafe3b4186f6b6457e0"
    },
    {
      "constant": false,
      "inputs": [
        {
          "name": "_admin",
          "type": "address"
        }
      ],
      "name": "addAdmin",
      "outputs": [],
      "payable": false,
      "stateMutability": "nonpayable",
      "type": "function",
      "signature": "0x70480275"
    },
    {
      "constant": false,
      "inputs": [
        {
          "name": "_admin",
          "type": "address"
        }
      ],
      "name": "deleteAdmin",
      "outputs": [],
      "payable": false,
      "stateMutability": "nonpayable",
      "type": "function",
      "signature": "0x27e1f7df"
    },
    {
      "constant": false,
      "inputs": [],
      "name": "activateEmergencyStop",
      "outputs": [],
      "payable": false,
      "stateMutability": "nonpayable",
      "type": "function",
      "signature": "0x985957ab"
    },
    {
      "constant": false,
      "inputs": [],
      "name": "deActivateEmergencyStop",
      "outputs": [],
      "payable": false,
      "stateMutability": "nonpayable",
      "type": "function",
      "signature": "0x8a85fff8"
    },
    {
      "constant": false,
      "inputs": [],
      "name": "withdrawAllFunds",
      "outputs": [],
      "payable": false,
      "stateMutability": "nonpayable",
      "type": "function",
      "signature": "0x49649fbf"
    },
    {
      "constant": false,
      "inputs": [
        {
          "name": "_newStoreOwner",
          "type": "address"
        }
      ],
      "name": "addStoreOwner",
      "outputs": [],
      "payable": false,
      "stateMutability": "nonpayable",
      "type": "function",
      "signature": "0x9adeb5f1"
    },
    {
      "constant": false,
      "inputs": [
        {
          "name": "_deleteStoreOwner",
          "type": "address"
        }
      ],
      "name": "deleteStoreOwner",
      "outputs": [],
      "payable": false,
      "stateMutability": "nonpayable",
      "type": "function",
      "signature": "0xdcba65af"
    },
    {
      "constant": false,
      "inputs": [
        {
          "name": "_storeName",
          "type": "string"
        }
      ],
      "name": "createStoreFront",
      "outputs": [],
      "payable": false,
      "stateMutability": "nonpayable",
      "type": "function",
      "signature": "0x2fc826bd"
    },
    {
      "constant": false,
      "inputs": [
        {
          "name": "_nameOfItem",
          "type": "string"
        },
        {
          "name": "_quantity",
          "type": "uint256"
        },
        {
          "name": "_price",
          "type": "uint256"
        },
        {
          "name": "_storeID",
          "type": "uint256"
        }
      ],
      "name": "addItem",
      "outputs": [],
      "payable": false,
      "stateMutability": "nonpayable",
      "type": "function",
      "signature": "0xdc0dd677"
    },
    {
      "constant": false,
      "inputs": [
        {
          "name": "_skuCode",
          "type": "uint256"
        },
        {
          "name": "_storeID",
          "type": "uint256"
        },
        {
          "name": "_newPrice",
          "type": "uint256"
        }
      ],
      "name": "changePrice",
      "outputs": [],
      "payable": false,
      "stateMutability": "nonpayable",
      "type": "function",
      "signature": "0x40e2b4b8"
    },
    {
      "constant": false,
      "inputs": [
        {
          "name": "_storeID",
          "type": "uint256"
        },
        {
          "name": "_skuCode",
          "type": "uint256"
        }
      ],
      "name": "deleteItem",
      "outputs": [],
      "payable": false,
      "stateMutability": "nonpayable",
      "type": "function",
      "signature": "0x618a7e1d"
    },
    {
      "constant": false,
      "inputs": [
        {
          "name": "_withdrawAmount",
          "type": "uint256"
        },
        {
          "name": "_storeID",
          "type": "uint256"
        }
      ],
      "name": "withdrawSales",
      "outputs": [],
      "payable": false,
      "stateMutability": "nonpayable",
      "type": "function",
      "signature": "0x8b776fd5"
    },
    {
      "constant": false,
      "inputs": [
        {
          "name": "_quantity",
          "type": "uint256"
        },
        {
          "name": "_skuCode",
          "type": "uint256"
        },
        {
          "name": "_storeID",
          "type": "uint256"
        }
      ],
      "name": "buyItem",
      "outputs": [],
      "payable": true,
      "stateMutability": "payable",
      "type": "function",
      "signature": "0x1f6a8318"
    },
    {
      "constant": true,
      "inputs": [
        {
          "name": "_storeID",
          "type": "uint256"
        }
      ],
      "name": "getLatestSKU",
      "outputs": [
        {
          "name": "",
          "type": "uint256"
        }
      ],
      "payable": false,
      "stateMutability": "view",
      "type": "function",
      "signature": "0xa6aeb49a"
    },
    {
      "constant": true,
      "inputs": [
        {
          "name": "_storeID",
          "type": "uint256"
        },
        {
          "name": "_sku",
          "type": "uint256"
        }
      ],
      "name": "getItemInShop",
      "outputs": [
        {
          "name": "itemName",
          "type": "string"
        },
        {
          "name": "itemQuantity",
          "type": "uint256"
        },
        {
          "name": "itemPrice",
          "type": "uint256"
        }
      ],
      "payable": false,
      "stateMutability": "view",
      "type": "function",
      "signature": "0x5203320e"
    },
    {
      "constant": true,
      "inputs": [
        {
          "name": "_isAdmin",
          "type": "address"
        }
      ],
      "name": "fetchAdmin",
      "outputs": [
        {
          "name": "newAdminExists",
          "type": "bool"
        }
      ],
      "payable": false,
      "stateMutability": "view",
      "type": "function",
      "signature": "0x6001f1d1"
    },
    {
      "constant": true,
      "inputs": [
        {
          "name": "_isStoreOwner",
          "type": "address"
        }
      ],
      "name": "fetchStoreOwner",
      "outputs": [
        {
          "name": "newStoreOwner",
          "type": "bool"
        }
      ],
      "payable": false,
      "stateMutability": "view",
      "type": "function",
      "signature": "0x042ba42a"
    },
    {
      "constant": true,
      "inputs": [
        {
          "name": "_storeID",
          "type": "uint256"
        }
      ],
      "name": "fetchStoreID",
      "outputs": [
        {
          "name": "newStoreOwnerAddress",
          "type": "address"
        },
        {
          "name": "storeNameAdded",
          "type": "string"
        }
      ],
      "payable": false,
      "stateMutability": "view",
      "type": "function",
      "signature": "0x36cc9685"
    },
    {
      "constant": true,
      "inputs": [
        {
          "name": "_currentStoreID",
          "type": "uint256"
        },
        {
          "name": "_currentSKU",
          "type": "uint256"
        }
      ],
      "name": "isItemBought",
      "outputs": [
        {
          "name": "newQuantity",
          "type": "uint256"
        }
      ],
      "payable": false,
      "stateMutability": "view",
      "type": "function",
      "signature": "0xe68ca8b6"
    },
    {
      "constant": true,
      "inputs": [
        {
          "name": "_storeID",
          "type": "uint256"
        }
      ],
      "name": "fetchStoreBalance",
      "outputs": [
        {
          "name": "storeBalance",
          "type": "uint256"
        }
      ],
      "payable": false,
      "stateMutability": "view",
      "type": "function",
      "signature": "0xfd205d4c"
    }
  ],
  "bytecode": "0x6080604052600060015560006002556000600360006101000a81548160ff021916908315150217905550336000806101000a81548173ffffffffffffffffffffffffffffffffffffffff021916908373ffffffffffffffffffffffffffffffffffffffff1602179055506000809054906101000a900473ffffffffffffffffffffffffffffffffffffffff1673ffffffffffffffffffffffffffffffffffffffff16600073ffffffffffffffffffffffffffffffffffffffff167f8be0079c531659141344cd1fd0a4f28419497f9722a3daafe3b4186f6b6457e060405160405180910390a36139fa806100f46000396000f3fe608060405260043610610180576000357c0100000000000000000000000000000000000000000000000000000000900463ffffffff168063042ba42a146101855780631f6a8318146101ee578063227024731461023057806327e1f7df1461025b5780632fc826bd146102ac57806336cc9685146103745780633b78f63e1461045b57806340e2b4b8146104c457806349649fbf146105135780635203320e1461052a5780636001f1d1146105f6578063618a7e1d1461065f57806370480275146106a4578063715018a6146106f557806375f12b211461070c5780638a85fff81461073b5780638b631991146107525780638b776fd5146107bb5780638da5cb5b146108005780638f32d59b14610857578063985957ab146108865780639adeb5f11461089d578063a1b141d4146108ee578063a6aeb49a14610919578063dc0dd67714610968578063dcba65af14610a4e578063e68ca8b614610a9f578063f2fde38b14610af8578063fd205d4c14610b49578063fd5e943a14610b98575b600080fd5b34801561019157600080fd5b506101d4600480360360208110156101a857600080fd5b81019080803573ffffffffffffffffffffffffffffffffffffffff169060200190929190505050610c8d565b604051808215151515815260200191505060405180910390f35b61022e6004803603606081101561020457600080fd5b81019080803590602001909291908035906020019092919080359060200190929190505050610ce6565b005b34801561023c57600080fd5b50610245611159565b6040518082815260200191505060405180910390f35b34801561026757600080fd5b506102aa6004803603602081101561027e57600080fd5b81019080803573ffffffffffffffffffffffffffffffffffffffff16906020019092919050505061115f565b005b3480156102b857600080fd5b50610372600480360360208110156102cf57600080fd5b81019080803590602001906401000000008111156102ec57600080fd5b8201836020820111156102fe57600080fd5b8035906020019184600183028401116401000000008311171561032057600080fd5b91908080601f016020809104026020016040519081016040528093929190818152602001838380828437600081840152601f19601f82011690508083019250505050505050919291929050505061131e565b005b34801561038057600080fd5b506103ad6004803603602081101561039757600080fd5b81019080803590602001909291905050506115e3565b604051808373ffffffffffffffffffffffffffffffffffffffff1673ffffffffffffffffffffffffffffffffffffffff16815260200180602001828103825283818151815260200191508051906020019080838360005b8381101561041f578082015181840152602081019050610404565b50505050905090810190601f16801561044c5780820380516001836020036101000a031916815260200191505b50935050505060405180910390f35b34801561046757600080fd5b506104aa6004803603602081101561047e57600080fd5b81019080803573ffffffffffffffffffffffffffffffffffffffff1690602001909291905050506116dc565b604051808215151515815260200191505060405180910390f35b3480156104d057600080fd5b50610511600480360360608110156104e757600080fd5b810190808035906020019092919080359060200190929190803590602001909291905050506116fc565b005b34801561051f57600080fd5b50610528611a6f565b005b34801561053657600080fd5b5061056d6004803603604081101561054d57600080fd5b810190808035906020019092919080359060200190929190505050611bad565b6040518080602001848152602001838152602001828103825285818151815260200191508051906020019080838360005b838110156105b957808201518184015260208101905061059e565b50505050905090810190601f1680156105e65780820380516001836020036101000a031916815260200191505b5094505050505060405180910390f35b34801561060257600080fd5b506106456004803603602081101561061957600080fd5b81019080803573ffffffffffffffffffffffffffffffffffffffff169060200190929190505050611ce1565b604051808215151515815260200191505060405180910390f35b34801561066b57600080fd5b506106a26004803603604081101561068257600080fd5b810190808035906020019092919080359060200190929190505050611d3a565b005b3480156106b057600080fd5b506106f3600480360360208110156106c757600080fd5b81019080803573ffffffffffffffffffffffffffffffffffffffff1690602001909291905050506120bf565b005b34801561070157600080fd5b5061070a612287565b005b34801561071857600080fd5b506107216123e8565b604051808215151515815260200191505060405180910390f35b34801561074757600080fd5b506107506123fb565b005b34801561075e57600080fd5b506107a16004803603602081101561077557600080fd5b81019080803573ffffffffffffffffffffffffffffffffffffffff1690602001909291905050506124ba565b604051808215151515815260200191505060405180910390f35b3480156107c757600080fd5b506107fe600480360360408110156107de57600080fd5b8101908080359060200190929190803590602001909291905050506124da565b005b34801561080c57600080fd5b506108156129df565b604051808273ffffffffffffffffffffffffffffffffffffffff1673ffffffffffffffffffffffffffffffffffffffff16815260200191505060405180910390f35b34801561086357600080fd5b5061086c612a08565b604051808215151515815260200191505060405180910390f35b34801561089257600080fd5b5061089b612a5f565b005b3480156108a957600080fd5b506108ec600480360360208110156108c057600080fd5b81019080803573ffffffffffffffffffffffffffffffffffffffff169060200190929190505050612b1e565b005b3480156108fa57600080fd5b50610903612d2d565b6040518082815260200191505060405180910390f35b34801561092557600080fd5b506109526004803603602081101561093c57600080fd5b8101908080359060200190929190505050612d33565b6040518082815260200191505060405180910390f35b34801561097457600080fd5b50610a4c6004803603608081101561098b57600080fd5b81019080803590602001906401000000008111156109a857600080fd5b8201836020820111156109ba57600080fd5b803590602001918460018302840111640100000000831117156109dc57600080fd5b91908080601f016020809104026020016040519081016040528093929190818152602001838380828437600081840152601f19601f820116905080830192505050505050509192919290803590602001909291908035906020019092919080359060200190929190505050612d53565b005b348015610a5a57600080fd5b50610a9d60048036036020811015610a7157600080fd5b81019080803573ffffffffffffffffffffffffffffffffffffffff16906020019092919050505061313e565b005b348015610aab57600080fd5b50610ae260048036036040811015610ac257600080fd5b810190808035906020019092919080359060200190929190505050613344565b6040518082815260200191505060405180910390f35b348015610b0457600080fd5b50610b4760048036036020811015610b1b57600080fd5b81019080803573ffffffffffffffffffffffffffffffffffffffff16906020019092919050505061337c565b005b348015610b5557600080fd5b50610b8260048036036020811015610b6c57600080fd5b810190808035906020019092919050505061342a565b6040518082815260200191505060405180910390f35b348015610ba457600080fd5b50610bd160048036036020811015610bbb57600080fd5b810190808035906020019092919050505061344d565b60405180806020018573ffffffffffffffffffffffffffffffffffffffff1673ffffffffffffffffffffffffffffffffffffffff168152602001848152602001838152602001828103825286818151815260200191508051906020019080838360005b83811015610c4f578082015181840152602081019050610c34565b50505050905090810190601f168015610c7c5780820380516001836020036101000a031916815260200191505b509550505050505060405180910390f35b6000600560008373ffffffffffffffffffffffffffffffffffffffff1673ffffffffffffffffffffffffffffffffffffffff16815260200190815260200160002060009054906101000a900460ff169050809050919050565b600360009054906101000a900460ff16151515610d4e576040517f08c379a000000000000000000000000000000000000000000000000000000000815260040180806020018281038252609c815260200180613933609c913960a00191505060405180910390fd5b828183600660008381526020019081526020016000206004016000828152602001908152602001600020600101548311151515610e19576040517f08c379a00000000000000000000000000000000000000000000000000000000081526004018080602001828103825260388152602001807f596f752061726520747279696e6720746f207075726368617365206d6f72652081526020017f6974656d73207468616e2061726520617661696c61626c65000000000000000081525060400191505060405180910390fd5b85600660008681526020019081526020016000206004016000878152602001908152602001600020600201548181023410151515610ee5576040517f08c379a000000000000000000000000000000000000000000000000000000000815260040180806020018281038252602b8152602001807f596f752068617665206e6f742074656e64657265642074686520696e636f727281526020017f65637420616d6f756e742e00000000000000000000000000000000000000000081525060400191505060405180910390fd5b876006600088815260200190815260200160002060040160008981526020019081526020016000206002015489600660008a815260200190815260200160002060040160008b81526020019081526020016000206001016000828254039250508190555089600660008a815260200190815260200160002060040160008b81526020019081526020016000206002015402600660008a8152602001908152602001600020600201600082825401925050819055507f9259a67249e7b0a868c35bcfa5319728c41e806b070e699ef0ee54eaca05edb1600660008a815260200190815260200160002060040160008b81526020019081526020016000206000018a8c8b600660008e815260200190815260200160002060040160008f81526020019081526020016000206002015460405180806020018681526020018581526020018481526020018381526020018281038252878181546001816001161561010002031660029004815260200191508054600181600116156101000203166002900480156110b35780601f10611088576101008083540402835291602001916110b3565b820191906000526020600020905b81548152906001019060200180831161109657829003601f168201915b5050965050505050505060405180910390a16000828202340390503373ffffffffffffffffffffffffffffffffffffffff166108fc829081150290604051600060405180830381858888f19350505050158015611114573d6000803e3d6000fd5b507f278ecde10404a9f1d9088d6512ddd16581968e0a41c5416fce08986e7207bbe4816040518082815260200191505060405180910390a15050505050505050505050565b60025481565b600360009054906101000a900460ff161515156111c7576040517f08c379a000000000000000000000000000000000000000000000000000000000815260040180806020018281038252609c815260200180613933609c913960a00191505060405180910390fd5b6111cf612a08565b1515611269576040517f08c379a000000000000000000000000000000000000000000000000000000000815260040180806020018281038252603c8152602001807f546869732066756e6374696f6e206973206f6e6c7920617661696c61626c652081526020017f746f20746865206f776e6572206f662074686520636f6e74726163740000000081525060400191505060405180910390fd5b600460008273ffffffffffffffffffffffffffffffffffffffff1673ffffffffffffffffffffffffffffffffffffffff16815260200190815260200160002060006101000a81549060ff02191690557f86f2a87e57b786e440244b5c31f13c4f7bda9b857bdfd1c8218ecdfb029f4c0f81604051808273ffffffffffffffffffffffffffffffffffffffff1673ffffffffffffffffffffffffffffffffffffffff16815260200191505060405180910390a150565b600360009054906101000a900460ff16151515611386576040517f08c379a000000000000000000000000000000000000000000000000000000000815260040180806020018281038252609c815260200180613933609c913960a00191505060405180910390fd5b600560003373ffffffffffffffffffffffffffffffffffffffff1673ffffffffffffffffffffffffffffffffffffffff16815260200190815260200160002060009054906101000a900460ff1680151561146e576040517f08c379a000000000000000000000000000000000000000000000000000000000815260040180806020018281038252602f8152602001807f546869732066756e6374696f6e206973206f6e6c7920617661696c61626c652081526020017f746f2073746f7265206f776e657273000000000000000000000000000000000081525060400191505060405180910390fd5b61147b6001546001613535565b6001819055508160066000600154815260200190815260200160002060000190805190602001906114ad929190613845565b503360066000600154815260200190815260200160002060010160006101000a81548173ffffffffffffffffffffffffffffffffffffffff021916908373ffffffffffffffffffffffffffffffffffffffff1602179055507f981bdf87b6a5937751ec714254f33c9280af322ed4c6744b1ba943aae982b606600154833360405180848152602001806020018373ffffffffffffffffffffffffffffffffffffffff1673ffffffffffffffffffffffffffffffffffffffff168152602001828103825284818151815260200191508051906020019080838360005b838110156115a3578082015181840152602081019050611588565b50505050905090810190601f1680156115d05780820380516001836020036101000a031916815260200191505b5094505050505060405180910390a15050565b600060606006600084815260200190815260200160002060010160009054906101000a900473ffffffffffffffffffffffffffffffffffffffff169150600660008481526020019081526020016000206000018054600181600116156101000203166002900480601f0160208091040260200160405190810160405280929190818152602001828054600181600116156101000203166002900480156116ca5780601f1061169f576101008083540402835291602001916116ca565b820191906000526020600020905b8154815290600101906020018083116116ad57829003601f168201915b50505050509050818191509150915091565b60056020528060005260406000206000915054906101000a900460ff1681565b600360009054906101000a900460ff16151515611764576040517f08c379a000000000000000000000000000000000000000000000000000000000815260040180806020018281038252609c815260200180613933609c913960a00191505060405180910390fd5b600560003373ffffffffffffffffffffffffffffffffffffffff1673ffffffffffffffffffffffffffffffffffffffff16815260200190815260200160002060009054906101000a900460ff1680151561184c576040517f08c379a000000000000000000000000000000000000000000000000000000000815260040180806020018281038252602f8152602001807f546869732066756e6374696f6e206973206f6e6c7920617661696c61626c652081526020017f746f2073746f7265206f776e657273000000000000000000000000000000000081525060400191505060405180910390fd5b33836006600082815260200190815260200160002060010160009054906101000a900473ffffffffffffffffffffffffffffffffffffffff1673ffffffffffffffffffffffffffffffffffffffff168273ffffffffffffffffffffffffffffffffffffffff1614151561194d576040517f08c379a000000000000000000000000000000000000000000000000000000000815260040180806020018281038252603c8152602001807f596f752063616e6e6f7420696e7465726163742077697468207468697320737481526020017f6f726520617320796f7520617265206e6f7420746865206f776e65720000000081525060400191505060405180910390fd5b856002548082111515156119ef576040517f08c379a000000000000000000000000000000000000000000000000000000000815260040180806020018281038252602c8152602001807f596f75206861766520656e746572656420612076616c7565207468617420646f81526020017f6573206e6f74206578697374000000000000000000000000000000000000000081525060400191505060405180910390fd5b856006600089815260200190815260200160002060040160008a8152602001908152602001600020600201819055507f7bb0939fa8871fdad6ab517d35a446bdf92216cfde5e600d537525e40bab2d5188888860405180848152602001838152602001828152602001935050505060405180910390a15050505050505050565b611a77612a08565b1515611b11576040517f08c379a000000000000000000000000000000000000000000000000000000000815260040180806020018281038252603c8152602001807f546869732066756e6374696f6e206973206f6e6c7920617661696c61626c652081526020017f746f20746865206f776e6572206f662074686520636f6e74726163740000000081525060400191505060405180910390fd5b600360009054906101000a900460ff161515611b2c57600080fd5b6000809054906101000a900473ffffffffffffffffffffffffffffffffffffffff1673ffffffffffffffffffffffffffffffffffffffff166108fc3073ffffffffffffffffffffffffffffffffffffffff16319081150290604051600060405180830381858888f19350505050158015611baa573d6000803e3d6000fd5b50565b60606000806006600086815260200190815260200160002060040160008581526020019081526020016000206000018054600181600116156101000203166002900480601f016020809104026020016040519081016040528092919081815260200182805460018160011615610100020316600290048015611c705780601f10611c4557610100808354040283529160200191611c70565b820191906000526020600020905b815481529060010190602001808311611c5357829003601f168201915b505050505092506006600086815260200190815260200160002060040160008581526020019081526020016000206001015491506006600086815260200190815260200160002060040160008581526020019081526020016000206002015490508282829250925092509250925092565b6000600460008373ffffffffffffffffffffffffffffffffffffffff1673ffffffffffffffffffffffffffffffffffffffff16815260200190815260200160002060009054906101000a900460ff169050809050919050565b600360009054906101000a900460ff16151515611da2576040517f08c379a000000000000000000000000000000000000000000000000000000000815260040180806020018281038252609c815260200180613933609c913960a00191505060405180910390fd5b600560003373ffffffffffffffffffffffffffffffffffffffff1673ffffffffffffffffffffffffffffffffffffffff16815260200190815260200160002060009054906101000a900460ff16801515611e8a576040517f08c379a000000000000000000000000000000000000000000000000000000000815260040180806020018281038252602f8152602001807f546869732066756e6374696f6e206973206f6e6c7920617661696c61626c652081526020017f746f2073746f7265206f776e657273000000000000000000000000000000000081525060400191505060405180910390fd5b33836006600082815260200190815260200160002060010160009054906101000a900473ffffffffffffffffffffffffffffffffffffffff1673ffffffffffffffffffffffffffffffffffffffff168273ffffffffffffffffffffffffffffffffffffffff16141515611f8b576040517f08c379a000000000000000000000000000000000000000000000000000000000815260040180806020018281038252603c8152602001807f596f752063616e6e6f7420696e7465726163742077697468207468697320737481526020017f6f726520617320796f7520617265206e6f7420746865206f776e65720000000081525060400191505060405180910390fd5b8360025480821115151561202d576040517f08c379a000000000000000000000000000000000000000000000000000000000815260040180806020018281038252602c8152602001807f596f75206861766520656e746572656420612076616c7565207468617420646f81526020017f6573206e6f74206578697374000000000000000000000000000000000000000081525060400191505060405180910390fd5b6006600088815260200190815260200160002060040160008781526020019081526020016000206000808201600061206591906138c5565b6001820160009055600282016000905550507face30996fcccb030823d885d6f416386f030076e7e650acb6b7c2ae96bf03f208787604051808381526020018281526020019250505060405180910390a150505050505050565b600360009054906101000a900460ff16151515612127576040517f08c379a000000000000000000000000000000000000000000000000000000000815260040180806020018281038252609c815260200180613933609c913960a00191505060405180910390fd5b61212f612a08565b15156121c9576040517f08c379a000000000000000000000000000000000000000000000000000000000815260040180806020018281038252603c8152602001807f546869732066756e6374696f6e206973206f6e6c7920617661696c61626c652081526020017f746f20746865206f776e6572206f662074686520636f6e74726163740000000081525060400191505060405180910390fd5b6001600460008373ffffffffffffffffffffffffffffffffffffffff1673ffffffffffffffffffffffffffffffffffffffff16815260200190815260200160002060006101000a81548160ff0219169083151502179055507fefcbb6030dbeda3448a657cc462d3fde6f3b78e2710bd7b2d9e2ab358a12e17081604051808273ffffffffffffffffffffffffffffffffffffffff1673ffffffffffffffffffffffffffffffffffffffff16815260200191505060405180910390a150565b61228f612a08565b1515612329576040517f08c379a000000000000000000000000000000000000000000000000000000000815260040180806020018281038252603c8152602001807f546869732066756e6374696f6e206973206f6e6c7920617661696c61626c652081526020017f746f20746865206f776e6572206f662074686520636f6e74726163740000000081525060400191505060405180910390fd5b600073ffffffffffffffffffffffffffffffffffffffff166000809054906101000a900473ffffffffffffffffffffffffffffffffffffffff1673ffffffffffffffffffffffffffffffffffffffff167f8be0079c531659141344cd1fd0a4f28419497f9722a3daafe3b4186f6b6457e060405160405180910390a360008060006101000a81548173ffffffffffffffffffffffffffffffffffffffff021916908373ffffffffffffffffffffffffffffffffffffffff160217905550565b600360009054906101000a900460ff1681565b612403612a08565b151561249d576040517f08c379a000000000000000000000000000000000000000000000000000000000815260040180806020018281038252603c8152602001807f546869732066756e6374696f6e206973206f6e6c7920617661696c61626c652081526020017f746f20746865206f776e6572206f662074686520636f6e74726163740000000081525060400191505060405180910390fd5b6000600360006101000a81548160ff021916908315150217905550565b60046020528060005260406000206000915054906101000a900460ff1681565b600360009054906101000a900460ff16151515612542576040517f08c379a000000000000000000000000000000000000000000000000000000000815260040180806020018281038252609c815260200180613933609c913960a00191505060405180910390fd5b600560003373ffffffffffffffffffffffffffffffffffffffff1673ffffffffffffffffffffffffffffffffffffffff16815260200190815260200160002060009054906101000a900460ff1680151561262a576040517f08c379a000000000000000000000000000000000000000000000000000000000815260040180806020018281038252602f8152602001807f546869732066756e6374696f6e206973206f6e6c7920617661696c61626c652081526020017f746f2073746f7265206f776e657273000000000000000000000000000000000081525060400191505060405180910390fd5b33826006600082815260200190815260200160002060010160009054906101000a900473ffffffffffffffffffffffffffffffffffffffff1673ffffffffffffffffffffffffffffffffffffffff168273ffffffffffffffffffffffffffffffffffffffff1614151561272b576040517f08c379a000000000000000000000000000000000000000000000000000000000815260040180806020018281038252603c8152602001807f596f752063616e6e6f7420696e7465726163742077697468207468697320737481526020017f6f726520617320796f7520617265206e6f7420746865206f776e65720000000081525060400191505060405180910390fd5b838560006006600084815260200190815260200160002060020154101515156127e2576040517f08c379a000000000000000000000000000000000000000000000000000000000815260040180806020018281038252602d8152602001807f5468652073746f72652062616c616e636520697320302e204e6f2066756e647381526020017f20746f2077697468647261772e0000000000000000000000000000000000000081525060400191505060405180910390fd5b600660008381526020019081526020016000206002015481111515156128bc576040517f08c379a00000000000000000000000000000000000000000000000000000000081526004018080602001828103825260498152602001807f596f752061726520747279696e6720746f207769746864726177206d6f72652081526020017f7468616e2074686520617661696c61626c652062616c616e636520696e20746881526020017f65206163636f756e74000000000000000000000000000000000000000000000081525060600191505060405180910390fd5b60006006600088815260200190815260200160002060010160009054906101000a900473ffffffffffffffffffffffffffffffffffffffff16905061291760066000898152602001908152602001600020600201548961360b565b60066000898152602001908152602001600020600201819055508073ffffffffffffffffffffffffffffffffffffffff166108fc899081150290604051600060405180830381858888f19350505050158015612977573d6000803e3d6000fd5b507fec55db48190f8d91ed5ad4118ee6288cfd6506c9393dbdab71fa309691a16a6c8789600660008b81526020019081526020016000206002015460405180848152602001838152602001828152602001935050505060405180910390a15050505050505050565b60008060009054906101000a900473ffffffffffffffffffffffffffffffffffffffff16905090565b60008060009054906101000a900473ffffffffffffffffffffffffffffffffffffffff1673ffffffffffffffffffffffffffffffffffffffff163373ffffffffffffffffffffffffffffffffffffffff1614905090565b612a67612a08565b1515612b01576040517f08c379a000000000000000000000000000000000000000000000000000000000815260040180806020018281038252603c8152602001807f546869732066756e6374696f6e206973206f6e6c7920617661696c61626c652081526020017f746f20746865206f776e6572206f662074686520636f6e74726163740000000081525060400191505060405180910390fd5b6001600360006101000a81548160ff021916908315150217905550565b600360009054906101000a900460ff16151515612b86576040517f08c379a000000000000000000000000000000000000000000000000000000000815260040180806020018281038252609c815260200180613933609c913960a00191505060405180910390fd5b600460003373ffffffffffffffffffffffffffffffffffffffff1673ffffffffffffffffffffffffffffffffffffffff16815260200190815260200160002060009054906101000a900460ff16801515612c6e576040517f08c379a00000000000000000000000000000000000000000000000000000000081526004018080602001828103825260318152602001807f546869732066756e6374696f6e206973206f6e6c7920617661696c61626c652081526020017f746f2061646d696e6973747261746f727300000000000000000000000000000081525060400191505060405180910390fd5b6001600560008473ffffffffffffffffffffffffffffffffffffffff1673ffffffffffffffffffffffffffffffffffffffff16815260200190815260200160002060006101000a81548160ff0219169083151502179055507fc48be1259827f286158037425eac2071e5a2ce505bf01d53384e77fa0ef60da282604051808273ffffffffffffffffffffffffffffffffffffffff1673ffffffffffffffffffffffffffffffffffffffff16815260200191505060405180910390a15050565b60015481565b600060066000838152602001908152602001600020600301549050919050565b600360009054906101000a900460ff16151515612dbb576040517f08c379a000000000000000000000000000000000000000000000000000000000815260040180806020018281038252609c815260200180613933609c913960a00191505060405180910390fd5b600560003373ffffffffffffffffffffffffffffffffffffffff1673ffffffffffffffffffffffffffffffffffffffff16815260200190815260200160002060009054906101000a900460ff16801515612ea3576040517f08c379a000000000000000000000000000000000000000000000000000000000815260040180806020018281038252602f8152602001807f546869732066756e6374696f6e206973206f6e6c7920617661696c61626c652081526020017f746f2073746f7265206f776e657273000000000000000000000000000000000081525060400191505060405180910390fd5b33826006600082815260200190815260200160002060010160009054906101000a900473ffffffffffffffffffffffffffffffffffffffff1673ffffffffffffffffffffffffffffffffffffffff168273ffffffffffffffffffffffffffffffffffffffff16141515612fa4576040517f08c379a000000000000000000000000000000000000000000000000000000000815260040180806020018281038252603c8152602001807f596f752063616e6e6f7420696e7465726163742077697468207468697320737481526020017f6f726520617320796f7520617265206e6f7420746865206f776e65720000000081525060400191505060405180910390fd5b612fb16002546001613535565b6002819055508660066000868152602001908152602001600020600401600060025481526020019081526020016000206000019080519060200190612ff7929190613845565b50856006600086815260200190815260200160002060040160006002548152602001908152602001600020600101819055508460066000868152602001908152602001600020600401600060025481526020019081526020016000206002018190555060025460066000868152602001908152602001600020600301819055507f8526f2be0525916490c710d1117ba1e2b14068a050370500edc332329e0f0e9b600254858989896040518086815260200185815260200180602001848152602001838152602001828103825285818151815260200191508051906020019080838360005b838110156130f75780820151818401526020810190506130dc565b50505050905090810190601f1680156131245780820380516001836020036101000a031916815260200191505b50965050505050505060405180910390a150505050505050565b600360009054906101000a900460ff161515156131a6576040517f08c379a000000000000000000000000000000000000000000000000000000000815260040180806020018281038252609c815260200180613933609c913960a00191505060405180910390fd5b600460003373ffffffffffffffffffffffffffffffffffffffff1673ffffffffffffffffffffffffffffffffffffffff16815260200190815260200160002060009054906101000a900460ff1680151561328e576040517f08c379a00000000000000000000000000000000000000000000000000000000081526004018080602001828103825260318152602001807f546869732066756e6374696f6e206973206f6e6c7920617661696c61626c652081526020017f746f2061646d696e6973747261746f727300000000000000000000000000000081525060400191505060405180910390fd5b600560008373ffffffffffffffffffffffffffffffffffffffff1673ffffffffffffffffffffffffffffffffffffffff16815260200190815260200160002060006101000a81549060ff02191690557fd89cae1cc248e953c8ad4c040cf8353ec442f065045d82884af21e15a979afc582604051808273ffffffffffffffffffffffffffffffffffffffff1673ffffffffffffffffffffffffffffffffffffffff16815260200191505060405180910390a15050565b600060066000848152602001908152602001600020600401600083815260200190815260200160002060010154905080905092915050565b613384612a08565b151561341e576040517f08c379a000000000000000000000000000000000000000000000000000000000815260040180806020018281038252603c8152602001807f546869732066756e6374696f6e206973206f6e6c7920617661696c61626c652081526020017f746f20746865206f776e6572206f662074686520636f6e74726163740000000081525060400191505060405180910390fd5b613427816136e2565b50565b600060066000838152602001908152602001600020600201549050809050919050565b6006602052806000526040600020600091509050806000018054600181600116156101000203166002900480601f0160208091040260200160405190810160405280929190818152602001828054600181600116156101000203166002900480156134f95780601f106134ce576101008083540402835291602001916134f9565b820191906000526020600020905b8154815290600101906020018083116134dc57829003601f168201915b5050505050908060010160009054906101000a900473ffffffffffffffffffffffffffffffffffffffff16908060020154908060030154905084565b6000808284019050838110151515613601576040517f08c379a00000000000000000000000000000000000000000000000000000000081526004018080602001828103825260538152602001807f617661696c61626c652073746f726549442773202f20736b752773206f76657281526020017f666c6f776e2e20436f6e73696465722072657573696e6720766f6964206f722081526020017f616c7068616e756d657269632076616c7565730000000000000000000000000081525060600191505060405180910390fd5b8091505092915050565b60008282111515156136d1576040517f08c379a000000000000000000000000000000000000000000000000000000000815260040180806020018281038252604f8152602001807f4572726f722e20596f752061726520747279696e6720746f207769746864726181526020017f77206d6f72652066756e6473207468616e2061726520617661696c61626c652081526020017f696e20746865206163636f756e742e000000000000000000000000000000000081525060600191505060405180910390fd5b600082840390508091505092915050565b600073ffffffffffffffffffffffffffffffffffffffff168173ffffffffffffffffffffffffffffffffffffffff1614151515613787576040517f08c379a00000000000000000000000000000000000000000000000000000000081526004018080602001828103825260178152602001807f6e6577206f776e65722063616e6e6f742062652030783000000000000000000081525060200191505060405180910390fd5b8073ffffffffffffffffffffffffffffffffffffffff166000809054906101000a900473ffffffffffffffffffffffffffffffffffffffff1673ffffffffffffffffffffffffffffffffffffffff167f8be0079c531659141344cd1fd0a4f28419497f9722a3daafe3b4186f6b6457e060405160405180910390a3806000806101000a81548173ffffffffffffffffffffffffffffffffffffffff021916908373ffffffffffffffffffffffffffffffffffffffff16021790555050565b828054600181600116156101000203166002900490600052602060002090601f016020900481019282601f1061388657805160ff19168380011785556138b4565b828001600101855582156138b4579182015b828111156138b3578251825591602001919060010190613898565b5b5090506138c1919061390d565b5090565b50805460018160011615610100020316600290046000825580601f106138eb575061390a565b601f016020900490600052602060002090810190613909919061390d565b5b50565b61392f91905b8082111561392b576000816000905550600101613913565b5090565b9056fe546f2070726f7465637420796f75722066756e64732c20746865206d61726b6574706c61636520686173206265656e20706c61636564206f6e20656d657267656e63792073687574646f776e2062792074686520636f6e7472616374206f776e65722064756520746f206120706f74656e7469616c207468726561742e20506c65617365207761697420666f722066757274686572206e6f74696365a165627a7a723058205980a9d3cfb6630d87949ad683d217c8191b2c74efbccb72f26275ee55f0e76f0029",
  "source": "/*\nQuestions:\nImplement Eth/USD price\n*/\n\npragma solidity 0.5.0;\n\n/** @title Decentralised Online Marketplace\n  * @author Kreaan Singh\n  * @notice Final project Consensys Developers Course 2019\n*/\n\nimport \"./Ownable.sol\";\nimport \"./SafeMath.sol\";\n\ncontract MarketPlace is Ownable {\n    /** @dev Solidity-based smart contract to create a decentralised marketplace for shop owners to create storefronts and sell products\n    */\n\n    uint public storeCount = 0;\n    uint public skuCount = 0;\n    bool public stopped = false;\n\n    struct ItemForSale {\n        string name;\n        uint quantity;\n        uint price;\n    }\n\n    struct StoreFronts {\n        string storeName;\n        address payable storeOwner;\n        uint pendingWithdrawal;\n        uint latestSkuNoInStore;\n        mapping(uint => ItemForSale) sku;\n    }\n\n    mapping(address => bool) public adminsDB;\n    mapping(address => bool) public storeOwnersDB;\n    mapping(uint => StoreFronts) public storeFront;\n\n\n\n    //Events\n    event adminAdded(address _admin);\n    event adminDeleted(address _admin);\n    event storeOwnerAdded(address _storeOwner);\n    event storeOwnerDeleted(address _storeOwner);\n    event storeFrontCreated(uint _storeID, string _storeName, address _storeOwner);\n    event itemToSellAdded(uint _sku, uint _storeID, string _nameOfItem, uint _quantity, uint _price);\n    event itemPriceUpdated(uint _sku, uint _storeID, uint _newPrice);\n    event itemForSaleDeleted(uint _storeID, uint _skuCode);\n    event salesWithdrawn(uint _storeID, uint _payment, uint _storeSalesBalance);\n    event refund(uint _refund);\n    event itemBought(string _name, uint _skuCode, uint _quantity, uint _storeID, uint _price);\n\n\n\n    //Modifiers\n\n    modifier checkAdmin(bool _exists) {\n        require(_exists, \"This function is only available to administrators\");\n        _;\n    }\n\n    modifier checkStoreOwner(bool _exists) {\n        require(_exists, \"This function is only available to store owners\");\n        _;\n    }\n\n    modifier checkOwnerOfStore(address _storeOwner, uint _storeID) {\n        require (_storeOwner == storeFront[_storeID].storeOwner, \"You cannot interact with this store as you are not the owner\");\n        _;\n    }\n\n    modifier checkQuantity(uint _quantity, uint _storeID, uint _skuCode) {\n        require(_quantity <= storeFront[_storeID].sku[_skuCode].quantity, \"You are trying to purchase more items than are available\");\n        _;\n    }\n\n    modifier paidEnough(uint _quantity, uint _price) {\n        require(msg.value >= _price*_quantity, \"You have not tendered the incorrect amount.\");\n        _;\n    }\n\n    modifier checkValue(uint _quantity, uint _price) {\n        _;\n        uint amountToRefund = msg.value - _price*_quantity;\n        msg.sender.transfer(amountToRefund);\n        emit refund(amountToRefund);\n    }\n\n    modifier checkStoreBalance(uint _storeID, uint _withdrawAmount) {\n        require(storeFront[_storeID].pendingWithdrawal >= 0, \"The store balance is 0. No funds to withdraw.\");\n        require(_withdrawAmount <= storeFront[_storeID].pendingWithdrawal, \"You are trying to withdraw more than the available balance in the account\");\n        _;\n    }\n\n    modifier checkInt(uint _valueToCheck, uint _checkAgainst) {\n        require(_valueToCheck <= _checkAgainst, \"You have entered a value that does not exist\");\n        _;\n    }\n\n    modifier stopInEmergency {\n        require(!stopped, \"To protect your funds, the marketplace has been placed on emergency shutdown by the contract owner due to a potential threat. Please wait for further notice\");\n        _;\n    }\n\n    modifier onlyInEmergency {\n        require(stopped);\n        _;\n    }\n\n\n\n    /** @notice Contract owner functions\n     */\n\n\n    /** @dev Contract owner assigns administrator rights to an ethereum account\n      * @param _admin ethereum address\n     */\n    function addAdmin(address _admin) \n        public\n        stopInEmergency()\n        onlyOwner() \n    {\n            adminsDB[_admin] = true;\n            emit adminAdded(_admin);\n    }\n\n\n    /** @dev Contract owner revokes administrator rights from an ethereum account\n      * @param _admin ethereum address\n     */\n    function deleteAdmin(address _admin) \n        public\n        stopInEmergency()\n        onlyOwner() \n    {\n            delete adminsDB[_admin];\n            emit adminDeleted(_admin);\n    }\n\n    /** @dev Contract owner activates emergency stop - disables all contract functionality\n     */\n    function activateEmergencyStop()\n        public\n        onlyOwner()\n    {\n            stopped = true;\n    }\n\n    /** @dev Contract owner deactivates emergency stop - enables all contract functionality\n     */\n    function deActivateEmergencyStop()\n        public\n        onlyOwner()\n    {\n            stopped = false;\n    }\n\n    /** @dev Contract owner withdraws all funds of contract in an emergency situation\n     */\n    function withdrawAllFunds()\n        public\n        onlyOwner()\n        onlyInEmergency() \n    {\n            _owner.transfer(address(this).balance);\n    }\n\n\n\n    /** @notice Administrator functions\n     */\n\n    \n    /** @dev Administrator assigns store owner rights to an ethereum account\n      * @param _newStoreOwner ethereum address\n     */\n    function addStoreOwner(address _newStoreOwner) \n        public\n        stopInEmergency()\n        checkAdmin(adminsDB[msg.sender])\n    {\n            storeOwnersDB[_newStoreOwner] = true;\n            emit storeOwnerAdded(_newStoreOwner);\n    }\n\n    /** @dev Administrator revokes store owner rights from an ethereum account\n      * @param _deleteStoreOwner ethereum address\n     */\n    function deleteStoreOwner(address _deleteStoreOwner) \n        public\n        stopInEmergency()\n        checkAdmin(adminsDB[msg.sender]) \n    {\n            delete storeOwnersDB[_deleteStoreOwner];\n            emit storeOwnerDeleted(_deleteStoreOwner);\n    }\n\n\n\n    /** @notice Store owner functions\n     */\n\n    \n    /** @dev Store owner creates a new storefront\n      * @param _storeName The display name of the store to create\n      * @notice storeOwner Associates the store and the owner\n      * @notice storeID Generates a unique ID for the newly added store\n     */\n    function createStoreFront(string memory _storeName) \n        public\n        stopInEmergency()\n        checkStoreOwner(storeOwnersDB[msg.sender]) \n    {\n            storeCount = SafeMath.add(storeCount, 1);\n            storeFront[storeCount].storeName = _storeName;\n            storeFront[storeCount].storeOwner = msg.sender;\n            emit storeFrontCreated(storeCount, _storeName, msg.sender);\n    }\n\n    /** @dev Store owner adds a new item to a particular store that he/she owns\n      * @param _nameOfItem The display name of the item to be added\n      * @param _quantity The quantity of the item that is to be added\n      * @param _price The price per unit of the item to be added\n      * @param _storeID The unique ID of the store to which the item will be added. The store ID is generated upon store creation\n      * @notice skuCount Generates a unique ID assigned to a newly created item\n     */\n    function addItem(string memory _nameOfItem, uint _quantity, uint _price, uint _storeID) \n        public\n        stopInEmergency()\n        checkStoreOwner(storeOwnersDB[msg.sender])\n        checkOwnerOfStore(msg.sender, _storeID)\n    {\n            skuCount = SafeMath.add(skuCount, 1);\n            storeFront[_storeID].sku[skuCount].name = _nameOfItem;\n            storeFront[_storeID].sku[skuCount].quantity = _quantity;\n            storeFront[_storeID].sku[skuCount].price = _price;\n            storeFront[_storeID].latestSkuNoInStore = skuCount;\n            \n            emit itemToSellAdded(skuCount, _storeID, _nameOfItem, _quantity, _price);\n    }\n\n    /** @dev Store owner changes the price of an already existing item in a particular store that he/she owns\n      * @param _skuCode The unique ID belonging to that particular item\n      * @param _storeID The unique ID of the store that the item exists in\n      * @param _newPrice The new price of the item\n     */\n    function changePrice(uint _skuCode, uint _storeID, uint _newPrice) \n        public\n        stopInEmergency()\n        checkStoreOwner(storeOwnersDB[msg.sender])\n        checkOwnerOfStore(msg.sender, _storeID)\n        checkInt(_skuCode, skuCount)\n    {\n            storeFront[_storeID].sku[_skuCode].price = _newPrice;\n            emit itemPriceUpdated(_skuCode, _storeID, _newPrice);\n    }\n\n    /** @dev Store owner deletes an item from a particular store that he/she owns\n      * @param _skuCode The unique ID belonging to that particular item\n      * @param _storeID The unique ID of the store that the item exists in\n     */\n    function deleteItem(uint _storeID, uint _skuCode)\n        public\n        stopInEmergency()\n        checkStoreOwner(storeOwnersDB[msg.sender])\n        checkOwnerOfStore(msg.sender, _storeID)\n        checkInt(_skuCode, skuCount)\n    {\n            delete storeFront[_storeID].sku[_skuCode];\n            emit itemForSaleDeleted(_storeID, _skuCode);\n    }\n\n    /** @dev Store owner withdraws the revenue generated from sales in a particular store\n      * @param _withdrawAmount The amount to withdraw. Can withdraw the full balance or a particular amount, to refund customers for returns for eg\n      * @param _storeID The unique ID of the store to withdraw from\n     */\n    function withdrawSales(uint _withdrawAmount, uint _storeID) \n        public\n        stopInEmergency()\n        checkStoreOwner(storeOwnersDB[msg.sender])\n        checkOwnerOfStore(msg.sender, _storeID)\n        checkStoreBalance(_storeID, _withdrawAmount)\n    {\n            address payable storeOwnerAddress = storeFront[_storeID].storeOwner;\n            storeFront[_storeID].pendingWithdrawal = SafeMath.sub(storeFront[_storeID].pendingWithdrawal, _withdrawAmount); //Preventing reentrancy\n            storeOwnerAddress.transfer(_withdrawAmount);\n            emit salesWithdrawn(_storeID, _withdrawAmount, storeFront[_storeID].pendingWithdrawal);\n    }\n\n\n\n    /** @notice Shopper functions\n     */\n    \n\n    /** @dev Shopper logs in, browses stores, selects a store, and can purchase an item from the chosen store\n      * @param _quantity The number of units of a chosen item to purchase\n      * @param _skuCode The unique ID of the item to purchase\n      * @param _storeID The unique ID of the store to purchase from (not shown on the UI as by this point, they would already be within the store i.e. store ID is known)\n      * @notice Payable payment for the purchase\n     */\n    function buyItem(uint _quantity, uint _skuCode, uint _storeID) \n        public\n        payable\n        stopInEmergency()\n        checkQuantity(_quantity, _storeID, _skuCode)\n        paidEnough(_quantity, storeFront[_storeID].sku[_skuCode].price)\n        checkValue(_quantity, storeFront[_storeID].sku[_skuCode].price)\n\n    {\n            storeFront[_storeID].sku[_skuCode].quantity -= _quantity;\n            storeFront[_storeID].pendingWithdrawal += (storeFront[_storeID].sku[_skuCode].price*_quantity);\n            emit itemBought(storeFront[_storeID].sku[_skuCode].name, _skuCode, _quantity, _storeID, storeFront[_storeID].sku[_skuCode].price);\n    }\n\n\n\n    /** @notice Getters\n     */\n\n    /** @dev Gets the latest sku ID, used as the end parameter of a js loop to display the shop items on the UI\n      * @param _storeID The unique ID of the store to display the items of\n      * @return latestSkuNoInStore The latest item ID added to the store\n     */\n    function getLatestSKU(uint _storeID) \n        public\n        view\n        returns (uint)\n    {\n        return storeFront[_storeID].latestSkuNoInStore;\n    }\n\n    /** @dev Gets the details of each item in a shop to display on the UI\n      * @param _storeID The unique ID of the store to display the items of\n      * @param _sku The unique ID of each item in a particular store\n      * @return itemName The name of the item to display\n      * @return itemQuantity The number of units of a particular item available in the store\n      * @return itemPrice The price per unit of item available to purchase\n     */\n    function getItemInShop(uint _storeID, uint _sku)\n        public\n        view\n        returns (string memory itemName, uint itemQuantity, uint itemPrice)\n    {\n            itemName = storeFront[_storeID].sku[_sku].name;\n            itemQuantity = storeFront[_storeID].sku[_sku].quantity;\n            itemPrice = storeFront[_storeID].sku[_sku].price;\n            return (itemName, itemQuantity, itemPrice);\n    }\n\n    /** @notice Test getters\n      * @dev Fetches the existence of an admin\n      * @param _isAdmin The address of account to check the admin status of\n      * @return The status of the account => admin or not admin\n     */\n    function fetchAdmin(address _isAdmin) \n        public\n        view\n        returns (bool newAdminExists)\n    {\n            newAdminExists = adminsDB[_isAdmin];\n            return newAdminExists;\n    }\n\n    /** @dev Fetches the existence of a store owner\n      * @param _isStoreOwner The address of account to check the store owner status of\n      * @return The status of the account => store owner or not store owner\n     */\n    function fetchStoreOwner(address _isStoreOwner)\n        public\n        view\n        returns (bool newStoreOwner)\n    {\n            newStoreOwner = storeOwnersDB[_isStoreOwner];\n            return newStoreOwner;\n    }\n\n    /** @dev Fetch function used for testing to check that a store was added correctly\n      * @param _storeID The store ID for which to check the store owner and store name of\n      * @return newStoreOwnerAddress The address of account to confirm ownership against\n      * @return storeNameAdded The name of the store to confirm creation of\n     */\n    function fetchStoreID(uint _storeID)\n        public\n        view\n        returns (address newStoreOwnerAddress, string memory storeNameAdded)\n    {\n            newStoreOwnerAddress = storeFront[_storeID].storeOwner;\n            storeNameAdded = storeFront[_storeID].storeName;\n            return (newStoreOwnerAddress, storeNameAdded);\n    }\n\n    /** @dev Checks that an item quantity has been reduced after a purchase\n      * @param _currentStoreID The store ID to retrieve information from\n      * @param _currentSKU The item ID to retrieve information about\n      * @return quantity The balance of items left in the shop\n     */\n    function isItemBought(uint _currentStoreID, uint _currentSKU)\n        public\n        view\n        returns (uint newQuantity)\n    {\n            return newQuantity = storeFront[_currentStoreID].sku[_currentSKU].quantity;\n    }\n\n    /** @dev Checks the balance of the store after sales have been made\n      * @param _storeID The store ID for which to check the balance of\n      * @return storeBalance The current balance of the store\n     */\n    function fetchStoreBalance (uint _storeID)\n        public\n        view\n        returns (uint storeBalance)\n    {\n            storeBalance = storeFront[_storeID].pendingWithdrawal;\n            return storeBalance;\n    }\n}",
  "sourcePath": "/home/modofu/final-project-SuperSuperSingh/contracts/MarketPlace.sol",
  "compiler": {
    "name": "solc",
    "version": "0.5.0+commit.1d4f565a.Emscripten.clang"
  },
  "schemaVersion": "3.0.1",
  "updatedAt": "2019-01-24T09:20:47.300Z",
  "devdoc": {
    "methods": {
      "activateEmergencyStop()": {
        "details": "Contract owner activates emergency stop - disables all contract functionality"
      },
      "addAdmin(address)": {
        "details": "Contract owner assigns administrator rights to an ethereum account",
        "params": {
          "_admin": "ethereum address"
        }
      },
      "addItem(string,uint256,uint256,uint256)": {
        "details": "Store owner adds a new item to a particular store that he/she owns",
        "params": {
          "_nameOfItem": "The display name of the item to be added",
          "_price": "The price per unit of the item to be added",
          "_quantity": "The quantity of the item that is to be added",
          "_storeID": "The unique ID of the store to which the item will be added. The store ID is generated upon store creation"
        }
      },
      "addStoreOwner(address)": {
        "details": "Administrator assigns store owner rights to an ethereum account",
        "params": {
          "_newStoreOwner": "ethereum address"
        }
      },
      "buyItem(uint256,uint256,uint256)": {
        "details": "Shopper logs in, browses stores, selects a store, and can purchase an item from the chosen store",
        "params": {
          "_quantity": "The number of units of a chosen item to purchase",
          "_skuCode": "The unique ID of the item to purchase",
          "_storeID": "The unique ID of the store to purchase from (not shown on the UI as by this point, they would already be within the store i.e. store ID is known)"
        }
      },
      "changePrice(uint256,uint256,uint256)": {
        "details": "Store owner changes the price of an already existing item in a particular store that he/she owns",
        "params": {
          "_newPrice": "The new price of the item",
          "_skuCode": "The unique ID belonging to that particular item",
          "_storeID": "The unique ID of the store that the item exists in"
        }
      },
      "createStoreFront(string)": {
        "details": "Store owner creates a new storefront",
        "params": {
          "_storeName": "The display name of the store to create"
        }
      },
      "deActivateEmergencyStop()": {
        "details": "Contract owner deactivates emergency stop - enables all contract functionality"
      },
      "deleteAdmin(address)": {
        "details": "Contract owner revokes administrator rights from an ethereum account",
        "params": {
          "_admin": "ethereum address"
        }
      },
      "deleteItem(uint256,uint256)": {
        "details": "Store owner deletes an item from a particular store that he/she owns",
        "params": {
          "_skuCode": "The unique ID belonging to that particular item",
          "_storeID": "The unique ID of the store that the item exists in"
        }
      },
      "deleteStoreOwner(address)": {
        "details": "Administrator revokes store owner rights from an ethereum account",
        "params": {
          "_deleteStoreOwner": "ethereum address"
        }
      },
      "fetchAdmin(address)": {
        "details": "Fetches the existence of an admin",
        "params": {
          "_isAdmin": "The address of account to check the admin status of"
        },
        "return": "The status of the account => admin or not admin"
      },
      "fetchStoreBalance(uint256)": {
        "details": "Checks the balance of the store after sales have been made",
        "params": {
          "_storeID": "The store ID for which to check the balance of"
        },
        "return": "storeBalance The current balance of the store"
      },
      "fetchStoreID(uint256)": {
        "details": "Fetch function used for testing to check that a store was added correctly",
        "params": {
          "_storeID": "The store ID for which to check the store owner and store name of"
        },
        "return": "newStoreOwnerAddress The address of account to confirm ownership againststoreNameAdded The name of the store to confirm creation of"
      },
      "fetchStoreOwner(address)": {
        "details": "Fetches the existence of a store owner",
        "params": {
          "_isStoreOwner": "The address of account to check the store owner status of"
        },
        "return": "The status of the account => store owner or not store owner"
      },
      "getItemInShop(uint256,uint256)": {
        "details": "Gets the details of each item in a shop to display on the UI",
        "params": {
          "_sku": "The unique ID of each item in a particular store",
          "_storeID": "The unique ID of the store to display the items of"
        },
        "return": "itemName The name of the item to displayitemQuantity The number of units of a particular item available in the storeitemPrice The price per unit of item available to purchase"
      },
      "getLatestSKU(uint256)": {
        "details": "Gets the latest sku ID, used as the end parameter of a js loop to display the shop items on the UI",
        "params": {
          "_storeID": "The unique ID of the store to display the items of"
        },
        "return": "latestSkuNoInStore The latest item ID added to the store"
      },
      "isItemBought(uint256,uint256)": {
        "details": "Checks that an item quantity has been reduced after a purchase",
        "params": {
          "_currentSKU": "The item ID to retrieve information about",
          "_currentStoreID": "The store ID to retrieve information from"
        },
        "return": "quantity The balance of items left in the shop"
      },
      "isOwner()": {
        "return": "true if `msg.sender` is the owner of the contract."
      },
      "owner()": {
        "return": "the address of the owner."
      },
      "renounceOwnership()": {
        "details": "Allows the current owner to relinquish control of the contract."
      },
      "transferOwnership(address)": {
        "details": "Allows the current owner to transfer control of the contract to a newOwner.",
        "params": {
          "newOwner": "The address to transfer ownership to."
        }
      },
      "withdrawAllFunds()": {
        "details": "Contract owner withdraws all funds of contract in an emergency situation"
      },
      "withdrawSales(uint256,uint256)": {
        "details": "Store owner withdraws the revenue generated from sales in a particular store",
        "params": {
          "_storeID": "The unique ID of the store to withdraw from",
          "_withdrawAmount": "The amount to withdraw. Can withdraw the full balance or a particular amount, to refund customers for returns for eg"
        }
      }
    }
  },
  "userdoc": {
    "methods": {
      "addItem(string,uint256,uint256,uint256)": {
        "notice": "skuCount Generates a unique ID assigned to a newly created item"
      },
      "buyItem(uint256,uint256,uint256)": {
        "notice": "Payable payment for the purchase"
      },
      "createStoreFront(string)": {
        "notice": "storeOwner Associates the store and the ownerstoreID Generates a unique ID for the newly added store"
      },
      "fetchAdmin(address)": {
        "notice": "Test getters"
      },
      "renounceOwnership()": {
        "notice": "Renouncing to ownership will leave the contract without an owner. It will not be possible to call the functions with the `onlyOwner` modifier anymore."
      }
    }
  }
}