{
  "contractName": "MarketPlace",
  "abi": [
    {
      "constant": true,
      "inputs": [],
      "name": "skuCount",
      "outputs": [
        {
          "name": "",
          "type": "uint256"
        }
      ],
      "payable": false,
      "stateMutability": "view",
      "type": "function",
      "signature": "0x22702473"
    },
    {
      "constant": true,
      "inputs": [
        {
          "name": "",
          "type": "address"
        }
      ],
      "name": "storeOwnersDB",
      "outputs": [
        {
          "name": "exists",
          "type": "bool"
        }
      ],
      "payable": false,
      "stateMutability": "view",
      "type": "function",
      "signature": "0x3b78f63e"
    },
    {
      "constant": false,
      "inputs": [],
      "name": "renounceOwnership",
      "outputs": [],
      "payable": false,
      "stateMutability": "nonpayable",
      "type": "function",
      "signature": "0x715018a6"
    },
    {
      "constant": true,
      "inputs": [
        {
          "name": "",
          "type": "address"
        }
      ],
      "name": "adminsDB",
      "outputs": [
        {
          "name": "",
          "type": "bool"
        }
      ],
      "payable": false,
      "stateMutability": "view",
      "type": "function",
      "signature": "0x8b631991"
    },
    {
      "constant": true,
      "inputs": [],
      "name": "owner",
      "outputs": [
        {
          "name": "",
          "type": "address"
        }
      ],
      "payable": false,
      "stateMutability": "view",
      "type": "function",
      "signature": "0x8da5cb5b"
    },
    {
      "constant": true,
      "inputs": [],
      "name": "isOwner",
      "outputs": [
        {
          "name": "",
          "type": "bool"
        }
      ],
      "payable": false,
      "stateMutability": "view",
      "type": "function",
      "signature": "0x8f32d59b"
    },
    {
      "constant": true,
      "inputs": [],
      "name": "storeCount",
      "outputs": [
        {
          "name": "",
          "type": "uint256"
        }
      ],
      "payable": false,
      "stateMutability": "view",
      "type": "function",
      "signature": "0xa1b141d4"
    },
    {
      "constant": false,
      "inputs": [
        {
          "name": "newOwner",
          "type": "address"
        }
      ],
      "name": "transferOwnership",
      "outputs": [],
      "payable": false,
      "stateMutability": "nonpayable",
      "type": "function",
      "signature": "0xf2fde38b"
    },
    {
      "constant": true,
      "inputs": [
        {
          "name": "",
          "type": "uint256"
        }
      ],
      "name": "storeFront",
      "outputs": [
        {
          "name": "storeName",
          "type": "string"
        },
        {
          "name": "storeOwner",
          "type": "address"
        },
        {
          "name": "pendingWithdrawal",
          "type": "uint256"
        },
        {
          "name": "latestSkuNoInStore",
          "type": "uint256"
        }
      ],
      "payable": false,
      "stateMutability": "view",
      "type": "function",
      "signature": "0xfd5e943a"
    },
    {
      "anonymous": false,
      "inputs": [
        {
          "indexed": false,
          "name": "_admin",
          "type": "address"
        }
      ],
      "name": "adminAdded",
      "type": "event",
      "signature": "0xefcbb6030dbeda3448a657cc462d3fde6f3b78e2710bd7b2d9e2ab358a12e170"
    },
    {
      "anonymous": false,
      "inputs": [
        {
          "indexed": false,
          "name": "_admin",
          "type": "address"
        }
      ],
      "name": "adminDeleted",
      "type": "event",
      "signature": "0x86f2a87e57b786e440244b5c31f13c4f7bda9b857bdfd1c8218ecdfb029f4c0f"
    },
    {
      "anonymous": false,
      "inputs": [
        {
          "indexed": false,
          "name": "_storeOwner",
          "type": "address"
        }
      ],
      "name": "storeOwnerAdded",
      "type": "event",
      "signature": "0xc48be1259827f286158037425eac2071e5a2ce505bf01d53384e77fa0ef60da2"
    },
    {
      "anonymous": false,
      "inputs": [
        {
          "indexed": false,
          "name": "_storeOwner",
          "type": "address"
        }
      ],
      "name": "storeOwnerDeleted",
      "type": "event",
      "signature": "0xd89cae1cc248e953c8ad4c040cf8353ec442f065045d82884af21e15a979afc5"
    },
    {
      "anonymous": false,
      "inputs": [
        {
          "indexed": false,
          "name": "_storeID",
          "type": "uint256"
        },
        {
          "indexed": false,
          "name": "_storeName",
          "type": "string"
        },
        {
          "indexed": false,
          "name": "_storeOwner",
          "type": "address"
        },
        {
          "indexed": false,
          "name": "_storesInStoreOwner",
          "type": "uint256[]"
        }
      ],
      "name": "storeFrontCreated",
      "type": "event",
      "signature": "0x91dad1160e0a1a5d306cf9fea3b2ae2e13cd30e7a941e91c28c35dc41710aed2"
    },
    {
      "anonymous": false,
      "inputs": [
        {
          "indexed": false,
          "name": "_sku",
          "type": "uint256"
        },
        {
          "indexed": false,
          "name": "_storeID",
          "type": "uint256"
        },
        {
          "indexed": false,
          "name": "_nameOfItem",
          "type": "string"
        },
        {
          "indexed": false,
          "name": "_quantity",
          "type": "uint256"
        },
        {
          "indexed": false,
          "name": "_price",
          "type": "uint256"
        },
        {
          "indexed": false,
          "name": "_skusInStore",
          "type": "uint256[]"
        }
      ],
      "name": "itemToSellAdded",
      "type": "event",
      "signature": "0xf7d91293721d0f8995b93ce4588704fe6cec39eddd45c258a22162ba552f62a3"
    },
    {
      "anonymous": false,
      "inputs": [
        {
          "indexed": false,
          "name": "_sku",
          "type": "uint256"
        },
        {
          "indexed": false,
          "name": "_storeID",
          "type": "uint256"
        },
        {
          "indexed": false,
          "name": "_newPrice",
          "type": "uint256"
        }
      ],
      "name": "itemPriceUpdated",
      "type": "event",
      "signature": "0x7bb0939fa8871fdad6ab517d35a446bdf92216cfde5e600d537525e40bab2d51"
    },
    {
      "anonymous": false,
      "inputs": [
        {
          "indexed": false,
          "name": "_storeID",
          "type": "uint256"
        },
        {
          "indexed": false,
          "name": "_skuCode",
          "type": "uint256"
        },
        {
          "indexed": false,
          "name": "_skusInStore",
          "type": "uint256[]"
        }
      ],
      "name": "itemForSaleDeleted",
      "type": "event",
      "signature": "0x07e3211e133eb160ac13057b9e7e7dce433ffee3770952424ef46c488c839ea2"
    },
    {
      "anonymous": false,
      "inputs": [
        {
          "indexed": false,
          "name": "_storeID",
          "type": "uint256"
        },
        {
          "indexed": false,
          "name": "_payment",
          "type": "uint256"
        },
        {
          "indexed": false,
          "name": "_storeSalesBalance",
          "type": "uint256"
        }
      ],
      "name": "salesWithdrawn",
      "type": "event",
      "signature": "0xec55db48190f8d91ed5ad4118ee6288cfd6506c9393dbdab71fa309691a16a6c"
    },
    {
      "anonymous": false,
      "inputs": [
        {
          "indexed": false,
          "name": "_refund",
          "type": "uint256"
        }
      ],
      "name": "refund",
      "type": "event",
      "signature": "0x278ecde10404a9f1d9088d6512ddd16581968e0a41c5416fce08986e7207bbe4"
    },
    {
      "anonymous": false,
      "inputs": [
        {
          "indexed": false,
          "name": "_skuCode",
          "type": "uint256"
        },
        {
          "indexed": false,
          "name": "_quantity",
          "type": "uint256"
        },
        {
          "indexed": false,
          "name": "_storeID",
          "type": "uint256"
        },
        {
          "indexed": false,
          "name": "_price",
          "type": "uint256"
        }
      ],
      "name": "itemBought",
      "type": "event",
      "signature": "0x26125e9803f2d164e7f46967a1e18a50df120ea3d069c6a589ba56380dda4787"
    },
    {
      "anonymous": false,
      "inputs": [
        {
          "indexed": true,
          "name": "previousOwner",
          "type": "address"
        },
        {
          "indexed": true,
          "name": "newOwner",
          "type": "address"
        }
      ],
      "name": "OwnershipTransferred",
      "type": "event",
      "signature": "0x8be0079c531659141344cd1fd0a4f28419497f9722a3daafe3b4186f6b6457e0"
    },
    {
      "constant": false,
      "inputs": [
        {
          "name": "_admin",
          "type": "address"
        }
      ],
      "name": "addAdmin",
      "outputs": [],
      "payable": false,
      "stateMutability": "nonpayable",
      "type": "function",
      "signature": "0x70480275"
    },
    {
      "constant": false,
      "inputs": [
        {
          "name": "_admin",
          "type": "address"
        }
      ],
      "name": "deleteAdmin",
      "outputs": [],
      "payable": false,
      "stateMutability": "nonpayable",
      "type": "function",
      "signature": "0x27e1f7df"
    },
    {
      "constant": false,
      "inputs": [
        {
          "name": "_newStoreOwner",
          "type": "address"
        }
      ],
      "name": "addStoreOwner",
      "outputs": [],
      "payable": false,
      "stateMutability": "nonpayable",
      "type": "function",
      "signature": "0x9adeb5f1"
    },
    {
      "constant": false,
      "inputs": [
        {
          "name": "_deleteStoreOwner",
          "type": "address"
        }
      ],
      "name": "deleteStoreOwner",
      "outputs": [],
      "payable": false,
      "stateMutability": "nonpayable",
      "type": "function",
      "signature": "0xdcba65af"
    },
    {
      "constant": false,
      "inputs": [
        {
          "name": "_storeName",
          "type": "string"
        }
      ],
      "name": "createStoreFront",
      "outputs": [],
      "payable": false,
      "stateMutability": "nonpayable",
      "type": "function",
      "signature": "0x2fc826bd"
    },
    {
      "constant": false,
      "inputs": [
        {
          "name": "_nameOfItem",
          "type": "string"
        },
        {
          "name": "_quantity",
          "type": "uint256"
        },
        {
          "name": "_price",
          "type": "uint256"
        },
        {
          "name": "_storeID",
          "type": "uint256"
        }
      ],
      "name": "addItem",
      "outputs": [],
      "payable": false,
      "stateMutability": "nonpayable",
      "type": "function",
      "signature": "0xdc0dd677"
    },
    {
      "constant": false,
      "inputs": [
        {
          "name": "_skuCode",
          "type": "uint256"
        },
        {
          "name": "_storeID",
          "type": "uint256"
        },
        {
          "name": "_newPrice",
          "type": "uint256"
        }
      ],
      "name": "changePrice",
      "outputs": [],
      "payable": false,
      "stateMutability": "nonpayable",
      "type": "function",
      "signature": "0x40e2b4b8"
    },
    {
      "constant": false,
      "inputs": [
        {
          "name": "_storeID",
          "type": "uint256"
        },
        {
          "name": "_skuCode",
          "type": "uint256"
        }
      ],
      "name": "deleteItem",
      "outputs": [],
      "payable": false,
      "stateMutability": "nonpayable",
      "type": "function",
      "signature": "0x618a7e1d"
    },
    {
      "constant": false,
      "inputs": [
        {
          "name": "_storeID",
          "type": "uint256"
        }
      ],
      "name": "withdrawSales",
      "outputs": [],
      "payable": false,
      "stateMutability": "nonpayable",
      "type": "function",
      "signature": "0x93744494"
    },
    {
      "constant": false,
      "inputs": [
        {
          "name": "_quantity",
          "type": "uint256"
        },
        {
          "name": "_skuCode",
          "type": "uint256"
        },
        {
          "name": "_storeID",
          "type": "uint256"
        }
      ],
      "name": "buyItem",
      "outputs": [],
      "payable": true,
      "stateMutability": "payable",
      "type": "function",
      "signature": "0x1f6a8318"
    },
    {
      "constant": true,
      "inputs": [
        {
          "name": "_storeID",
          "type": "uint256"
        }
      ],
      "name": "getLatestSKU",
      "outputs": [
        {
          "name": "",
          "type": "uint256"
        }
      ],
      "payable": false,
      "stateMutability": "view",
      "type": "function",
      "signature": "0xa6aeb49a"
    },
    {
      "constant": true,
      "inputs": [
        {
          "name": "_storeID",
          "type": "uint256"
        },
        {
          "name": "_sku",
          "type": "uint256"
        }
      ],
      "name": "getItemInShop",
      "outputs": [
        {
          "name": "",
          "type": "string"
        },
        {
          "name": "",
          "type": "uint256"
        },
        {
          "name": "",
          "type": "uint256"
        }
      ],
      "payable": false,
      "stateMutability": "view",
      "type": "function",
      "signature": "0x5203320e"
    },
    {
      "constant": true,
      "inputs": [
        {
          "name": "_isAdmin",
          "type": "address"
        }
      ],
      "name": "fetchAdmin",
      "outputs": [
        {
          "name": "newAdminExists",
          "type": "bool"
        }
      ],
      "payable": false,
      "stateMutability": "view",
      "type": "function",
      "signature": "0x6001f1d1"
    },
    {
      "constant": true,
      "inputs": [
        {
          "name": "_isStoreOwner",
          "type": "address"
        }
      ],
      "name": "fetchStoreOwner",
      "outputs": [
        {
          "name": "newStoreOwner",
          "type": "bool"
        }
      ],
      "payable": false,
      "stateMutability": "view",
      "type": "function",
      "signature": "0x042ba42a"
    },
    {
      "constant": true,
      "inputs": [
        {
          "name": "_storeID",
          "type": "uint256"
        }
      ],
      "name": "fetchStoreID",
      "outputs": [
        {
          "name": "newStoreOwnerAddress",
          "type": "address"
        },
        {
          "name": "storeNameAdded",
          "type": "string"
        }
      ],
      "payable": false,
      "stateMutability": "view",
      "type": "function",
      "signature": "0x36cc9685"
    },
    {
      "constant": true,
      "inputs": [
        {
          "name": "_storeID",
          "type": "uint256"
        },
        {
          "name": "_skuCode",
          "type": "uint256"
        }
      ],
      "name": "fetchItem",
      "outputs": [
        {
          "name": "isName",
          "type": "string"
        },
        {
          "name": "isQuantity",
          "type": "uint256"
        },
        {
          "name": "isPrice",
          "type": "uint256"
        }
      ],
      "payable": false,
      "stateMutability": "view",
      "type": "function",
      "signature": "0xd5e57da6"
    },
    {
      "constant": true,
      "inputs": [
        {
          "name": "_storeID",
          "type": "uint256"
        }
      ],
      "name": "fetchStoreBalance",
      "outputs": [
        {
          "name": "storeBalance",
          "type": "uint256"
        }
      ],
      "payable": false,
      "stateMutability": "view",
      "type": "function",
      "signature": "0xfd205d4c"
    },
    {
      "constant": true,
      "inputs": [
        {
          "name": "_storeID",
          "type": "uint256"
        }
      ],
      "name": "fetchSalesWithdrawn",
      "outputs": [
        {
          "name": "storeBalance",
          "type": "uint256"
        }
      ],
      "payable": false,
      "stateMutability": "view",
      "type": "function",
      "signature": "0xf87bda89"
    }
  ],
  "bytecode": "0x608060405260006001556000600255336000806101000a81548173ffffffffffffffffffffffffffffffffffffffff021916908373ffffffffffffffffffffffffffffffffffffffff1602179055506000809054906101000a900473ffffffffffffffffffffffffffffffffffffffff1673ffffffffffffffffffffffffffffffffffffffff16600073ffffffffffffffffffffffffffffffffffffffff167f8be0079c531659141344cd1fd0a4f28419497f9722a3daafe3b4186f6b6457e060405160405180910390a3613308806100d96000396000f3fe60806040526004361061015f576000357c0100000000000000000000000000000000000000000000000000000000900463ffffffff168063042ba42a146101645780631f6a8318146101cd578063227024731461020f57806327e1f7df1461023a5780632fc826bd1461028b57806336cc9685146103535780633b78f63e1461043a57806340e2b4b8146104a35780635203320e146104f25780636001f1d1146105be578063618a7e1d14610627578063704802751461066c578063715018a6146106bd5780638b631991146106d45780638da5cb5b1461073d5780638f32d59b1461079457806393744494146107c35780639adeb5f1146107fe578063a1b141d41461084f578063a6aeb49a1461087a578063d5e57da6146108c9578063dc0dd67714610995578063dcba65af14610a7b578063f2fde38b14610acc578063f87bda8914610b1d578063fd205d4c14610b6c578063fd5e943a14610bbb575b600080fd5b34801561017057600080fd5b506101b36004803603602081101561018757600080fd5b81019080803573ffffffffffffffffffffffffffffffffffffffff169060200190929190505050610cb0565b604051808215151515815260200191505060405180910390f35b61020d600480360360608110156101e357600080fd5b81019080803590602001909291908035906020019092919080359060200190929190505050610d0c565b005b34801561021b57600080fd5b50610224611064565b6040518082815260200191505060405180910390f35b34801561024657600080fd5b506102896004803603602081101561025d57600080fd5b81019080803573ffffffffffffffffffffffffffffffffffffffff16906020019092919050505061106a565b005b34801561029757600080fd5b50610351600480360360208110156102ae57600080fd5b81019080803590602001906401000000008111156102cb57600080fd5b8201836020820111156102dd57600080fd5b803590602001918460018302840111640100000000831117156102ff57600080fd5b91908080601f016020809104026020016040519081016040528093929190818152602001838380828437600081840152601f19601f8201169050808301925050505050505091929192905050506111c1565b005b34801561035f57600080fd5b5061038c6004803603602081101561037657600080fd5b8101908080359060200190929190505050611516565b604051808373ffffffffffffffffffffffffffffffffffffffff1673ffffffffffffffffffffffffffffffffffffffff16815260200180602001828103825283818151815260200191508051906020019080838360005b838110156103fe5780820151818401526020810190506103e3565b50505050905090810190601f16801561042b5780820380516001836020036101000a031916815260200191505b50935050505060405180910390f35b34801561044657600080fd5b506104896004803603602081101561045d57600080fd5b81019080803573ffffffffffffffffffffffffffffffffffffffff16906020019092919050505061160f565b604051808215151515815260200191505060405180910390f35b3480156104af57600080fd5b506104f0600480360360608110156104c657600080fd5b8101908080359060200190929190803590602001909291908035906020019092919050505061163a565b005b3480156104fe57600080fd5b506105356004803603604081101561051557600080fd5b8101908080359060200190929190803590602001909291905050506118a4565b6040518080602001848152602001838152602001828103825285818151815260200191508051906020019080838360005b83811015610581578082015181840152602081019050610566565b50505050905090810190601f1680156105ae5780820380516001836020036101000a031916815260200191505b5094505050505060405180910390f35b3480156105ca57600080fd5b5061060d600480360360208110156105e157600080fd5b81019080803573ffffffffffffffffffffffffffffffffffffffff1690602001909291905050506119e1565b604051808215151515815260200191505060405180910390f35b34801561063357600080fd5b5061066a6004803603604081101561064a57600080fd5b810190808035906020019092919080359060200190929190505050611a3a565b005b34801561067857600080fd5b506106bb6004803603602081101561068f57600080fd5b81019080803573ffffffffffffffffffffffffffffffffffffffff169060200190929190505050611e46565b005b3480156106c957600080fd5b506106d2611fa6565b005b3480156106e057600080fd5b50610723600480360360208110156106f757600080fd5b81019080803573ffffffffffffffffffffffffffffffffffffffff169060200190929190505050612107565b604051808215151515815260200191505060405180910390f35b34801561074957600080fd5b50610752612127565b604051808273ffffffffffffffffffffffffffffffffffffffff1673ffffffffffffffffffffffffffffffffffffffff16815260200191505060405180910390f35b3480156107a057600080fd5b506107a9612150565b604051808215151515815260200191505060405180910390f35b3480156107cf57600080fd5b506107fc600480360360208110156107e657600080fd5b81019080803590602001909291905050506121a7565b005b34801561080a57600080fd5b5061084d6004803603602081101561082157600080fd5b81019080803573ffffffffffffffffffffffffffffffffffffffff1690602001909291905050506124b1565b005b34801561085b57600080fd5b5061086461265b565b6040518082815260200191505060405180910390f35b34801561088657600080fd5b506108b36004803603602081101561089d57600080fd5b8101908080359060200190929190505050612661565b6040518082815260200191505060405180910390f35b3480156108d557600080fd5b5061090c600480360360408110156108ec57600080fd5b810190808035906020019092919080359060200190929190505050612681565b6040518080602001848152602001838152602001828103825285818151815260200191508051906020019080838360005b8381101561095857808201518184015260208101905061093d565b50505050905090810190601f1680156109855780820380516001836020036101000a031916815260200191505b5094505050505060405180910390f35b3480156109a157600080fd5b50610a79600480360360808110156109b857600080fd5b81019080803590602001906401000000008111156109d557600080fd5b8201836020820111156109e757600080fd5b80359060200191846001830284011164010000000083111715610a0957600080fd5b91908080601f016020809104026020016040519081016040528093929190818152602001838380828437600081840152601f19601f8201169050808301925050505050505091929192908035906020019092919080359060200190929190803590602001909291905050506127b5565b005b348015610a8757600080fd5b50610aca60048036036020811015610a9e57600080fd5b81019080803573ffffffffffffffffffffffffffffffffffffffff169060200190929190505050612bd8565b005b348015610ad857600080fd5b50610b1b60048036036020811015610aef57600080fd5b81019080803573ffffffffffffffffffffffffffffffffffffffff169060200190929190505050612d8d565b005b348015610b2957600080fd5b50610b5660048036036020811015610b4057600080fd5b8101908080359060200190929190505050612e3b565b6040518082815260200191505060405180910390f35b348015610b7857600080fd5b50610ba560048036036020811015610b8f57600080fd5b8101908080359060200190929190505050612e5e565b6040518082815260200191505060405180910390f35b348015610bc757600080fd5b50610bf460048036036020811015610bde57600080fd5b8101908080359060200190929190505050612e81565b60405180806020018573ffffffffffffffffffffffffffffffffffffffff1673ffffffffffffffffffffffffffffffffffffffff168152602001848152602001838152602001828103825286818151815260200191508051906020019080838360005b83811015610c72578082015181840152602081019050610c57565b50505050905090810190601f168015610c9f5780820380516001836020036101000a031916815260200191505b509550505050505060405180910390f35b6000600460008373ffffffffffffffffffffffffffffffffffffffff1673ffffffffffffffffffffffffffffffffffffffff16815260200190815260200160002060000160009054906101000a900460ff169050809050919050565b828183600560008381526020019081526020016000206005016000828152602001908152602001600020600101548311151515610dd7576040517f08c379a00000000000000000000000000000000000000000000000000000000081526004018080602001828103825260388152602001807f596f752061726520747279696e6720746f207075726368617365206d6f72652081526020017f6974656d73207468616e2061726520617661696c61626c65000000000000000081525060400191505060405180910390fd5b85600560008681526020019081526020016000206005016000878152602001908152602001600020600201548181023410151515610ea3576040517f08c379a00000000000000000000000000000000000000000000000000000000081526004018080602001828103825260298152602001807f596f752068617665206e6f742074656e64657265642074686520636f7272656381526020017f7420616d6f756e742e000000000000000000000000000000000000000000000081525060400191505060405180910390fd5b876005600088815260200190815260200160002060050160008981526020019081526020016000206002015489600560008a815260200190815260200160002060050160008b81526020019081526020016000206001016000828254039250508190555089600560008a815260200190815260200160002060050160008b81526020019081526020016000206002015402600560008a8152602001908152602001600020600301600082825401925050819055507f26125e9803f2d164e7f46967a1e18a50df120ea3d069c6a589ba56380dda4787898b8a600560008d815260200190815260200160002060050160008e8152602001908152602001600020600201546040518085815260200184815260200183815260200182815260200194505050505060405180910390a16000828202340390503373ffffffffffffffffffffffffffffffffffffffff166108fc829081150290604051600060405180830381858888f1935050505015801561101f573d6000803e3d6000fd5b507f278ecde10404a9f1d9088d6512ddd16581968e0a41c5416fce08986e7207bbe4816040518082815260200191505060405180910390a15050505050505050505050565b60025481565b611072612150565b151561110c576040517f08c379a000000000000000000000000000000000000000000000000000000000815260040180806020018281038252603c8152602001807f546869732066756e6374696f6e206973206f6e6c7920617661696c61626c652081526020017f746f20746865206f776e6572206f662074686520636f6e74726163740000000081525060400191505060405180910390fd5b600360008273ffffffffffffffffffffffffffffffffffffffff1673ffffffffffffffffffffffffffffffffffffffff16815260200190815260200160002060006101000a81549060ff02191690557f86f2a87e57b786e440244b5c31f13c4f7bda9b857bdfd1c8218ecdfb029f4c0f81604051808273ffffffffffffffffffffffffffffffffffffffff1673ffffffffffffffffffffffffffffffffffffffff16815260200191505060405180910390a150565b600460003373ffffffffffffffffffffffffffffffffffffffff1673ffffffffffffffffffffffffffffffffffffffff16815260200190815260200160002060000160009054906101000a900460ff168015156112ac576040517f08c379a000000000000000000000000000000000000000000000000000000000815260040180806020018281038252602f8152602001807f546869732066756e6374696f6e206973206f6e6c7920617661696c61626c652081526020017f746f2073746f7265206f776e657273000000000000000000000000000000000081525060400191505060405180910390fd5b6112b96001546001612f69565b6001819055508160056000600154815260200190815260200160002060000190805190602001906112eb9291906131a2565b503360056000600154815260200190815260200160002060020160006101000a81548173ffffffffffffffffffffffffffffffffffffffff021916908373ffffffffffffffffffffffffffffffffffffffff160217905550600460003373ffffffffffffffffffffffffffffffffffffffff1673ffffffffffffffffffffffffffffffffffffffff16815260200190815260200160002060010160015490806001815401808255809150509060018203906000526020600020016000909192909190915055507f91dad1160e0a1a5d306cf9fea3b2ae2e13cd30e7a941e91c28c35dc41710aed26001548333600460003373ffffffffffffffffffffffffffffffffffffffff1673ffffffffffffffffffffffffffffffffffffffff16815260200190815260200160002060010160405180858152602001806020018473ffffffffffffffffffffffffffffffffffffffff1673ffffffffffffffffffffffffffffffffffffffff16815260200180602001838103835286818151815260200191508051906020019080838360005b8381101561149557808201518184015260208101905061147a565b50505050905090810190601f1680156114c25780820380516001836020036101000a031916815260200191505b50838103825284818154815260200191508054801561150057602002820191906000526020600020905b8154815260200190600101908083116114ec575b5050965050505050505060405180910390a15050565b600060606005600084815260200190815260200160002060020160009054906101000a900473ffffffffffffffffffffffffffffffffffffffff169150600560008481526020019081526020016000206000018054600181600116156101000203166002900480601f0160208091040260200160405190810160405280929190818152602001828054600181600116156101000203166002900480156115fd5780601f106115d2576101008083540402835291602001916115fd565b820191906000526020600020905b8154815290600101906020018083116115e057829003601f168201915b50505050509050818191509150915091565b60046020528060005260406000206000915090508060000160009054906101000a900460ff16905081565b600460003373ffffffffffffffffffffffffffffffffffffffff1673ffffffffffffffffffffffffffffffffffffffff16815260200190815260200160002060000160009054906101000a900460ff16801515611725576040517f08c379a000000000000000000000000000000000000000000000000000000000815260040180806020018281038252602f8152602001807f546869732066756e6374696f6e206973206f6e6c7920617661696c61626c652081526020017f746f2073746f7265206f776e657273000000000000000000000000000000000081525060400191505060405180910390fd5b33836005600082815260200190815260200160002060020160009054906101000a900473ffffffffffffffffffffffffffffffffffffffff1673ffffffffffffffffffffffffffffffffffffffff168273ffffffffffffffffffffffffffffffffffffffff16141515611826576040517f08c379a000000000000000000000000000000000000000000000000000000000815260040180806020018281038252603c8152602001807f596f752063616e6e6f7420696e7465726163742077697468207468697320737481526020017f6f726520617320796f7520617265206e6f7420746865206f776e65720000000081525060400191505060405180910390fd5b83600560008781526020019081526020016000206005016000888152602001908152602001600020600201819055507f7bb0939fa8871fdad6ab517d35a446bdf92216cfde5e600d537525e40bab2d5186868660405180848152602001838152602001828152602001935050505060405180910390a1505050505050565b606060008060606005600087815260200190815260200160002060050160008681526020019081526020016000206000018054600181600116156101000203166002900480601f0160208091040260200160405190810160405280929190818152602001828054600181600116156101000203166002900480156119695780601f1061193e57610100808354040283529160200191611969565b820191906000526020600020905b81548152906001019060200180831161194c57829003601f168201915b50505050509050600060056000888152602001908152602001600020600501600087815260200190815260200160002060010154905060006005600089815260200190815260200160002060050160008881526020019081526020016000206002015490508282829550955095505050509250925092565b6000600360008373ffffffffffffffffffffffffffffffffffffffff1673ffffffffffffffffffffffffffffffffffffffff16815260200190815260200160002060009054906101000a900460ff169050809050919050565b600460003373ffffffffffffffffffffffffffffffffffffffff1673ffffffffffffffffffffffffffffffffffffffff16815260200190815260200160002060000160009054906101000a900460ff16801515611b25576040517f08c379a000000000000000000000000000000000000000000000000000000000815260040180806020018281038252602f8152602001807f546869732066756e6374696f6e206973206f6e6c7920617661696c61626c652081526020017f746f2073746f7265206f776e657273000000000000000000000000000000000081525060400191505060405180910390fd5b33836005600082815260200190815260200160002060020160009054906101000a900473ffffffffffffffffffffffffffffffffffffffff1673ffffffffffffffffffffffffffffffffffffffff168273ffffffffffffffffffffffffffffffffffffffff16141515611c26576040517f08c379a000000000000000000000000000000000000000000000000000000000815260040180806020018281038252603c8152602001807f596f752063616e6e6f7420696e7465726163742077697468207468697320737481526020017f6f726520617320796f7520617265206e6f7420746865206f776e65720000000081525060400191505060405180910390fd5b60056000868152602001908152602001600020600501600085815260200190815260200160002060008082016000611c5e9190613222565b60018201600090556002820160009055505060006005600087815260200190815260200160002060010180549050905060008090505b81811015611da357856005600089815260200190815260200160002060010182815481101515611cc057fe5b90600052602060002001541415611d96576005600088815260200190815260200160002060010160018303815481101515611cf757fe5b90600052602060002001546005600089815260200190815260200160002060010182815481101515611d2557fe5b90600052602060002001819055506005600088815260200190815260200160002060010160018303815481101515611d5957fe5b906000526020600020016000905560056000888152602001908152602001600020600101805480919060019003611d90919061326a565b50611da3565b8080600101915050611c94565b507f07e3211e133eb160ac13057b9e7e7dce433ffee3770952424ef46c488c839ea28686600560008a815260200190815260200160002060010160405180848152602001838152602001806020018281038252838181548152602001915080548015611e2e57602002820191906000526020600020905b815481526020019060010190808311611e1a575b505094505050505060405180910390a1505050505050565b611e4e612150565b1515611ee8576040517f08c379a000000000000000000000000000000000000000000000000000000000815260040180806020018281038252603c8152602001807f546869732066756e6374696f6e206973206f6e6c7920617661696c61626c652081526020017f746f20746865206f776e6572206f662074686520636f6e74726163740000000081525060400191505060405180910390fd5b6001600360008373ffffffffffffffffffffffffffffffffffffffff1673ffffffffffffffffffffffffffffffffffffffff16815260200190815260200160002060006101000a81548160ff0219169083151502179055507fefcbb6030dbeda3448a657cc462d3fde6f3b78e2710bd7b2d9e2ab358a12e17081604051808273ffffffffffffffffffffffffffffffffffffffff1673ffffffffffffffffffffffffffffffffffffffff16815260200191505060405180910390a150565b611fae612150565b1515612048576040517f08c379a000000000000000000000000000000000000000000000000000000000815260040180806020018281038252603c8152602001807f546869732066756e6374696f6e206973206f6e6c7920617661696c61626c652081526020017f746f20746865206f776e6572206f662074686520636f6e74726163740000000081525060400191505060405180910390fd5b600073ffffffffffffffffffffffffffffffffffffffff166000809054906101000a900473ffffffffffffffffffffffffffffffffffffffff1673ffffffffffffffffffffffffffffffffffffffff167f8be0079c531659141344cd1fd0a4f28419497f9722a3daafe3b4186f6b6457e060405160405180910390a360008060006101000a81548173ffffffffffffffffffffffffffffffffffffffff021916908373ffffffffffffffffffffffffffffffffffffffff160217905550565b60036020528060005260406000206000915054906101000a900460ff1681565b60008060009054906101000a900473ffffffffffffffffffffffffffffffffffffffff16905090565b60008060009054906101000a900473ffffffffffffffffffffffffffffffffffffffff1673ffffffffffffffffffffffffffffffffffffffff163373ffffffffffffffffffffffffffffffffffffffff1614905090565b600460003373ffffffffffffffffffffffffffffffffffffffff1673ffffffffffffffffffffffffffffffffffffffff16815260200190815260200160002060000160009054906101000a900460ff16801515612292576040517f08c379a000000000000000000000000000000000000000000000000000000000815260040180806020018281038252602f8152602001807f546869732066756e6374696f6e206973206f6e6c7920617661696c61626c652081526020017f746f2073746f7265206f776e657273000000000000000000000000000000000081525060400191505060405180910390fd5b33826005600082815260200190815260200160002060020160009054906101000a900473ffffffffffffffffffffffffffffffffffffffff1673ffffffffffffffffffffffffffffffffffffffff168273ffffffffffffffffffffffffffffffffffffffff16141515612393576040517f08c379a000000000000000000000000000000000000000000000000000000000815260040180806020018281038252603c8152602001807f596f752063616e6e6f7420696e7465726163742077697468207468697320737481526020017f6f726520617320796f7520617265206e6f7420746865206f776e65720000000081525060400191505060405180910390fd5b60006005600086815260200190815260200160002060020160009054906101000a900473ffffffffffffffffffffffffffffffffffffffff169050600060056000878152602001908152602001600020600301549050600060056000888152602001908152602001600020600301819055508173ffffffffffffffffffffffffffffffffffffffff166108fc829081150290604051600060405180830381858888f1935050505015801561244b573d6000803e3d6000fd5b507fec55db48190f8d91ed5ad4118ee6288cfd6506c9393dbdab71fa309691a16a6c8682600560008a81526020019081526020016000206003015460405180848152602001838152602001828152602001935050505060405180910390a1505050505050565b600360003373ffffffffffffffffffffffffffffffffffffffff1673ffffffffffffffffffffffffffffffffffffffff16815260200190815260200160002060009054906101000a900460ff16801515612599576040517f08c379a00000000000000000000000000000000000000000000000000000000081526004018080602001828103825260318152602001807f546869732066756e6374696f6e206973206f6e6c7920617661696c61626c652081526020017f746f2061646d696e6973747261746f727300000000000000000000000000000081525060400191505060405180910390fd5b6001600460008473ffffffffffffffffffffffffffffffffffffffff1673ffffffffffffffffffffffffffffffffffffffff16815260200190815260200160002060000160006101000a81548160ff0219169083151502179055507fc48be1259827f286158037425eac2071e5a2ce505bf01d53384e77fa0ef60da282604051808273ffffffffffffffffffffffffffffffffffffffff1673ffffffffffffffffffffffffffffffffffffffff16815260200191505060405180910390a15050565b60015481565b600060056000838152602001908152602001600020600401549050919050565b60606000806005600086815260200190815260200160002060050160008581526020019081526020016000206000018054600181600116156101000203166002900480601f0160208091040260200160405190810160405280929190818152602001828054600181600116156101000203166002900480156127445780601f1061271957610100808354040283529160200191612744565b820191906000526020600020905b81548152906001019060200180831161272757829003601f168201915b505050505092506005600086815260200190815260200160002060050160008581526020019081526020016000206001015491506005600086815260200190815260200160002060050160008581526020019081526020016000206002015490508282829250925092509250925092565b600460003373ffffffffffffffffffffffffffffffffffffffff1673ffffffffffffffffffffffffffffffffffffffff16815260200190815260200160002060000160009054906101000a900460ff168015156128a0576040517f08c379a000000000000000000000000000000000000000000000000000000000815260040180806020018281038252602f8152602001807f546869732066756e6374696f6e206973206f6e6c7920617661696c61626c652081526020017f746f2073746f7265206f776e657273000000000000000000000000000000000081525060400191505060405180910390fd5b33826005600082815260200190815260200160002060020160009054906101000a900473ffffffffffffffffffffffffffffffffffffffff1673ffffffffffffffffffffffffffffffffffffffff168273ffffffffffffffffffffffffffffffffffffffff161415156129a1576040517f08c379a000000000000000000000000000000000000000000000000000000000815260040180806020018281038252603c8152602001807f596f752063616e6e6f7420696e7465726163742077697468207468697320737481526020017f6f726520617320796f7520617265206e6f7420746865206f776e65720000000081525060400191505060405180910390fd5b6129ae6002546001612f69565b60028190555086600560008681526020019081526020016000206005016000600254815260200190815260200160002060000190805190602001906129f49291906131a2565b50856005600086815260200190815260200160002060050160006002548152602001908152602001600020600101819055508460056000868152602001908152602001600020600501600060025481526020019081526020016000206002018190555060056000858152602001908152602001600020600101600254908060018154018082558091505090600182039060005260206000200160009091929091909150555060025460056000868152602001908152602001600020600401819055507ff7d91293721d0f8995b93ce4588704fe6cec39eddd45c258a22162ba552f62a360025485898989600560008b8152602001908152602001600020600101604051808781526020018681526020018060200185815260200184815260200180602001838103835287818151815260200191508051906020019080838360005b83811015612b50578082015181840152602081019050612b35565b50505050905090810190601f168015612b7d5780820380516001836020036101000a031916815260200191505b508381038252848181548152602001915080548015612bbb57602002820191906000526020600020905b815481526020019060010190808311612ba7575b50509850505050505050505060405180910390a150505050505050565b600360003373ffffffffffffffffffffffffffffffffffffffff1673ffffffffffffffffffffffffffffffffffffffff16815260200190815260200160002060009054906101000a900460ff16801515612cc0576040517f08c379a00000000000000000000000000000000000000000000000000000000081526004018080602001828103825260318152602001807f546869732066756e6374696f6e206973206f6e6c7920617661696c61626c652081526020017f746f2061646d696e6973747261746f727300000000000000000000000000000081525060400191505060405180910390fd5b600460008373ffffffffffffffffffffffffffffffffffffffff1673ffffffffffffffffffffffffffffffffffffffff168152602001908152602001600020600080820160006101000a81549060ff0219169055600182016000612d249190613296565b50507fd89cae1cc248e953c8ad4c040cf8353ec442f065045d82884af21e15a979afc582604051808273ffffffffffffffffffffffffffffffffffffffff1673ffffffffffffffffffffffffffffffffffffffff16815260200191505060405180910390a15050565b612d95612150565b1515612e2f576040517f08c379a000000000000000000000000000000000000000000000000000000000815260040180806020018281038252603c8152602001807f546869732066756e6374696f6e206973206f6e6c7920617661696c61626c652081526020017f746f20746865206f776e6572206f662074686520636f6e74726163740000000081525060400191505060405180910390fd5b612e388161303f565b50565b600060056000838152602001908152602001600020600301549050809050919050565b600060056000838152602001908152602001600020600301549050809050919050565b6005602052806000526040600020600091509050806000018054600181600116156101000203166002900480601f016020809104026020016040519081016040528092919081815260200182805460018160011615610100020316600290048015612f2d5780601f10612f0257610100808354040283529160200191612f2d565b820191906000526020600020905b815481529060010190602001808311612f1057829003601f168201915b5050505050908060020160009054906101000a900473ffffffffffffffffffffffffffffffffffffffff16908060030154908060040154905084565b6000808284019050838110151515613035576040517f08c379a00000000000000000000000000000000000000000000000000000000081526004018080602001828103825260538152602001807f617661696c61626c652073746f726549442773202f20736b752773206f76657281526020017f666c6f776e2e20436f6e73696465722072657573696e6720766f6964206f722081526020017f616c7068616e756d657269632076616c7565730000000000000000000000000081525060600191505060405180910390fd5b8091505092915050565b600073ffffffffffffffffffffffffffffffffffffffff168173ffffffffffffffffffffffffffffffffffffffff16141515156130e4576040517f08c379a00000000000000000000000000000000000000000000000000000000081526004018080602001828103825260178152602001807f6e6577206f776e65722063616e6e6f742062652030783000000000000000000081525060200191505060405180910390fd5b8073ffffffffffffffffffffffffffffffffffffffff166000809054906101000a900473ffffffffffffffffffffffffffffffffffffffff1673ffffffffffffffffffffffffffffffffffffffff167f8be0079c531659141344cd1fd0a4f28419497f9722a3daafe3b4186f6b6457e060405160405180910390a3806000806101000a81548173ffffffffffffffffffffffffffffffffffffffff021916908373ffffffffffffffffffffffffffffffffffffffff16021790555050565b828054600181600116156101000203166002900490600052602060002090601f016020900481019282601f106131e357805160ff1916838001178555613211565b82800160010185558215613211579182015b828111156132105782518255916020019190600101906131f5565b5b50905061321e91906132b7565b5090565b50805460018160011615610100020316600290046000825580601f106132485750613267565b601f01602090049060005260206000209081019061326691906132b7565b5b50565b8154818355818111156132915781836000526020600020918201910161329091906132b7565b5b505050565b50805460008255906000526020600020908101906132b491906132b7565b50565b6132d991905b808211156132d55760008160009055506001016132bd565b5090565b9056fea165627a7a723058201ea9568990f2cccbe6048619110367140d92540b1d0c386c7cab7209cb8dc88d0029",
  "source": "/*\nQuestions:\nImplement Eth/USD price\n*/\n\npragma solidity 0.5.0;\n\nimport \"./Ownable.sol\";\nimport \"./SafeMath.sol\";\n\ncontract MarketPlace is Ownable {\n\n    uint public storeCount = 0;\n    uint public skuCount = 0;\n\n    //Struct to hold details about each item for sale in a particular store\n    struct ItemForSale {\n        string name;\n        uint quantity;\n        uint price;\n    }\n\n    struct StoreFronts {\n        string storeName; //Struct containing store name to display on UI\n        uint[] skusInStore;\n        address payable storeOwner; //Address to cross check that the store owner is calling the function\n        uint pendingWithdrawal; //Total sales value of store\n        uint latestSkuNoInStore;\n        mapping(uint => ItemForSale) sku; //Mapping of all stock being sold by a particular store\n    }\n\n    struct StoreOwnersDB {\n        bool exists;\n        uint[] storesInStoreOwner;\n    }\n\n    //used a mapping as opposed to an array to avoid use of a loop to find matches\n    mapping(address => bool) public adminsDB; //mapping of admins by address\n    mapping(address => StoreOwnersDB) public storeOwnersDB; //mapping of store owners by address\n    mapping(uint => StoreFronts) public storeFront;\n\n\n\n    //Events\n    event adminAdded(address _admin);\n    event adminDeleted(address _admin);\n    event storeOwnerAdded(address _storeOwner);\n    event storeOwnerDeleted(address _storeOwner);\n    event storeFrontCreated(uint _storeID, string _storeName, address _storeOwner, uint[] _storesInStoreOwner);\n    event itemToSellAdded(uint _sku, uint _storeID, string _nameOfItem, uint _quantity, uint _price, uint[] _skusInStore);\n    event itemPriceUpdated(uint _sku, uint _storeID, uint _newPrice);\n    event itemForSaleDeleted(uint _storeID, uint _skuCode, uint[] _skusInStore);\n    event salesWithdrawn(uint _storeID, uint _payment, uint _storeSalesBalance);\n    event refund(uint _refund);\n    event itemBought(uint _skuCode, uint _quantity, uint _storeID, uint _price);\n\n\n\n    //Modifiers\n\n    modifier checkAdmin(bool _exists) {\n        require(_exists, \"This function is only available to administrators\");\n        _;\n    }\n\n    modifier checkStoreOwner(bool _exists) {\n        require(_exists, \"This function is only available to store owners\");\n        _;\n    }\n\n    modifier checkOwnerOfStore(address _owner, uint _storeID) {\n        require (_owner == storeFront[_storeID].storeOwner, \"You cannot interact with this store as you are not the owner\");\n        _;\n    }\n\n    modifier checkQuantity(uint _quantity, uint _storeID, uint _skuCode) {\n        require(_quantity <= storeFront[_storeID].sku[_skuCode].quantity, \"You are trying to purchase more items than are available\");\n        _;\n    }\n\n    modifier paidEnough(uint _quantity, uint _price) {\n        require(msg.value >= _price*_quantity, \"You have not tendered the correct amount.\");\n        _;\n    }\n\n    modifier checkValue(uint _quantity, uint _price) {\n        _;\n        uint amountToRefund = msg.value - _price*_quantity;\n        msg.sender.transfer(amountToRefund);\n        emit refund(amountToRefund);\n    }\n\n\n\n    //Contract owner functions\n\n    function addAdmin(address _admin) \n        public \n        onlyOwner() \n    {\n        adminsDB[_admin] = true;\n        emit adminAdded(_admin);\n    }\n\n    function deleteAdmin(address _admin) \n        public \n        onlyOwner() \n    {\n            delete adminsDB[_admin];\n            emit adminDeleted(_admin);\n    }\n\n\n\n    //Admin functions\n\n    function addStoreOwner(address _newStoreOwner) \n        public \n        checkAdmin(adminsDB[msg.sender]) \n    {\n            storeOwnersDB[_newStoreOwner].exists = true;\n            emit storeOwnerAdded(_newStoreOwner);\n    }\n\n    function deleteStoreOwner(address _deleteStoreOwner) \n        public \n        checkAdmin(adminsDB[msg.sender]) \n    {\n            delete storeOwnersDB[_deleteStoreOwner];\n            emit storeOwnerDeleted(_deleteStoreOwner);\n    }\n\n\n\n    //Store owner functions\n\n    function createStoreFront(string memory _storeName) \n        public \n        checkStoreOwner(storeOwnersDB[msg.sender].exists) \n    {\n            storeCount = SafeMath.add(storeCount, 1);\n            storeFront[storeCount].storeName = _storeName;\n            storeFront[storeCount].storeOwner = msg.sender;\n            storeOwnersDB[msg.sender].storesInStoreOwner.push(storeCount);\n            emit storeFrontCreated(storeCount, _storeName, msg.sender, storeOwnersDB[msg.sender].storesInStoreOwner);\n    }\n\n    function addItem(string memory _nameOfItem, uint _quantity, uint _price, uint _storeID) \n        public \n        checkStoreOwner(storeOwnersDB[msg.sender].exists)\n        checkOwnerOfStore(msg.sender, _storeID)\n    {\n            skuCount = SafeMath.add(skuCount, 1);\n            storeFront[_storeID].sku[skuCount].name = _nameOfItem;\n            storeFront[_storeID].sku[skuCount].quantity = _quantity;\n            storeFront[_storeID].sku[skuCount].price = _price;\n            storeFront[_storeID].skusInStore.push(skuCount);\n            storeFront[_storeID].latestSkuNoInStore = skuCount;\n            \n            emit itemToSellAdded(skuCount, _storeID, _nameOfItem, _quantity, _price, storeFront[_storeID].skusInStore);\n    }\n\n    function changePrice(uint _skuCode, uint _storeID, uint _newPrice) \n        public \n        checkStoreOwner(storeOwnersDB[msg.sender].exists)\n        checkOwnerOfStore(msg.sender, _storeID)\n    {\n            storeFront[_storeID].sku[_skuCode].price = _newPrice;\n            emit itemPriceUpdated(_skuCode, _storeID, _newPrice);\n    }\n\n    function deleteItem(uint _storeID, uint _skuCode)\n        public \n        checkStoreOwner(storeOwnersDB[msg.sender].exists)\n        checkOwnerOfStore(msg.sender, _storeID)\n    {\n            delete storeFront[_storeID].sku[_skuCode];\n\n            //An array is used to track skus that belong to a store.\n            //It is necessary to remove a sku and delete its position from this array so that the front\n            //end displays the correct number of items for sale in a shop. Order does not matter. The\n            //quickest way to delete an element from an array is to move the last item in the array into\n            //the deleted position, delete the last position, reduce len of array by 1 --> saves gas.\n            uint len = storeFront[_storeID].skusInStore.length;\n            for (uint k = 0; k < len; k++) {\n                if (storeFront[_storeID].skusInStore[k] == _skuCode) {\n                    storeFront[_storeID].skusInStore[k] = storeFront[_storeID].skusInStore[len-1];\n                    delete storeFront[_storeID].skusInStore[len -1];\n                    storeFront[_storeID].skusInStore.length --;\n                    break;\n                }\n            }\n            emit itemForSaleDeleted(_storeID, _skuCode, storeFront[_storeID].skusInStore);\n    }\n\n    function withdrawSales(uint _storeID) \n        public \n        checkStoreOwner(storeOwnersDB[msg.sender].exists)\n        checkOwnerOfStore(msg.sender, _storeID)\n    {\n            address payable storeOwnerAddress = storeFront[_storeID].storeOwner;\n            uint payment = storeFront[_storeID].pendingWithdrawal;\n            storeFront[_storeID].pendingWithdrawal = 0; //Preventing reentrancy\n            storeOwnerAddress.transfer(payment);\n            emit salesWithdrawn(_storeID, payment, storeFront[_storeID].pendingWithdrawal);\n    }\n\n\n    \n    //Shopper functions\n    function buyItem(uint _quantity, uint _skuCode, uint _storeID) \n        public\n        payable\n        checkQuantity(_quantity, _storeID, _skuCode)\n        paidEnough(_quantity, storeFront[_storeID].sku[_skuCode].price)\n        checkValue(_quantity, storeFront[_storeID].sku[_skuCode].price)\n    {\n            storeFront[_storeID].sku[_skuCode].quantity -= _quantity;\n            storeFront[_storeID].pendingWithdrawal += (storeFront[_storeID].sku[_skuCode].price*_quantity);\n            emit itemBought(_skuCode, _quantity, _storeID, storeFront[_storeID].sku[_skuCode].price);\n    }\n\n\n\n    //Getters\n    function getLatestSKU(uint _storeID) \n        public\n        view\n        returns (uint)\n    {\n        return storeFront[_storeID].latestSkuNoInStore;\n    }\n\n    function getItemInShop(uint _storeID, uint _sku)\n        public\n        view\n        returns (string memory, uint, uint)\n    {\n        string memory itemName = storeFront[_storeID].sku[_sku].name;\n        uint itemQuantity = storeFront[_storeID].sku[_sku].quantity;\n        uint itemPrice = storeFront[_storeID].sku[_sku].price;\n        return (itemName, itemQuantity, itemPrice);\n    }\n    \n    /*function getItemInShopName(uint _storeID, uint _sku)\n        public\n        view\n        returns (string memory)\n    {\n        return storeFront[_storeID].sku[_sku].name;\n    }\n\n    function getItemInShopQuantity(uint _storeID, uint _sku)\n        public\n        view\n        returns (uint)\n    {\n        return storeFront[_storeID].sku[_sku].quantity;\n    }\n            \n    function getItemInShopPrice(uint _storeID, uint _sku)\n        public\n        view\n        returns (uint)\n    {\n        return storeFront[_storeID].sku[_sku].price;\n    }*/\n\n\n\n    //Testing\n    function fetchAdmin(address _isAdmin) \n        public\n        view\n        returns (bool newAdminExists)\n    {\n            newAdminExists = adminsDB[_isAdmin];\n            return newAdminExists;\n    }\n\n    function fetchStoreOwner(address _isStoreOwner)\n        public\n        view\n        returns (bool newStoreOwner)\n    {\n            newStoreOwner = storeOwnersDB[_isStoreOwner].exists;\n            return newStoreOwner;\n    }\n\n    function fetchStoreID(uint _storeID)\n        public\n        view\n        returns (address newStoreOwnerAddress, string memory storeNameAdded)\n    {\n            newStoreOwnerAddress = storeFront[_storeID].storeOwner;\n            storeNameAdded = storeFront[_storeID].storeName;\n            return (newStoreOwnerAddress, storeNameAdded);\n    }\n\n    function fetchItem(uint _storeID, uint _skuCode)\n        public\n        view\n        returns (string memory isName, uint isQuantity, uint isPrice)\n    {\n            isName = storeFront[_storeID].sku[_skuCode].name;\n            isQuantity = storeFront[_storeID].sku[_skuCode].quantity;\n            isPrice = storeFront[_storeID].sku[_skuCode].price;\n            return (isName, isQuantity, isPrice);\n    }\n\n    /*function isItemBought(uint _storeID)\n        public\n        view\n        returns (uint storeBalance)\n    {\n            storeBalance = storeFront[_storeID].pendingWithdrawal;\n            return storeBalance;\n    }*/\n\n    function fetchStoreBalance (uint _storeID)\n        public\n        view\n        returns (uint storeBalance)\n    {\n            storeBalance = storeFront[_storeID].pendingWithdrawal;\n            return storeBalance;\n    }\n\n    function fetchSalesWithdrawn(uint _storeID)\n        public\n        view\n        returns (uint storeBalance)\n    {\n            storeBalance = storeFront[_storeID].pendingWithdrawal;\n            return storeBalance;\n    }\n}",
  "sourcePath": "/home/satoshisingh/Online-Marketplace-2/final-project-SuperSuperSingh/contracts/MarketPlace.sol",
  "compiler": {
    "name": "solc",
    "version": "0.5.0+commit.1d4f565a.Emscripten.clang"
  },
  "schemaVersion": "3.0.1",
  "updatedAt": "2019-01-20T16:56:16.511Z",
  "devdoc": {
    "methods": {
      "isOwner()": {
        "return": "true if `msg.sender` is the owner of the contract."
      },
      "owner()": {
        "return": "the address of the owner."
      },
      "renounceOwnership()": {
        "details": "Allows the current owner to relinquish control of the contract."
      },
      "transferOwnership(address)": {
        "details": "Allows the current owner to transfer control of the contract to a newOwner.",
        "params": {
          "newOwner": "The address to transfer ownership to."
        }
      }
    }
  },
  "userdoc": {
    "methods": {
      "renounceOwnership()": {
        "notice": "Renouncing to ownership will leave the contract without an owner. It will not be possible to call the functions with the `onlyOwner` modifier anymore."
      }
    }
  }
}