{
  "contractName": "MarketPlace",
  "abi": [
    {
      "constant": true,
      "inputs": [],
      "name": "skuCount",
      "outputs": [
        {
          "name": "",
          "type": "uint256"
        }
      ],
      "payable": false,
      "stateMutability": "view",
      "type": "function",
      "signature": "0x22702473"
    },
    {
      "constant": true,
      "inputs": [
        {
          "name": "",
          "type": "address"
        }
      ],
      "name": "storeOwnersDB",
      "outputs": [
        {
          "name": "exists",
          "type": "bool"
        }
      ],
      "payable": false,
      "stateMutability": "view",
      "type": "function",
      "signature": "0x3b78f63e"
    },
    {
      "constant": false,
      "inputs": [],
      "name": "renounceOwnership",
      "outputs": [],
      "payable": false,
      "stateMutability": "nonpayable",
      "type": "function",
      "signature": "0x715018a6"
    },
    {
      "constant": true,
      "inputs": [],
      "name": "stopped",
      "outputs": [
        {
          "name": "",
          "type": "bool"
        }
      ],
      "payable": false,
      "stateMutability": "view",
      "type": "function",
      "signature": "0x75f12b21"
    },
    {
      "constant": true,
      "inputs": [
        {
          "name": "",
          "type": "address"
        }
      ],
      "name": "adminsDB",
      "outputs": [
        {
          "name": "",
          "type": "bool"
        }
      ],
      "payable": false,
      "stateMutability": "view",
      "type": "function",
      "signature": "0x8b631991"
    },
    {
      "constant": true,
      "inputs": [],
      "name": "owner",
      "outputs": [
        {
          "name": "",
          "type": "address"
        }
      ],
      "payable": false,
      "stateMutability": "view",
      "type": "function",
      "signature": "0x8da5cb5b"
    },
    {
      "constant": true,
      "inputs": [],
      "name": "isOwner",
      "outputs": [
        {
          "name": "",
          "type": "bool"
        }
      ],
      "payable": false,
      "stateMutability": "view",
      "type": "function",
      "signature": "0x8f32d59b"
    },
    {
      "constant": true,
      "inputs": [],
      "name": "storeCount",
      "outputs": [
        {
          "name": "",
          "type": "uint256"
        }
      ],
      "payable": false,
      "stateMutability": "view",
      "type": "function",
      "signature": "0xa1b141d4"
    },
    {
      "constant": false,
      "inputs": [
        {
          "name": "newOwner",
          "type": "address"
        }
      ],
      "name": "transferOwnership",
      "outputs": [],
      "payable": false,
      "stateMutability": "nonpayable",
      "type": "function",
      "signature": "0xf2fde38b"
    },
    {
      "constant": true,
      "inputs": [
        {
          "name": "",
          "type": "uint256"
        }
      ],
      "name": "storeFront",
      "outputs": [
        {
          "name": "storeName",
          "type": "string"
        },
        {
          "name": "storeOwner",
          "type": "address"
        },
        {
          "name": "pendingWithdrawal",
          "type": "uint256"
        },
        {
          "name": "latestSkuNoInStore",
          "type": "uint256"
        }
      ],
      "payable": false,
      "stateMutability": "view",
      "type": "function",
      "signature": "0xfd5e943a"
    },
    {
      "anonymous": false,
      "inputs": [
        {
          "indexed": false,
          "name": "_admin",
          "type": "address"
        }
      ],
      "name": "adminAdded",
      "type": "event",
      "signature": "0xefcbb6030dbeda3448a657cc462d3fde6f3b78e2710bd7b2d9e2ab358a12e170"
    },
    {
      "anonymous": false,
      "inputs": [
        {
          "indexed": false,
          "name": "_admin",
          "type": "address"
        }
      ],
      "name": "adminDeleted",
      "type": "event",
      "signature": "0x86f2a87e57b786e440244b5c31f13c4f7bda9b857bdfd1c8218ecdfb029f4c0f"
    },
    {
      "anonymous": false,
      "inputs": [
        {
          "indexed": false,
          "name": "_storeOwner",
          "type": "address"
        }
      ],
      "name": "storeOwnerAdded",
      "type": "event",
      "signature": "0xc48be1259827f286158037425eac2071e5a2ce505bf01d53384e77fa0ef60da2"
    },
    {
      "anonymous": false,
      "inputs": [
        {
          "indexed": false,
          "name": "_storeOwner",
          "type": "address"
        }
      ],
      "name": "storeOwnerDeleted",
      "type": "event",
      "signature": "0xd89cae1cc248e953c8ad4c040cf8353ec442f065045d82884af21e15a979afc5"
    },
    {
      "anonymous": false,
      "inputs": [
        {
          "indexed": false,
          "name": "_storeID",
          "type": "uint256"
        },
        {
          "indexed": false,
          "name": "_storeName",
          "type": "string"
        },
        {
          "indexed": false,
          "name": "_storeOwner",
          "type": "address"
        },
        {
          "indexed": false,
          "name": "_storesInStoreOwner",
          "type": "uint256[]"
        }
      ],
      "name": "storeFrontCreated",
      "type": "event",
      "signature": "0x91dad1160e0a1a5d306cf9fea3b2ae2e13cd30e7a941e91c28c35dc41710aed2"
    },
    {
      "anonymous": false,
      "inputs": [
        {
          "indexed": false,
          "name": "_sku",
          "type": "uint256"
        },
        {
          "indexed": false,
          "name": "_storeID",
          "type": "uint256"
        },
        {
          "indexed": false,
          "name": "_nameOfItem",
          "type": "string"
        },
        {
          "indexed": false,
          "name": "_quantity",
          "type": "uint256"
        },
        {
          "indexed": false,
          "name": "_price",
          "type": "uint256"
        },
        {
          "indexed": false,
          "name": "_skusInStore",
          "type": "uint256[]"
        }
      ],
      "name": "itemToSellAdded",
      "type": "event",
      "signature": "0xf7d91293721d0f8995b93ce4588704fe6cec39eddd45c258a22162ba552f62a3"
    },
    {
      "anonymous": false,
      "inputs": [
        {
          "indexed": false,
          "name": "_sku",
          "type": "uint256"
        },
        {
          "indexed": false,
          "name": "_storeID",
          "type": "uint256"
        },
        {
          "indexed": false,
          "name": "_newPrice",
          "type": "uint256"
        }
      ],
      "name": "itemPriceUpdated",
      "type": "event",
      "signature": "0x7bb0939fa8871fdad6ab517d35a446bdf92216cfde5e600d537525e40bab2d51"
    },
    {
      "anonymous": false,
      "inputs": [
        {
          "indexed": false,
          "name": "_storeID",
          "type": "uint256"
        },
        {
          "indexed": false,
          "name": "_skuCode",
          "type": "uint256"
        },
        {
          "indexed": false,
          "name": "_skusInStore",
          "type": "uint256[]"
        }
      ],
      "name": "itemForSaleDeleted",
      "type": "event",
      "signature": "0x07e3211e133eb160ac13057b9e7e7dce433ffee3770952424ef46c488c839ea2"
    },
    {
      "anonymous": false,
      "inputs": [
        {
          "indexed": false,
          "name": "_storeID",
          "type": "uint256"
        },
        {
          "indexed": false,
          "name": "_payment",
          "type": "uint256"
        },
        {
          "indexed": false,
          "name": "_storeSalesBalance",
          "type": "uint256"
        }
      ],
      "name": "salesWithdrawn",
      "type": "event",
      "signature": "0xec55db48190f8d91ed5ad4118ee6288cfd6506c9393dbdab71fa309691a16a6c"
    },
    {
      "anonymous": false,
      "inputs": [
        {
          "indexed": false,
          "name": "_refund",
          "type": "uint256"
        }
      ],
      "name": "refund",
      "type": "event",
      "signature": "0x278ecde10404a9f1d9088d6512ddd16581968e0a41c5416fce08986e7207bbe4"
    },
    {
      "anonymous": false,
      "inputs": [
        {
          "indexed": false,
          "name": "_skuCode",
          "type": "uint256"
        },
        {
          "indexed": false,
          "name": "_quantity",
          "type": "uint256"
        },
        {
          "indexed": false,
          "name": "_storeID",
          "type": "uint256"
        },
        {
          "indexed": false,
          "name": "_price",
          "type": "uint256"
        }
      ],
      "name": "itemBought",
      "type": "event",
      "signature": "0x26125e9803f2d164e7f46967a1e18a50df120ea3d069c6a589ba56380dda4787"
    },
    {
      "anonymous": false,
      "inputs": [
        {
          "indexed": true,
          "name": "previousOwner",
          "type": "address"
        },
        {
          "indexed": true,
          "name": "newOwner",
          "type": "address"
        }
      ],
      "name": "OwnershipTransferred",
      "type": "event",
      "signature": "0x8be0079c531659141344cd1fd0a4f28419497f9722a3daafe3b4186f6b6457e0"
    },
    {
      "constant": false,
      "inputs": [
        {
          "name": "_admin",
          "type": "address"
        }
      ],
      "name": "addAdmin",
      "outputs": [],
      "payable": false,
      "stateMutability": "nonpayable",
      "type": "function",
      "signature": "0x70480275"
    },
    {
      "constant": false,
      "inputs": [
        {
          "name": "_admin",
          "type": "address"
        }
      ],
      "name": "deleteAdmin",
      "outputs": [],
      "payable": false,
      "stateMutability": "nonpayable",
      "type": "function",
      "signature": "0x27e1f7df"
    },
    {
      "constant": false,
      "inputs": [],
      "name": "activateEmergencyStop",
      "outputs": [],
      "payable": false,
      "stateMutability": "nonpayable",
      "type": "function",
      "signature": "0x985957ab"
    },
    {
      "constant": false,
      "inputs": [],
      "name": "withdrawAllFunds",
      "outputs": [],
      "payable": false,
      "stateMutability": "nonpayable",
      "type": "function",
      "signature": "0x49649fbf"
    },
    {
      "constant": false,
      "inputs": [
        {
          "name": "_newStoreOwner",
          "type": "address"
        }
      ],
      "name": "addStoreOwner",
      "outputs": [],
      "payable": false,
      "stateMutability": "nonpayable",
      "type": "function",
      "signature": "0x9adeb5f1"
    },
    {
      "constant": false,
      "inputs": [
        {
          "name": "_deleteStoreOwner",
          "type": "address"
        }
      ],
      "name": "deleteStoreOwner",
      "outputs": [],
      "payable": false,
      "stateMutability": "nonpayable",
      "type": "function",
      "signature": "0xdcba65af"
    },
    {
      "constant": false,
      "inputs": [
        {
          "name": "_storeName",
          "type": "string"
        }
      ],
      "name": "createStoreFront",
      "outputs": [],
      "payable": false,
      "stateMutability": "nonpayable",
      "type": "function",
      "signature": "0x2fc826bd"
    },
    {
      "constant": false,
      "inputs": [
        {
          "name": "_nameOfItem",
          "type": "string"
        },
        {
          "name": "_quantity",
          "type": "uint256"
        },
        {
          "name": "_price",
          "type": "uint256"
        },
        {
          "name": "_storeID",
          "type": "uint256"
        }
      ],
      "name": "addItem",
      "outputs": [],
      "payable": false,
      "stateMutability": "nonpayable",
      "type": "function",
      "signature": "0xdc0dd677"
    },
    {
      "constant": false,
      "inputs": [
        {
          "name": "_skuCode",
          "type": "uint256"
        },
        {
          "name": "_storeID",
          "type": "uint256"
        },
        {
          "name": "_newPrice",
          "type": "uint256"
        }
      ],
      "name": "changePrice",
      "outputs": [],
      "payable": false,
      "stateMutability": "nonpayable",
      "type": "function",
      "signature": "0x40e2b4b8"
    },
    {
      "constant": false,
      "inputs": [
        {
          "name": "_storeID",
          "type": "uint256"
        },
        {
          "name": "_skuCode",
          "type": "uint256"
        }
      ],
      "name": "deleteItem",
      "outputs": [],
      "payable": false,
      "stateMutability": "nonpayable",
      "type": "function",
      "signature": "0x618a7e1d"
    },
    {
      "constant": false,
      "inputs": [
        {
          "name": "_storeID",
          "type": "uint256"
        }
      ],
      "name": "withdrawSales",
      "outputs": [],
      "payable": false,
      "stateMutability": "nonpayable",
      "type": "function",
      "signature": "0x93744494"
    },
    {
      "constant": false,
      "inputs": [
        {
          "name": "_quantity",
          "type": "uint256"
        },
        {
          "name": "_skuCode",
          "type": "uint256"
        },
        {
          "name": "_storeID",
          "type": "uint256"
        }
      ],
      "name": "buyItem",
      "outputs": [],
      "payable": true,
      "stateMutability": "payable",
      "type": "function",
      "signature": "0x1f6a8318"
    },
    {
      "constant": true,
      "inputs": [
        {
          "name": "_storeID",
          "type": "uint256"
        }
      ],
      "name": "getLatestSKU",
      "outputs": [
        {
          "name": "",
          "type": "uint256"
        }
      ],
      "payable": false,
      "stateMutability": "view",
      "type": "function",
      "signature": "0xa6aeb49a"
    },
    {
      "constant": true,
      "inputs": [
        {
          "name": "_storeID",
          "type": "uint256"
        },
        {
          "name": "_sku",
          "type": "uint256"
        }
      ],
      "name": "getItemInShop",
      "outputs": [
        {
          "name": "",
          "type": "string"
        },
        {
          "name": "",
          "type": "uint256"
        },
        {
          "name": "",
          "type": "uint256"
        }
      ],
      "payable": false,
      "stateMutability": "view",
      "type": "function",
      "signature": "0x5203320e"
    },
    {
      "constant": true,
      "inputs": [
        {
          "name": "_isAdmin",
          "type": "address"
        }
      ],
      "name": "fetchAdmin",
      "outputs": [
        {
          "name": "newAdminExists",
          "type": "bool"
        }
      ],
      "payable": false,
      "stateMutability": "view",
      "type": "function",
      "signature": "0x6001f1d1"
    },
    {
      "constant": true,
      "inputs": [
        {
          "name": "_isStoreOwner",
          "type": "address"
        }
      ],
      "name": "fetchStoreOwner",
      "outputs": [
        {
          "name": "newStoreOwner",
          "type": "bool"
        }
      ],
      "payable": false,
      "stateMutability": "view",
      "type": "function",
      "signature": "0x042ba42a"
    },
    {
      "constant": true,
      "inputs": [
        {
          "name": "_storeID",
          "type": "uint256"
        }
      ],
      "name": "fetchStoreID",
      "outputs": [
        {
          "name": "newStoreOwnerAddress",
          "type": "address"
        },
        {
          "name": "storeNameAdded",
          "type": "string"
        }
      ],
      "payable": false,
      "stateMutability": "view",
      "type": "function",
      "signature": "0x36cc9685"
    },
    {
      "constant": true,
      "inputs": [
        {
          "name": "_storeID",
          "type": "uint256"
        },
        {
          "name": "_skuCode",
          "type": "uint256"
        }
      ],
      "name": "fetchItem",
      "outputs": [
        {
          "name": "isName",
          "type": "string"
        },
        {
          "name": "isQuantity",
          "type": "uint256"
        },
        {
          "name": "isPrice",
          "type": "uint256"
        }
      ],
      "payable": false,
      "stateMutability": "view",
      "type": "function",
      "signature": "0xd5e57da6"
    },
    {
      "constant": true,
      "inputs": [
        {
          "name": "_currentStoreID",
          "type": "uint256"
        },
        {
          "name": "_currentSKU",
          "type": "uint256"
        }
      ],
      "name": "isItemBought",
      "outputs": [
        {
          "name": "newQuantity",
          "type": "uint256"
        }
      ],
      "payable": false,
      "stateMutability": "view",
      "type": "function",
      "signature": "0xe68ca8b6"
    },
    {
      "constant": true,
      "inputs": [
        {
          "name": "_storeID",
          "type": "uint256"
        }
      ],
      "name": "fetchStoreBalance",
      "outputs": [
        {
          "name": "storeBalance",
          "type": "uint256"
        }
      ],
      "payable": false,
      "stateMutability": "view",
      "type": "function",
      "signature": "0xfd205d4c"
    },
    {
      "constant": true,
      "inputs": [
        {
          "name": "_storeID",
          "type": "uint256"
        }
      ],
      "name": "fetchSalesWithdrawn",
      "outputs": [
        {
          "name": "storeBalance",
          "type": "uint256"
        }
      ],
      "payable": false,
      "stateMutability": "view",
      "type": "function",
      "signature": "0xf87bda89"
    }
  ],
  "bytecode": "0x6080604052600060015560006002556000600360006101000a81548160ff021916908315150217905550336000806101000a81548173ffffffffffffffffffffffffffffffffffffffff021916908373ffffffffffffffffffffffffffffffffffffffff1602179055506000809054906101000a900473ffffffffffffffffffffffffffffffffffffffff1673ffffffffffffffffffffffffffffffffffffffff16600073ffffffffffffffffffffffffffffffffffffffff167f8be0079c531659141344cd1fd0a4f28419497f9722a3daafe3b4186f6b6457e060405160405180910390a361364d806100f46000396000f3fe60806040526004361061018b576000357c0100000000000000000000000000000000000000000000000000000000900463ffffffff168063042ba42a146101905780631f6a8318146101f9578063227024731461023b57806327e1f7df146102665780632fc826bd146102b757806336cc96851461037f5780633b78f63e1461046657806340e2b4b8146104cf57806349649fbf1461051e5780635203320e146105355780636001f1d114610601578063618a7e1d1461066a57806370480275146106af578063715018a61461070057806375f12b21146107175780638b631991146107465780638da5cb5b146107af5780638f32d59b146108065780639374449414610835578063985957ab146108705780639adeb5f114610887578063a1b141d4146108d8578063a6aeb49a14610903578063d5e57da614610952578063dc0dd67714610a1e578063dcba65af14610b04578063e68ca8b614610b55578063f2fde38b14610bae578063f87bda8914610bff578063fd205d4c14610c4e578063fd5e943a14610c9d575b600080fd5b34801561019c57600080fd5b506101df600480360360208110156101b357600080fd5b81019080803573ffffffffffffffffffffffffffffffffffffffff169060200190929190505050610d92565b604051808215151515815260200191505060405180910390f35b6102396004803603606081101561020f57600080fd5b81019080803590602001909291908035906020019092919080359060200190929190505050610dee565b005b34801561024757600080fd5b50610250611162565b6040518082815260200191505060405180910390f35b34801561027257600080fd5b506102b56004803603602081101561028957600080fd5b81019080803573ffffffffffffffffffffffffffffffffffffffff169060200190929190505050611168565b005b3480156102c357600080fd5b5061037d600480360360208110156102da57600080fd5b81019080803590602001906401000000008111156102f757600080fd5b82018360208201111561030957600080fd5b8035906020019184600183028401116401000000008311171561032b57600080fd5b91908080601f016020809104026020016040519081016040528093929190818152602001838380828437600081840152601f19601f8201169050808301925050505050505091929192905050506112bf565b005b34801561038b57600080fd5b506103b8600480360360208110156103a257600080fd5b8101908080359060200190929190505050611614565b604051808373ffffffffffffffffffffffffffffffffffffffff1673ffffffffffffffffffffffffffffffffffffffff16815260200180602001828103825283818151815260200191508051906020019080838360005b8381101561042a57808201518184015260208101905061040f565b50505050905090810190601f1680156104575780820380516001836020036101000a031916815260200191505b50935050505060405180910390f35b34801561047257600080fd5b506104b56004803603602081101561048957600080fd5b81019080803573ffffffffffffffffffffffffffffffffffffffff16906020019092919050505061170d565b604051808215151515815260200191505060405180910390f35b3480156104db57600080fd5b5061051c600480360360608110156104f257600080fd5b81019080803590602001909291908035906020019092919080359060200190929190505050611738565b005b34801561052a57600080fd5b506105336119d3565b005b34801561054157600080fd5b506105786004803603604081101561055857600080fd5b810190808035906020019092919080359060200190929190505050611a92565b6040518080602001848152602001838152602001828103825285818151815260200191508051906020019080838360005b838110156105c45780820151818401526020810190506105a9565b50505050905090810190601f1680156105f15780820380516001836020036101000a031916815260200191505b5094505050505060405180910390f35b34801561060d57600080fd5b506106506004803603602081101561062457600080fd5b81019080803573ffffffffffffffffffffffffffffffffffffffff169060200190929190505050611bcf565b604051808215151515815260200191505060405180910390f35b34801561067657600080fd5b506106ad6004803603604081101561068d57600080fd5b810190808035906020019092919080359060200190929190505050611c28565b005b3480156106bb57600080fd5b506106fe600480360360208110156106d257600080fd5b81019080803573ffffffffffffffffffffffffffffffffffffffff169060200190929190505050612049565b005b34801561070c57600080fd5b506107156121a9565b005b34801561072357600080fd5b5061072c61230a565b604051808215151515815260200191505060405180910390f35b34801561075257600080fd5b506107956004803603602081101561076957600080fd5b81019080803573ffffffffffffffffffffffffffffffffffffffff16906020019092919050505061231d565b604051808215151515815260200191505060405180910390f35b3480156107bb57600080fd5b506107c461233d565b604051808273ffffffffffffffffffffffffffffffffffffffff1673ffffffffffffffffffffffffffffffffffffffff16815260200191505060405180910390f35b34801561081257600080fd5b5061081b612366565b604051808215151515815260200191505060405180910390f35b34801561084157600080fd5b5061086e6004803603602081101561085857600080fd5b81019080803590602001909291905050506123bd565b005b34801561087c57600080fd5b506108856126e3565b005b34801561089357600080fd5b506108d6600480360360208110156108aa57600080fd5b81019080803573ffffffffffffffffffffffffffffffffffffffff1690602001909291905050506127a2565b005b3480156108e457600080fd5b506108ed61294c565b6040518082815260200191505060405180910390f35b34801561090f57600080fd5b5061093c6004803603602081101561092657600080fd5b8101908080359060200190929190505050612952565b6040518082815260200191505060405180910390f35b34801561095e57600080fd5b506109956004803603604081101561097557600080fd5b810190808035906020019092919080359060200190929190505050612972565b6040518080602001848152602001838152602001828103825285818151815260200191508051906020019080838360005b838110156109e15780820151818401526020810190506109c6565b50505050905090810190601f168015610a0e5780820380516001836020036101000a031916815260200191505b5094505050505060405180910390f35b348015610a2a57600080fd5b50610b0260048036036080811015610a4157600080fd5b8101908080359060200190640100000000811115610a5e57600080fd5b820183602082011115610a7057600080fd5b80359060200191846001830284011164010000000083111715610a9257600080fd5b91908080601f016020809104026020016040519081016040528093929190818152602001838380828437600081840152601f19601f820116905080830192505050505050509192919290803590602001909291908035906020019092919080359060200190929190505050612aa6565b005b348015610b1057600080fd5b50610b5360048036036020811015610b2757600080fd5b81019080803573ffffffffffffffffffffffffffffffffffffffff169060200190929190505050612ee5565b005b348015610b6157600080fd5b50610b9860048036036040811015610b7857600080fd5b81019080803590602001909291908035906020019092919050505061309a565b6040518082815260200191505060405180910390f35b348015610bba57600080fd5b50610bfd60048036036020811015610bd157600080fd5b81019080803573ffffffffffffffffffffffffffffffffffffffff1690602001909291905050506130d2565b005b348015610c0b57600080fd5b50610c3860048036036020811015610c2257600080fd5b8101908080359060200190929190505050613180565b6040518082815260200191505060405180910390f35b348015610c5a57600080fd5b50610c8760048036036020811015610c7157600080fd5b81019080803590602001909291905050506131a3565b6040518082815260200191505060405180910390f35b348015610ca957600080fd5b50610cd660048036036020811015610cc057600080fd5b81019080803590602001909291905050506131c6565b60405180806020018573ffffffffffffffffffffffffffffffffffffffff1673ffffffffffffffffffffffffffffffffffffffff168152602001848152602001838152602001828103825286818151815260200191508051906020019080838360005b83811015610d54578082015181840152602081019050610d39565b50505050905090810190601f168015610d815780820380516001836020036101000a031916815260200191505b509550505050505060405180910390f35b6000600560008373ffffffffffffffffffffffffffffffffffffffff1673ffffffffffffffffffffffffffffffffffffffff16815260200190815260200160002060000160009054906101000a900460ff169050809050919050565b828183600660008381526020019081526020016000206005016000828152602001908152602001600020600101548311151515610eb9576040517f08c379a00000000000000000000000000000000000000000000000000000000081526004018080602001828103825260388152602001807f596f752061726520747279696e6720746f207075726368617365206d6f72652081526020017f6974656d73207468616e2061726520617661696c61626c65000000000000000081525060400191505060405180910390fd5b85600660008681526020019081526020016000206005016000878152602001908152602001600020600201548181023410151515610f85576040517f08c379a000000000000000000000000000000000000000000000000000000000815260040180806020018281038252602b8152602001807f596f752068617665206e6f742074656e64657265642074686520696e636f727281526020017f65637420616d6f756e742e00000000000000000000000000000000000000000081525060400191505060405180910390fd5b8760066000888152602001908152602001600020600501600089815260200190815260200160002060020154600360009054906101000a900460ff16151515610fcd57600080fd5b89600660008a815260200190815260200160002060050160008b81526020019081526020016000206001016000828254039250508190555089600660008a815260200190815260200160002060050160008b81526020019081526020016000206002015402600660008a8152602001908152602001600020600301600082825401925050819055507f26125e9803f2d164e7f46967a1e18a50df120ea3d069c6a589ba56380dda4787898b8a600660008d815260200190815260200160002060050160008e8152602001908152602001600020600201546040518085815260200184815260200183815260200182815260200194505050505060405180910390a16000828202340390503373ffffffffffffffffffffffffffffffffffffffff166108fc829081150290604051600060405180830381858888f1935050505015801561111d573d6000803e3d6000fd5b507f278ecde10404a9f1d9088d6512ddd16581968e0a41c5416fce08986e7207bbe4816040518082815260200191505060405180910390a15050505050505050505050565b60025481565b611170612366565b151561120a576040517f08c379a000000000000000000000000000000000000000000000000000000000815260040180806020018281038252603c8152602001807f546869732066756e6374696f6e206973206f6e6c7920617661696c61626c652081526020017f746f20746865206f776e6572206f662074686520636f6e74726163740000000081525060400191505060405180910390fd5b600460008273ffffffffffffffffffffffffffffffffffffffff1673ffffffffffffffffffffffffffffffffffffffff16815260200190815260200160002060006101000a81549060ff02191690557f86f2a87e57b786e440244b5c31f13c4f7bda9b857bdfd1c8218ecdfb029f4c0f81604051808273ffffffffffffffffffffffffffffffffffffffff1673ffffffffffffffffffffffffffffffffffffffff16815260200191505060405180910390a150565b600560003373ffffffffffffffffffffffffffffffffffffffff1673ffffffffffffffffffffffffffffffffffffffff16815260200190815260200160002060000160009054906101000a900460ff168015156113aa576040517f08c379a000000000000000000000000000000000000000000000000000000000815260040180806020018281038252602f8152602001807f546869732066756e6374696f6e206973206f6e6c7920617661696c61626c652081526020017f746f2073746f7265206f776e657273000000000000000000000000000000000081525060400191505060405180910390fd5b6113b760015460016132ae565b6001819055508160066000600154815260200190815260200160002060000190805190602001906113e99291906134e7565b503360066000600154815260200190815260200160002060020160006101000a81548173ffffffffffffffffffffffffffffffffffffffff021916908373ffffffffffffffffffffffffffffffffffffffff160217905550600560003373ffffffffffffffffffffffffffffffffffffffff1673ffffffffffffffffffffffffffffffffffffffff16815260200190815260200160002060010160015490806001815401808255809150509060018203906000526020600020016000909192909190915055507f91dad1160e0a1a5d306cf9fea3b2ae2e13cd30e7a941e91c28c35dc41710aed26001548333600560003373ffffffffffffffffffffffffffffffffffffffff1673ffffffffffffffffffffffffffffffffffffffff16815260200190815260200160002060010160405180858152602001806020018473ffffffffffffffffffffffffffffffffffffffff1673ffffffffffffffffffffffffffffffffffffffff16815260200180602001838103835286818151815260200191508051906020019080838360005b83811015611593578082015181840152602081019050611578565b50505050905090810190601f1680156115c05780820380516001836020036101000a031916815260200191505b5083810382528481815481526020019150805480156115fe57602002820191906000526020600020905b8154815260200190600101908083116115ea575b5050965050505050505060405180910390a15050565b600060606006600084815260200190815260200160002060020160009054906101000a900473ffffffffffffffffffffffffffffffffffffffff169150600660008481526020019081526020016000206000018054600181600116156101000203166002900480601f0160208091040260200160405190810160405280929190818152602001828054600181600116156101000203166002900480156116fb5780601f106116d0576101008083540402835291602001916116fb565b820191906000526020600020905b8154815290600101906020018083116116de57829003601f168201915b50505050509050818191509150915091565b60056020528060005260406000206000915090508060000160009054906101000a900460ff16905081565b600560003373ffffffffffffffffffffffffffffffffffffffff1673ffffffffffffffffffffffffffffffffffffffff16815260200190815260200160002060000160009054906101000a900460ff16801515611823576040517f08c379a000000000000000000000000000000000000000000000000000000000815260040180806020018281038252602f8152602001807f546869732066756e6374696f6e206973206f6e6c7920617661696c61626c652081526020017f746f2073746f7265206f776e657273000000000000000000000000000000000081525060400191505060405180910390fd5b33836006600082815260200190815260200160002060020160009054906101000a900473ffffffffffffffffffffffffffffffffffffffff1673ffffffffffffffffffffffffffffffffffffffff168273ffffffffffffffffffffffffffffffffffffffff16141515611924576040517f08c379a000000000000000000000000000000000000000000000000000000000815260040180806020018281038252603c8152602001807f596f752063616e6e6f7420696e7465726163742077697468207468697320737481526020017f6f726520617320796f7520617265206e6f7420746865206f776e65720000000081525060400191505060405180910390fd5b600360009054906101000a900460ff1615151561194057600080fd5b8560025480821115151561195357600080fd5b856006600089815260200190815260200160002060050160008a8152602001908152602001600020600201819055507f7bb0939fa8871fdad6ab517d35a446bdf92216cfde5e600d537525e40bab2d5188888860405180848152602001838152602001828152602001935050505060405180910390a15050505050505050565b6119db612366565b1515611a75576040517f08c379a000000000000000000000000000000000000000000000000000000000815260040180806020018281038252603c8152602001807f546869732066756e6374696f6e206973206f6e6c7920617661696c61626c652081526020017f746f20746865206f776e6572206f662074686520636f6e74726163740000000081525060400191505060405180910390fd5b600360009054906101000a900460ff161515611a9057600080fd5b565b606060008060606006600087815260200190815260200160002060050160008681526020019081526020016000206000018054600181600116156101000203166002900480601f016020809104026020016040519081016040528092919081815260200182805460018160011615610100020316600290048015611b575780601f10611b2c57610100808354040283529160200191611b57565b820191906000526020600020905b815481529060010190602001808311611b3a57829003601f168201915b50505050509050600060066000888152602001908152602001600020600501600087815260200190815260200160002060010154905060006006600089815260200190815260200160002060050160008881526020019081526020016000206002015490508282829550955095505050509250925092565b6000600460008373ffffffffffffffffffffffffffffffffffffffff1673ffffffffffffffffffffffffffffffffffffffff16815260200190815260200160002060009054906101000a900460ff169050809050919050565b600560003373ffffffffffffffffffffffffffffffffffffffff1673ffffffffffffffffffffffffffffffffffffffff16815260200190815260200160002060000160009054906101000a900460ff16801515611d13576040517f08c379a000000000000000000000000000000000000000000000000000000000815260040180806020018281038252602f8152602001807f546869732066756e6374696f6e206973206f6e6c7920617661696c61626c652081526020017f746f2073746f7265206f776e657273000000000000000000000000000000000081525060400191505060405180910390fd5b33836006600082815260200190815260200160002060020160009054906101000a900473ffffffffffffffffffffffffffffffffffffffff1673ffffffffffffffffffffffffffffffffffffffff168273ffffffffffffffffffffffffffffffffffffffff16141515611e14576040517f08c379a000000000000000000000000000000000000000000000000000000000815260040180806020018281038252603c8152602001807f596f752063616e6e6f7420696e7465726163742077697468207468697320737481526020017f6f726520617320796f7520617265206e6f7420746865206f776e65720000000081525060400191505060405180910390fd5b83600254808211151515611e2757600080fd5b60066000888152602001908152602001600020600501600087815260200190815260200160002060008082016000611e5f9190613567565b60018201600090556002820160009055505060006006600089815260200190815260200160002060010180549050905060008090505b81811015611fa45787600660008b815260200190815260200160002060010182815481101515611ec157fe5b90600052602060002001541415611f9757600660008a815260200190815260200160002060010160018303815481101515611ef857fe5b9060005260206000200154600660008b815260200190815260200160002060010182815481101515611f2657fe5b9060005260206000200181905550600660008a815260200190815260200160002060010160018303815481101515611f5a57fe5b9060005260206000200160009055600660008a8152602001908152602001600020600101805480919060019003611f9191906135af565b50611fa4565b8080600101915050611e95565b507f07e3211e133eb160ac13057b9e7e7dce433ffee3770952424ef46c488c839ea28888600660008c81526020019081526020016000206001016040518084815260200183815260200180602001828103825283818154815260200191508054801561202f57602002820191906000526020600020905b81548152602001906001019080831161201b575b505094505050505060405180910390a15050505050505050565b612051612366565b15156120eb576040517f08c379a000000000000000000000000000000000000000000000000000000000815260040180806020018281038252603c8152602001807f546869732066756e6374696f6e206973206f6e6c7920617661696c61626c652081526020017f746f20746865206f776e6572206f662074686520636f6e74726163740000000081525060400191505060405180910390fd5b6001600460008373ffffffffffffffffffffffffffffffffffffffff1673ffffffffffffffffffffffffffffffffffffffff16815260200190815260200160002060006101000a81548160ff0219169083151502179055507fefcbb6030dbeda3448a657cc462d3fde6f3b78e2710bd7b2d9e2ab358a12e17081604051808273ffffffffffffffffffffffffffffffffffffffff1673ffffffffffffffffffffffffffffffffffffffff16815260200191505060405180910390a150565b6121b1612366565b151561224b576040517f08c379a000000000000000000000000000000000000000000000000000000000815260040180806020018281038252603c8152602001807f546869732066756e6374696f6e206973206f6e6c7920617661696c61626c652081526020017f746f20746865206f776e6572206f662074686520636f6e74726163740000000081525060400191505060405180910390fd5b600073ffffffffffffffffffffffffffffffffffffffff166000809054906101000a900473ffffffffffffffffffffffffffffffffffffffff1673ffffffffffffffffffffffffffffffffffffffff167f8be0079c531659141344cd1fd0a4f28419497f9722a3daafe3b4186f6b6457e060405160405180910390a360008060006101000a81548173ffffffffffffffffffffffffffffffffffffffff021916908373ffffffffffffffffffffffffffffffffffffffff160217905550565b600360009054906101000a900460ff1681565b60046020528060005260406000206000915054906101000a900460ff1681565b60008060009054906101000a900473ffffffffffffffffffffffffffffffffffffffff16905090565b60008060009054906101000a900473ffffffffffffffffffffffffffffffffffffffff1673ffffffffffffffffffffffffffffffffffffffff163373ffffffffffffffffffffffffffffffffffffffff1614905090565b600560003373ffffffffffffffffffffffffffffffffffffffff1673ffffffffffffffffffffffffffffffffffffffff16815260200190815260200160002060000160009054906101000a900460ff168015156124a8576040517f08c379a000000000000000000000000000000000000000000000000000000000815260040180806020018281038252602f8152602001807f546869732066756e6374696f6e206973206f6e6c7920617661696c61626c652081526020017f746f2073746f7265206f776e657273000000000000000000000000000000000081525060400191505060405180910390fd5b33826006600082815260200190815260200160002060020160009054906101000a900473ffffffffffffffffffffffffffffffffffffffff1673ffffffffffffffffffffffffffffffffffffffff168273ffffffffffffffffffffffffffffffffffffffff161415156125a9576040517f08c379a000000000000000000000000000000000000000000000000000000000815260040180806020018281038252603c8152602001807f596f752063616e6e6f7420696e7465726163742077697468207468697320737481526020017f6f726520617320796f7520617265206e6f7420746865206f776e65720000000081525060400191505060405180910390fd5b600360009054906101000a900460ff161515156125c557600080fd5b60006006600086815260200190815260200160002060020160009054906101000a900473ffffffffffffffffffffffffffffffffffffffff169050600060066000878152602001908152602001600020600301549050600060066000888152602001908152602001600020600301819055508173ffffffffffffffffffffffffffffffffffffffff166108fc829081150290604051600060405180830381858888f1935050505015801561267d573d6000803e3d6000fd5b507fec55db48190f8d91ed5ad4118ee6288cfd6506c9393dbdab71fa309691a16a6c8682600660008a81526020019081526020016000206003015460405180848152602001838152602001828152602001935050505060405180910390a1505050505050565b6126eb612366565b1515612785576040517f08c379a000000000000000000000000000000000000000000000000000000000815260040180806020018281038252603c8152602001807f546869732066756e6374696f6e206973206f6e6c7920617661696c61626c652081526020017f746f20746865206f776e6572206f662074686520636f6e74726163740000000081525060400191505060405180910390fd5b6001600360006101000a81548160ff021916908315150217905550565b600460003373ffffffffffffffffffffffffffffffffffffffff1673ffffffffffffffffffffffffffffffffffffffff16815260200190815260200160002060009054906101000a900460ff1680151561288a576040517f08c379a00000000000000000000000000000000000000000000000000000000081526004018080602001828103825260318152602001807f546869732066756e6374696f6e206973206f6e6c7920617661696c61626c652081526020017f746f2061646d696e6973747261746f727300000000000000000000000000000081525060400191505060405180910390fd5b6001600560008473ffffffffffffffffffffffffffffffffffffffff1673ffffffffffffffffffffffffffffffffffffffff16815260200190815260200160002060000160006101000a81548160ff0219169083151502179055507fc48be1259827f286158037425eac2071e5a2ce505bf01d53384e77fa0ef60da282604051808273ffffffffffffffffffffffffffffffffffffffff1673ffffffffffffffffffffffffffffffffffffffff16815260200191505060405180910390a15050565b60015481565b600060066000838152602001908152602001600020600401549050919050565b60606000806006600086815260200190815260200160002060050160008581526020019081526020016000206000018054600181600116156101000203166002900480601f016020809104026020016040519081016040528092919081815260200182805460018160011615610100020316600290048015612a355780601f10612a0a57610100808354040283529160200191612a35565b820191906000526020600020905b815481529060010190602001808311612a1857829003601f168201915b505050505092506006600086815260200190815260200160002060050160008581526020019081526020016000206001015491506006600086815260200190815260200160002060050160008581526020019081526020016000206002015490508282829250925092509250925092565b600560003373ffffffffffffffffffffffffffffffffffffffff1673ffffffffffffffffffffffffffffffffffffffff16815260200190815260200160002060000160009054906101000a900460ff16801515612b91576040517f08c379a000000000000000000000000000000000000000000000000000000000815260040180806020018281038252602f8152602001807f546869732066756e6374696f6e206973206f6e6c7920617661696c61626c652081526020017f746f2073746f7265206f776e657273000000000000000000000000000000000081525060400191505060405180910390fd5b33826006600082815260200190815260200160002060020160009054906101000a900473ffffffffffffffffffffffffffffffffffffffff1673ffffffffffffffffffffffffffffffffffffffff168273ffffffffffffffffffffffffffffffffffffffff16141515612c92576040517f08c379a000000000000000000000000000000000000000000000000000000000815260040180806020018281038252603c8152602001807f596f752063616e6e6f7420696e7465726163742077697468207468697320737481526020017f6f726520617320796f7520617265206e6f7420746865206f776e65720000000081525060400191505060405180910390fd5b600360009054906101000a900460ff16151515612cae57600080fd5b612cbb60025460016132ae565b6002819055508660066000868152602001908152602001600020600501600060025481526020019081526020016000206000019080519060200190612d019291906134e7565b50856006600086815260200190815260200160002060050160006002548152602001908152602001600020600101819055508460066000868152602001908152602001600020600501600060025481526020019081526020016000206002018190555060066000858152602001908152602001600020600101600254908060018154018082558091505090600182039060005260206000200160009091929091909150555060025460066000868152602001908152602001600020600401819055507ff7d91293721d0f8995b93ce4588704fe6cec39eddd45c258a22162ba552f62a360025485898989600660008b8152602001908152602001600020600101604051808781526020018681526020018060200185815260200184815260200180602001838103835287818151815260200191508051906020019080838360005b83811015612e5d578082015181840152602081019050612e42565b50505050905090810190601f168015612e8a5780820380516001836020036101000a031916815260200191505b508381038252848181548152602001915080548015612ec857602002820191906000526020600020905b815481526020019060010190808311612eb4575b50509850505050505050505060405180910390a150505050505050565b600460003373ffffffffffffffffffffffffffffffffffffffff1673ffffffffffffffffffffffffffffffffffffffff16815260200190815260200160002060009054906101000a900460ff16801515612fcd576040517f08c379a00000000000000000000000000000000000000000000000000000000081526004018080602001828103825260318152602001807f546869732066756e6374696f6e206973206f6e6c7920617661696c61626c652081526020017f746f2061646d696e6973747261746f727300000000000000000000000000000081525060400191505060405180910390fd5b600560008373ffffffffffffffffffffffffffffffffffffffff1673ffffffffffffffffffffffffffffffffffffffff168152602001908152602001600020600080820160006101000a81549060ff021916905560018201600061303191906135db565b50507fd89cae1cc248e953c8ad4c040cf8353ec442f065045d82884af21e15a979afc582604051808273ffffffffffffffffffffffffffffffffffffffff1673ffffffffffffffffffffffffffffffffffffffff16815260200191505060405180910390a15050565b600060066000848152602001908152602001600020600501600083815260200190815260200160002060010154905080905092915050565b6130da612366565b1515613174576040517f08c379a000000000000000000000000000000000000000000000000000000000815260040180806020018281038252603c8152602001807f546869732066756e6374696f6e206973206f6e6c7920617661696c61626c652081526020017f746f20746865206f776e6572206f662074686520636f6e74726163740000000081525060400191505060405180910390fd5b61317d81613384565b50565b600060066000838152602001908152602001600020600301549050809050919050565b600060066000838152602001908152602001600020600301549050809050919050565b6006602052806000526040600020600091509050806000018054600181600116156101000203166002900480601f0160208091040260200160405190810160405280929190818152602001828054600181600116156101000203166002900480156132725780601f1061324757610100808354040283529160200191613272565b820191906000526020600020905b81548152906001019060200180831161325557829003601f168201915b5050505050908060020160009054906101000a900473ffffffffffffffffffffffffffffffffffffffff16908060030154908060040154905084565b600080828401905083811015151561337a576040517f08c379a00000000000000000000000000000000000000000000000000000000081526004018080602001828103825260538152602001807f617661696c61626c652073746f726549442773202f20736b752773206f76657281526020017f666c6f776e2e20436f6e73696465722072657573696e6720766f6964206f722081526020017f616c7068616e756d657269632076616c7565730000000000000000000000000081525060600191505060405180910390fd5b8091505092915050565b600073ffffffffffffffffffffffffffffffffffffffff168173ffffffffffffffffffffffffffffffffffffffff1614151515613429576040517f08c379a00000000000000000000000000000000000000000000000000000000081526004018080602001828103825260178152602001807f6e6577206f776e65722063616e6e6f742062652030783000000000000000000081525060200191505060405180910390fd5b8073ffffffffffffffffffffffffffffffffffffffff166000809054906101000a900473ffffffffffffffffffffffffffffffffffffffff1673ffffffffffffffffffffffffffffffffffffffff167f8be0079c531659141344cd1fd0a4f28419497f9722a3daafe3b4186f6b6457e060405160405180910390a3806000806101000a81548173ffffffffffffffffffffffffffffffffffffffff021916908373ffffffffffffffffffffffffffffffffffffffff16021790555050565b828054600181600116156101000203166002900490600052602060002090601f016020900481019282601f1061352857805160ff1916838001178555613556565b82800160010185558215613556579182015b8281111561355557825182559160200191906001019061353a565b5b50905061356391906135fc565b5090565b50805460018160011615610100020316600290046000825580601f1061358d57506135ac565b601f0160209004906000526020600020908101906135ab91906135fc565b5b50565b8154818355818111156135d6578183600052602060002091820191016135d591906135fc565b5b505050565b50805460008255906000526020600020908101906135f991906135fc565b50565b61361e91905b8082111561361a576000816000905550600101613602565b5090565b9056fea165627a7a7230582042003985560cc173bfac6120aa26eaab195603d8839b69151734cf02cd64bdf70029",
  "source": "/*\nQuestions:\nImplement Eth/USD price\nCan I move the test functions out of this contract? How?\nI used ownable and now the js cannot read who owns the contract. How do I fix this?\nTest failling if I try read certain information.\nwhy is owner private in ownable. I changed it to internal because I need it in this contract.\nWhy can't I withdraw contract balance to owner (circuit breaker)\n*/\n\npragma solidity 0.5.0;\n\nimport \"./Ownable.sol\";\nimport \"./SafeMath.sol\";\n\ncontract MarketPlace is Ownable {\n\n    uint public storeCount = 0;\n    uint public skuCount = 0;\n    bool public stopped = false;\n\n    //Struct to hold details about each item for sale in a particular store\n    struct ItemForSale {\n        string name;\n        uint quantity;\n        uint price;\n    }\n\n    struct StoreFronts {\n        string storeName; //Struct containing store name to display on UI\n        uint[] skusInStore;\n        address payable storeOwner; //Address to cross check that the store owner is calling the function\n        uint pendingWithdrawal; //Total sales value of store\n        uint latestSkuNoInStore;\n        mapping(uint => ItemForSale) sku; //Mapping of all stock being sold by a particular store\n    }\n\n    struct StoreOwnersDB {\n        bool exists;\n        uint[] storesInStoreOwner;\n    }\n\n    //used a mapping as opposed to an array to avoid use of a loop to find matches\n    mapping(address => bool) public adminsDB; //mapping of admins by address\n    mapping(address => StoreOwnersDB) public storeOwnersDB; //mapping of store owners by address\n    mapping(uint => StoreFronts) public storeFront;\n\n\n\n    //Events\n    event adminAdded(address _admin);\n    event adminDeleted(address _admin);\n    event storeOwnerAdded(address _storeOwner);\n    event storeOwnerDeleted(address _storeOwner);\n    event storeFrontCreated(uint _storeID, string _storeName, address _storeOwner, uint[] _storesInStoreOwner);\n    event itemToSellAdded(uint _sku, uint _storeID, string _nameOfItem, uint _quantity, uint _price, uint[] _skusInStore);\n    event itemPriceUpdated(uint _sku, uint _storeID, uint _newPrice);\n    event itemForSaleDeleted(uint _storeID, uint _skuCode, uint[] _skusInStore);\n    event salesWithdrawn(uint _storeID, uint _payment, uint _storeSalesBalance);\n    event refund(uint _refund);\n    event itemBought(uint _skuCode, uint _quantity, uint _storeID, uint _price);\n\n\n\n    //Modifiers\n\n    modifier checkAdmin(bool _exists) {\n        require(_exists, \"This function is only available to administrators\");\n        _;\n    }\n\n    modifier checkStoreOwner(bool _exists) {\n        require(_exists, \"This function is only available to store owners\");\n        _;\n    }\n\n    modifier checkOwnerOfStore(address _storeOwner, uint _storeID) {\n        require (_storeOwner == storeFront[_storeID].storeOwner, \"You cannot interact with this store as you are not the owner\");\n        _;\n    }\n\n    modifier checkQuantity(uint _quantity, uint _storeID, uint _skuCode) {\n        require(_quantity <= storeFront[_storeID].sku[_skuCode].quantity, \"You are trying to purchase more items than are available\");\n        _;\n    }\n\n    modifier paidEnough(uint _quantity, uint _price) {\n        require(msg.value >= _price*_quantity, \"You have not tendered the incorrect amount.\");\n        _;\n    }\n\n    modifier checkValue(uint _quantity, uint _price) {\n        _;\n        uint amountToRefund = msg.value - _price*_quantity;\n        msg.sender.transfer(amountToRefund);\n        emit refund(amountToRefund);\n    }\n\n    modifier checkInt(uint _valueToCheck, uint _checkAgainst) {\n        require(_valueToCheck <= _checkAgainst);\n        _;\n    }\n\n    modifier stopInEmergency {\n        require(!stopped);\n        _;\n    }\n\n    modifier onlyInEmergency {\n        require(stopped);\n        _;\n    }\n\n\n\n    //Contract owner functions\n\n    function addAdmin(address _admin) \n        public \n        onlyOwner() \n    {\n        adminsDB[_admin] = true;\n        emit adminAdded(_admin);\n    }\n\n    function deleteAdmin(address _admin) \n        public \n        onlyOwner() \n    {\n            delete adminsDB[_admin];\n            emit adminDeleted(_admin);\n    }\n\n    function activateEmergencyStop()\n        public\n        onlyOwner()\n    {\n        stopped = true;\n    }\n\n    function withdrawAllFunds()\n        public\n        onlyOwner()\n        onlyInEmergency() \n    {\n        //_owner.transfer(address(this).balance);\n    }\n\n\n    //Admin functions\n\n    function addStoreOwner(address _newStoreOwner) \n        public \n        checkAdmin(adminsDB[msg.sender])\n    {\n            storeOwnersDB[_newStoreOwner].exists = true;\n            emit storeOwnerAdded(_newStoreOwner);\n    }\n\n    function deleteStoreOwner(address _deleteStoreOwner) \n        public \n        checkAdmin(adminsDB[msg.sender]) \n    {\n            delete storeOwnersDB[_deleteStoreOwner];\n            emit storeOwnerDeleted(_deleteStoreOwner);\n    }\n\n\n\n    //Store owner functions\n\n    function createStoreFront(string memory _storeName) \n        public \n        checkStoreOwner(storeOwnersDB[msg.sender].exists) \n    {\n            storeCount = SafeMath.add(storeCount, 1);\n            storeFront[storeCount].storeName = _storeName;\n            storeFront[storeCount].storeOwner = msg.sender;\n            storeOwnersDB[msg.sender].storesInStoreOwner.push(storeCount);\n            emit storeFrontCreated(storeCount, _storeName, msg.sender, storeOwnersDB[msg.sender].storesInStoreOwner);\n    }\n\n    function addItem(string memory _nameOfItem, uint _quantity, uint _price, uint _storeID) \n        public \n        checkStoreOwner(storeOwnersDB[msg.sender].exists)\n        checkOwnerOfStore(msg.sender, _storeID)\n        stopInEmergency()\n    {\n            skuCount = SafeMath.add(skuCount, 1);\n            storeFront[_storeID].sku[skuCount].name = _nameOfItem;\n            storeFront[_storeID].sku[skuCount].quantity = _quantity;\n            storeFront[_storeID].sku[skuCount].price = _price;\n            storeFront[_storeID].skusInStore.push(skuCount);\n            storeFront[_storeID].latestSkuNoInStore = skuCount;\n            \n            emit itemToSellAdded(skuCount, _storeID, _nameOfItem, _quantity, _price, storeFront[_storeID].skusInStore);\n    }\n\n    function changePrice(uint _skuCode, uint _storeID, uint _newPrice) \n        public \n        checkStoreOwner(storeOwnersDB[msg.sender].exists)\n        checkOwnerOfStore(msg.sender, _storeID)\n        stopInEmergency()\n        checkInt(_skuCode, skuCount)\n    {\n            storeFront[_storeID].sku[_skuCode].price = _newPrice;\n            emit itemPriceUpdated(_skuCode, _storeID, _newPrice);\n    }\n\n    function deleteItem(uint _storeID, uint _skuCode)\n        public \n        checkStoreOwner(storeOwnersDB[msg.sender].exists)\n        checkOwnerOfStore(msg.sender, _storeID)\n        checkInt(_skuCode, skuCount)\n    {\n            delete storeFront[_storeID].sku[_skuCode];\n\n            //An array is used to track skus that belong to a store.\n            //It is necessary to remove a sku and delete its position from this array so that the front\n            //end displays the correct number of items for sale in a shop. Order does not matter. The\n            //quickest way to delete an element from an array is to move the last item in the array into\n            //the deleted position, delete the last position, reduce len of array by 1 --> saves gas.\n            uint len = storeFront[_storeID].skusInStore.length;\n            for (uint k = 0; k < len; k++) {\n                if (storeFront[_storeID].skusInStore[k] == _skuCode) {\n                    storeFront[_storeID].skusInStore[k] = storeFront[_storeID].skusInStore[len-1];\n                    delete storeFront[_storeID].skusInStore[len -1];\n                    storeFront[_storeID].skusInStore.length --;\n                    break;\n                }\n            }\n            emit itemForSaleDeleted(_storeID, _skuCode, storeFront[_storeID].skusInStore);\n    }\n\n    function withdrawSales(uint _storeID) \n        public \n        checkStoreOwner(storeOwnersDB[msg.sender].exists)\n        checkOwnerOfStore(msg.sender, _storeID)\n        stopInEmergency()\n    {\n            address payable storeOwnerAddress = storeFront[_storeID].storeOwner;\n            uint payment = storeFront[_storeID].pendingWithdrawal;\n            storeFront[_storeID].pendingWithdrawal = 0; //Preventing reentrancy\n            storeOwnerAddress.transfer(payment);\n            emit salesWithdrawn(_storeID, payment, storeFront[_storeID].pendingWithdrawal);\n    }\n\n\n    \n    //Shopper functions\n    function buyItem(uint _quantity, uint _skuCode, uint _storeID) \n        public\n        payable\n        checkQuantity(_quantity, _storeID, _skuCode)\n        paidEnough(_quantity, storeFront[_storeID].sku[_skuCode].price)\n        checkValue(_quantity, storeFront[_storeID].sku[_skuCode].price)\n        stopInEmergency()\n        \n    {\n            storeFront[_storeID].sku[_skuCode].quantity -= _quantity;\n            storeFront[_storeID].pendingWithdrawal += (storeFront[_storeID].sku[_skuCode].price*_quantity);\n            emit itemBought(_skuCode, _quantity, _storeID, storeFront[_storeID].sku[_skuCode].price);\n    }\n\n\n\n    //Getters\n    function getLatestSKU(uint _storeID) \n        public\n        view\n        returns (uint)\n    {\n        return storeFront[_storeID].latestSkuNoInStore;\n    }\n\n    function getItemInShop(uint _storeID, uint _sku)\n        public\n        view\n        returns (string memory, uint, uint)\n    {\n        string memory itemName = storeFront[_storeID].sku[_sku].name;\n        uint itemQuantity = storeFront[_storeID].sku[_sku].quantity;\n        uint itemPrice = storeFront[_storeID].sku[_sku].price;\n        return (itemName, itemQuantity, itemPrice);\n    }\n    \n    /*function getItemInShopName(uint _storeID, uint _sku)\n        public\n        view\n        returns (string memory)\n    {\n        return storeFront[_storeID].sku[_sku].name;\n    }\n\n    function getItemInShopQuantity(uint _storeID, uint _sku)\n        public\n        view\n        returns (uint)\n    {\n        return storeFront[_storeID].sku[_sku].quantity;\n    }\n            \n    function getItemInShopPrice(uint _storeID, uint _sku)\n        public\n        view\n        returns (uint)\n    {\n        return storeFront[_storeID].sku[_sku].price;\n    }*/\n\n\n\n    //Testing\n    function fetchAdmin(address _isAdmin) \n        public\n        view\n        returns (bool newAdminExists)\n    {\n            newAdminExists = adminsDB[_isAdmin];\n            return newAdminExists;\n    }\n\n    function fetchStoreOwner(address _isStoreOwner)\n        public\n        view\n        returns (bool newStoreOwner)\n    {\n            newStoreOwner = storeOwnersDB[_isStoreOwner].exists;\n            return newStoreOwner;\n    }\n\n    function fetchStoreID(uint _storeID)\n        public\n        view\n        returns (address newStoreOwnerAddress, string memory storeNameAdded)\n    {\n            newStoreOwnerAddress = storeFront[_storeID].storeOwner;\n            storeNameAdded = storeFront[_storeID].storeName;\n            return (newStoreOwnerAddress, storeNameAdded);\n    }\n\n    function fetchItem(uint _storeID, uint _skuCode)\n        public\n        view\n        returns (string memory isName, uint isQuantity, uint isPrice)\n    {\n            isName = storeFront[_storeID].sku[_skuCode].name;\n            isQuantity = storeFront[_storeID].sku[_skuCode].quantity;\n            isPrice = storeFront[_storeID].sku[_skuCode].price;\n            return (isName, isQuantity, isPrice);\n    }\n\n    function isItemBought(uint _currentStoreID, uint _currentSKU)\n        public\n        view\n        returns (uint newQuantity)\n    {\n            return newQuantity = storeFront[_currentStoreID].sku[_currentSKU].quantity;\n    }\n\n    function fetchStoreBalance (uint _storeID)\n        public\n        view\n        returns (uint storeBalance)\n    {\n            storeBalance = storeFront[_storeID].pendingWithdrawal;\n            return storeBalance;\n    }\n\n    function fetchSalesWithdrawn(uint _storeID)\n        public\n        view\n        returns (uint storeBalance)\n    {\n            storeBalance = storeFront[_storeID].pendingWithdrawal;\n            return storeBalance;\n    }\n}",
  "sourcePath": "/home/satoshisingh/Online-Marketplace-2/final-project-SuperSuperSingh/contracts/MarketPlace.sol",
  "compiler": {
    "name": "solc",
    "version": "0.5.0+commit.1d4f565a.Emscripten.clang"
  },
  "schemaVersion": "3.0.1",
  "updatedAt": "2019-01-21T06:08:32.480Z",
  "devdoc": {
    "methods": {
      "isOwner()": {
        "return": "true if `msg.sender` is the owner of the contract."
      },
      "owner()": {
        "return": "the address of the owner."
      },
      "renounceOwnership()": {
        "details": "Allows the current owner to relinquish control of the contract."
      },
      "transferOwnership(address)": {
        "details": "Allows the current owner to transfer control of the contract to a newOwner.",
        "params": {
          "newOwner": "The address to transfer ownership to."
        }
      }
    }
  },
  "userdoc": {
    "methods": {
      "renounceOwnership()": {
        "notice": "Renouncing to ownership will leave the contract without an owner. It will not be possible to call the functions with the `onlyOwner` modifier anymore."
      }
    }
  }
}